:020000041000EA
:1000000000B5324B212058609868022188439860DF
:10001000D860186158612E4B002199600221596106
:100020000121F02299502B49196001219960352056
:1000300000F044F80222904214D00621196600F024
:1000400034F8196E01211966002018661A6600F04E
:100050002CF8196E196E196E052000F02FF8012189
:100060000842F9D1002199601B49196000215960AB
:100070001A491B48016001219960EB211966A021F2
:10008000196600F012F800219960164914480160C1
:100090000121996001BC002800D000471248134993
:1000A000086003C880F30888084703B5996A0420EC
:1000B0000142FBD001200142F8D103BD02B5186610
:1000C0001866FFF7F2FF186E186E02BD00000240BE
:1000D000000000180000070000035F00212200005C
:1000E000F4000018222000A00001001008ED00E03C
:1000F00000000000000000000000000074B24E7A12
:1001000000200420F7010010CB010010CD010010E9
:10011000C9010010C9010010C9010010C901001077
:10012000C9010010C9010010C9010010CF01001061
:10013000C9010010C9010010D1010010D301001045
:10014000C1010010C1010010C1010010C101001067
:10015000C1010010C1010010C1010010C101001057
:10016000C1010010C1010010C1010010C101001047
:10017000C1010010C1010010C1010010C101001037
:10018000C1010010C1010010C1010010C101001027
:10019000C1010010C1010010C1010010C101001017
:1001A000C1010010C1010010C1010010C101001007
:1001B000C1010010C1010010C1010010C1010010F7
:1001C000EFF30580103800BE00BE00BE00BE00BECA
:1001D00000BE00BEF2EB887104250010202500103F
:1001E0003802001090A31AE71E481F49086006C88D
:1001F00081F3088810471D480068002801D019487D
:10020000F3E70DA40ECC002902D000F012F8F9E7B4
:100210001749184A002000E001C19142FCD116495B
:100220008847164988471649884700BEFDE701C937
:1002300001C29A42FBD3704720250010C000002065
:1002400020070020802B0010000004200000042064
:10025000802B00100010042000100420000000007B
:10026000704700000000000008ED00E0000000D032
:1002700020070020800C0020BD170010D5020010C0
:10028000B5170010F8B5C04606480749091A8B1083
:10029000C90FC91810B5491003D0044B002B00D06A
:1002A000984710BD20070020200700200000000014
:1002B000054B10B5002B03D00449054800E000BFF2
:1002C000FFF7E2FF10BDC04600000000500C002008
:1002D0001824001010B500F05DF900F097F9FCE764
:1002E000F8B5D0228023DE4657464E46454680214B
:1002F0001206DB00E0B50901936153680B42FCD0A4
:100300008020000201F0F6F9804600F081F94020DB
:10031000D023082282462038814610380026022148
:100320009446834604241B068BE099615A619A61C6
:10033000870400D594E099615A619A61C70400D599
:1003400094E099615A619A61070500D594E099613A
:100350005A619A61470500D594E099615A619A61A2
:10036000870500D594E099615A619A61C70500D567
:1003700094E099615A619A61070600D594E0574666
:1003800099615A619A61074200D094E04F469961A1
:100390005A619A61074200D094E05F4699615A61C0
:1003A0009A61074200D094E0674699615A619A6168
:1003B000074200D094E099615A619A61044200D0EA
:1003C00094E099615A619A61014200D094E05846E4
:1003D00099615A619A615861E80900D094E05046E9
:1003E0009C615A619A61284200D094E048469C6121
:1003F0005A619A61284200D094E058469C615A6143
:100400009A61284200D094E060469C615A619A61EA
:10041000284200D094E09C615A619A612C4200D03D
:1004200094E09C615A619A61294200D094E0604650
:100430009C6158619861802001360002864200D19B
:1004400094E04546B0B2AD5D99615A619A61770416
:1004500000D46AE759615A619A61870400D46AE757
:1004600059615A619A61C70400D46AE759615A61B7
:100470009A61070500D46AE759615A619A61470594
:1004800000D46AE759615A619A61870500D46AE726
:1004900059615A619A61C70500D46AE759615A6186
:1004A0009A61070600D46AE7574659615A619A6112
:1004B000074200D16AE74F4659615A619A61074283
:1004C00000D16AE75F4659615A619A61074200D1DB
:1004D0006AE7674659615A619A61074200D16AE743
:1004E00059615A619A61044200D16AE759615A61BF
:1004F0009A61014200D16AE7584659615A619A618E
:100500005861E80900D16AE750465C615A619A6116
:10051000284200D16AE748465C615A619A612842E4
:1005200000D16AE758465C615A619A61284200D15D
:100530006AE760465C615A619A61284200D16AE7C5
:100540005C615A619A612C4200D16AE75C615A6130
:100550009A61294200D16AE760465C6158619861FE
:10056000802001360002864200D06AE7404601F052
:10057000D3F8D024802320252406DB006361642087
:10058000A56100F043FC6561F0BCBB46B246A946DC
:10059000A046F8BD10B50020D02400F043F8012398
:1005A0002406A362012000F03DF8022302206362CA
:1005B00000F038F804230320636200F033F80823C6
:1005C0000420636200F02EF810230520636200F01F
:1005D00029F820230620636200F024F84023072036
:1005E000A36200F01FF880230A20636200F01AF86B
:1005F0008023DB000B20636200F014F880231B01D2
:10060000A3626368FFF76CFE10BDC0467047C0462A
:10061000802210B50249120201F08AF810BDC046CE
:1006200000803F100123D022834012069362936121
:10063000094A83009A1811684022514080320A40CA
:100640000649C0008C4663441A60054B9C4605234E
:10065000604443607047C04604C0014004D001407C
:10066000004001400FB400B5084883B001F0DAF94A
:10067000049B002B07D005A91800019101F066F832
:10068000034801F0CFF9012001F078F81824001098
:100690002824001070B5EFF3108C72B60D4D2B6846
:1006A000002BFCD0BFF35F8F0724CB08C618C05CBB
:1006B00001230C40A3401C000440034207D118430F
:1006C0003070BFF35F8F2C608CF3108870BD10000A
:1006D000FFF7C8FF2C0100D0044A1078431CDBB29E
:1006E000172B00D9102313707047C04698010020C3
:1006F0000021044B044ABFF35F8F02C39342FAD137
:100700007047C046000100D0800100D0054B064A6A
:100710001360064A136053609360D36013615361A2
:10072000936170478080808000E400E004E400E092
:100730001F2318401E3B8340002905D0C021044AD6
:100740004900535013607047802201498B50FAE7EB
:1007500000E100E070B50D00EFF3108672B60F4AAD
:100760001368002BFCD0BFF35F8F0D4B10309B68DC
:1007700084001B590B4A934203D09D4201D000F0E4
:100780009FFD074B9B681D51BFF35F8FBFF35F8FCA
:100790000022024B1A6086F3108870BD240100D03D
:1007A00000ED00E0C1010010024B9C46614489004D
:1007B000016070474000003470B5114C114DAC42DF
:1007C0000FD2FF262368002B0CD0FFF785FF010016
:1007D0002000FFF7E9FFA680BFF35F8F0834AC422B
:1007E000F0D370BDFFF778FF01002000FFF7DCFFBA
:1007F0002671BFF35F8F0834AC42E3D3F1E7C04604
:1008000018070020200700200A4B1968EFF310801A
:1008100072B60A68002AFCD0BFF35F8F1B68BFF373
:100820005F8F00221A6080F3108840BF00200021F3
:100830007047C0467C0C0020F0B5DE4657464E4659
:100840004546E0B583B0EFF3058203231340B54A74
:10085000990052580091904601229A409346B24B1B
:100860001A60B24B01935B46B1484363434608228A
:100870009B5E9946002B3ADA43469B881BB2002BBD
:1008800000DB9DE043469B79002B00D0E1E043462E
:1008900008241C5F002C20DB43465A6963001B19A7
:1008A000DB00D3189D68DC686B1C00D103E1A04815
:1008B000009984466144826A0B69AE1A9B1A9E4273
:1008C00013D35A46036A1A420FD0994800F040FBEE
:1008D0008C4202DCC7D18542C5D940BF03B0F0BC11
:1008E000BB46B246A946A046F0BD0D61EDE74246C3
:1008F00052695B0092464B44DB009A4453469E6823
:10090000DF6800F025FB8F42B6DC00D1F8E0002F55
:1009100000DAD9E05246534654691B69019A934262
:1009200000D1CCE0414652460820085E52880004BF
:1009300021001043984704000D0023002B4300D1F1
:10094000C2E0002D00DBDFE030003900001BA941D0
:1009500053469860D96000229A5E002A00DA8BE73D
:1009600043465D6953009C18E4002C19A768E468AD
:100970008C4200DD80E702D1874200D97CE7464601
:10098000328108360DE08C4200D1C6E01E00002303
:10099000F25E002A0ADB53009C18E4002C19A768B9
:1009A000E4689B18DB00EB188C42ECDD53461A80A0
:1009B0004B46338043469B881BB2002B00DA61E72D
:1009C00043461A69EFF3108172B61368002BFCD00E
:1009D000BFF35F8F43469E88012342465B4293806C
:1009E00036B21369BFF35F8F00221A6081F310885B
:1009F000002E00DA46E743465D69083342469C46CE
:100A00007700BF19FF00EF19BB68604698460823BE
:100A1000D15E9246FC68002907DA0EE0A24246D079
:100A200018000023C15E002906DB4B005B18DB00C9
:100A3000EB18DA68A242F1DD524606800023FE5E22
:100A40003980002EDCDA904643469B79002B00D19A
:100A50001DE7002342469371434646460821595EEE
:100A600008364B1C00D138E747468946556902E0F5
:100A700006004B1C18D04B005B18DB00E8180A007E
:100A80008C46E95E43881BB2002BF1DA01235B42FE
:100A9000DC178360C4604A4503D031803B89038002
:100AA0003A81E1464B1CE6D1B8464C46F2E69A68DC
:100AB0004245B5D9C0E7631C00D0F8E605E7200041
:100AC00023699847002825D1534642461B88138145
:100AD0001269EFF3108372B611680029FCD0BFF3DE
:100AE0005F8F4246514652880A80424649465180AD
:100AF0001269BFF35F8F0021116083F31088BBE69A
:100B0000864200D803E7B7E6094800F021FA001949
:100B100069411DE7656824680FE7874200D835E71B
:100B200044E7C046680C00203C70054039080010BE
:100B30000040054070B52E4C2569002D04D00A21D7
:100B40002C48FFF731FE70BD2B4E0321300000F022
:100B5000F5F9E660FFF7C0FD284B03229C46D02341
:100B600022701B061B6801216370254B6044A36043
:100B70000F23800020610220638063694942A180C5
:100B800019800231198647311D83585218315A5243
:100B900075325C399952183201319952183201314B
:100BA0009952183201319952083518329D5202314A
:100BB0001832995218320131995218320131995232
:100BC00018320131995218320131995218320131DB
:100BD00099520C4B0C49DC6001303562FFF7BAFDCD
:100BE00001210320FFF7A4FD084B1D60A7E7C046C5
:100BF0009C0100207C0C0020004005404000003497
:100C0000FFFF1000680C0020390800103860054014
:100C100070B501000469EFF3108C72B620680028EB
:100C2000FCD0BFF35F8F02200D5E4C696800401955
:100C3000C0002418002D37DB208848800869BFF3E6
:100C40005F8F002606608CF31088E3606388049849
:100C5000013320615B0405985B0CA26060611A1C83
:100C6000002B1FD093B22804628018430A69EFF367
:100C7000108C72B61368002BFCD0BFF35F8F8B888B
:100C800023808D800B69BFF35F8F00221A608CF385
:100C900010880B7801329A40CB6808498C4663442F
:100CA0001A6070BD0122DDE70B69BFF35F8F002280
:100CB0001A608CF3108801204042F2E73C200000CB
:100CC00010B543890A1493421ADD53009B184269F8
:100CD000DB00D3180469EFF3108C72B62268002A87
:100CE000FCD0BFF35F8F5A88090494B2090C8A4282
:100CF00008D00369BFF35F8F00221A608CF310885D
:100D0000002010BD8022120214435C80012302697E
:100D10008371BFF35F8F002111608CF31088044949
:100D200002788C469340C268012062441360E8E771
:100D30003C200000F0B504000D0006267642F717AF
:100D4000C64636196F4100B582B08F4214D811D013
:100D500000F006F932003B00121A8B41002B17DC21
:100D6000002B47D02000290000F004F902B080BC1D
:100D7000B846F0BD8642EBD90022002316001F00C2
:100D800000F0EEF832003B00121A8B41002BE7DD39
:100D900000F0E6F832003B00121A8B41002B0ADB10
:100DA00000230193154B3200009315483B00FFF7D9
:100DB0002FFF0028D6DB00239C46B046114A124E76
:100DC000736A9F4204D8B16A8845CBD99F42C9D182
:100DD0001168EFF3108072B60B68002BFCD0BFF3E4
:100DE0005F8F1368BFF35F8F6146196080F31088CF
:100DF00020BFE5E7002AB5D0CAE7C04609080010C1
:100E00009C0100207C0C00200040054070B50600CD
:100E100000F0A6F8FA2204000D00002330000021A3
:100E2000920000F005FC8023001969411B069942DD
:100E300002D3012002494042FFF77CFF70BDC0464B
:100E4000FFFFFF7FF0B5D6464F464646C0B50400CB
:100E50000D0082B0EFF305878946002F0ED034498C
:100E600000204B6AAB4203D38A6A0130A24226D3E8
:100E700002B0E0BCBA46B146A846F0BD2D4B98463C
:100E8000DB689A46434650461E7800F061F80B0036
:100E9000514602000436B600715820008E1A29000F
:100EA000801A99418F4211DC0ED020BF204A0020C9
:100EB000536A4B45DCD3926A0130A242D8D25B1B05
:100EC0005A1E9341D8B2D3E78642EED900F048F8D3
:100ED00022002B00121A8B41002B1ADB00230193F6
:100EE000154B2200009340462B00FFF791FE011E98
:100EF0000FDD0F4B5A6A4A4517D39B6AA34212D3A0
:100F00004046FFF7DDFE0A4A0020536A4B45AFD347
:100F1000D1E7074A0020536A4B45A9D3926A0120C2
:100F2000A242A5D2CBE74A45EAD120BFE8E7C046B6
:100F3000004005409C0100200908001010B5024A3D
:100F40000248FFF7A7FB10BD2C240010100C002056
:100F50000300416A0A00986A596A8A42FAD17047C6
:100F6000034B596A0A00986A596A9142FAD170474C
:100F700000400540064A536A9942FCD807D1044B09
:100F800002E05A6A914202D19A6A8242F9D37047CA
:100F900000400540F8B5DE464E4657464546E0B5AA
:100FA0008B4605000A991800160000F0B3FA0A9B58
:100FB0006C001F02324B64199C46A40064446368B1
:100FC00081469F4200D967602B1FDBB29846012BF8
:100FD00030D9C02380229B01E31812011A60294BEB
:100FE000AD0059599A4600291BD17301E0262268A9
:100FF00053401E40802342465B01E3181E60012AD5
:1010000030D9802380229B01E31812011A605346D5
:101010004A4667605A51F0BCBB46B246A946A04654
:10102000F8BD586900F076FA013043001B18033B05
:10103000FDD2DAE75B46012BCBD1C02303229B0113
:10104000E3181A60023AA3681A42FCD07301E02642
:101050002268AD0053401E4080230A4A5B0192463D
:10106000E3181E605A462168514003220A401A6064
:1010700001225B469A40A3681A42FCD0C1E7C046F1
:1010800000800040140C0020F0B546464F46D6467E
:10109000C0B51F00344B44009C462418A40064448F
:1010A000636888461600FF2B02D880235B006360CC
:1010B000031FDBB29A46012B30D9C02380229B014B
:1010C000E31812011A60294B8500595999460029E5
:1010D0001BD17301E026226853401E4080235246F4
:1010E0005B01E3181E60012A30D9802380229B0116
:1010F000E31812011A6080235B0063604B465F5166
:10110000E0BCBA46B146A846F0BD586900F002FA04
:10111000013043001B18033BFDD2DAE74346012BA5
:10112000CBD1C02303229B01E3181A60023AA368C3
:101130001A42FCD07301E0262268850053401E400D
:1011400080230A4A5B019146E3181E6042462168EB
:10115000514003220A401A60012342469340A2688C
:101160001342FCD0C1E7C04600800040140C0020B0
:10117000014B8000C0587047140C0020F8B50400E3
:1011800021481E0017000D0000F0C4F901003800CE
:1011900000F0C0F9069B36041B031E432368002B96
:1011A00020DB1A4B1A49E3185A1E93418022920100
:1011B00094465B421B0B174A1B0363441360164A99
:1011C00013601F000A689743FBD1144B2560E21897
:1011D0002123A06013602368002BFCDA0823E6605B
:1011E0001360F8BD3F2322681340AB42D9D1A368F6
:1011F0001B051B0D8342D4D1EE22E368D2021340BB
:10120000B342CED1EDE7C046001BB7000040FDBFA2
:1012100008C0004000E0004000F000400430000042
:101220008023024A9B000B43D36270470080054035
:10123000142310B50100188804331B88984710BD8B
:10124000162310B50100188802331B88984710BD7B
:10125000F8B54746CE4680B50F1E19D014239946DF
:10126000043304000025012698464B46188843465F
:1012700021681B88984701C4431E984101354042AC
:101280000640AF42F1D13000C0BCB946B046F8BD0F
:101290000126F8E7AA23064A1B0113608D235B0091
:1012A000D3600449044B19605368002BFCDA704783
:1012B0000040024000B0FA00006002407047C046A3
:1012C00010B50148FFF7CEF95024001070B5074D56
:1012D000074EB54209D20024013E761BB60808CD60
:1012E000984723000134B342F9D170BDD8230010D0
:1012F00014240010054B064A06491A60064A074B9B
:101300001A6010000B689843FBD1704700E0004062
:10131000BFCDFBFE08C00040FE7F3C0000F0004057
:10132000044BDB6C002B03D18022034BD2021A60EA
:101330007047C046000011504C201150044A054B24
:101340001A60054A1368DB018033FBD17047C04641
:10135000FFFFFF0100F0004008C000404022034BA7
:101360009A675A671A67DA667047C04600F001400C
:1013700010B5FFF7BDF910BDF8B52749274C284D2A
:10138000641AA6103200302E00D9302228009200B4
:1013900000F0CEF9BC2C3BD830202F232C19640749
:1013A000204A801BE40F9B1B052B16D93700002C0D
:1013B00002D0B300771CEA50001B33199B00410890
:1013C000EB18C900C9181A605A6008339942FAD15B
:1013D000012303421CD09843C619B300EA50731C82
:1013E0002F2E15D09B00EA50B31C2E2E10D09B0040
:1013F000EA50F31C2D2E0BD09B00EA50331D2C2EEF
:1014000006D09B00EA50731D2B2E01D09B00EA50A2
:10141000054B9D60F8BDC04600010010C0010010E2
:1014200000000020C101001000ED00E0002310B515
:10143000294C82B0A367FFF72DFF0122274B1A60CA
:10144000636C012BFCD10322254B1A60224A936B5B
:10145000012BFCD1013300930121224A224804339D
:10146000FFF78CFE052301210093204A2048FFF757
:1014700085FE0022022104201E4BFFF705FE0022FC
:10148000012105201C4BFFF7FFFD00220021072052
:101490001A4BFFF7F9FD002200210820174BFFF738
:1014A000F3FD8023DB000093002200210920134B71
:1014B000FFF770FD0022104B00210620FFF7E4FD2E
:1014C0000420FFF755FE0E4900F024F8010000202B
:1014D000FFF7A6FE02B010BD008000403CB0004007
:1014E00030B00040002F685900800240008C8647D1
:1014F00000C00240001BB70040597307006CDC02BB
:1015000040420F0001480421014B1847C001002050
:1015100051120010114A936F9B0813D21066516646
:10152000002905D0FFE7FFE7FFE7516F106F704715
:1015300004B5002801D00020C04300F03DFF002189
:1015400004BDC046F0B5146E556E576F166FFFF7A9
:10155000E5FF1466556657671667F0BD000000D0BA
:10156000132370B51D78012D19D014DD1F48FFF726
:1015700067FE06001E48FFF763FE1E4C8022310006
:10158000200000F0D5F8022D2DD01B48FFF750FEAB
:101590001A4B186070BD1A4B164CA364F5E7184B34
:1015A000144C23606360A360E36023616361A36103
:1015B000E36123626362A362E36223636363A36301
:1015C000E36323646364A364E36423656365A365E1
:1015D000E36523666366A366E36623676367A367C1
:1015E000E367A364D1E7064BA364CEE7534400004E
:1015F00053460000A00800204C330000780C002067
:101600000516001007B5604601880A0A0230DF2A75
:10161000FAD1C9B2820804D302884088000410437A
:1016200000E00068014A5050039007BDA008002068
:1016300051434343C9188C46110C83B24B4310B439
:10164000040C614392B280B2504362431C041B0CF1
:10165000001910BC59411304120CC01851416144C7
:1016600070470000132310B512481C78FFF7E8FDFF
:101670000100012C0AD003DD80220F4800F058F849
:101680000E48FFF7D5FD0E4B186010BD0A4C5422D2
:10169000200000F04DF80B4B6365A365E3652366FE
:1016A0006366A366E36623676367A367E3672362F2
:1016B000E361E5E753460000A00900204C33000039
:1016C000780C0020C916001007B5604601880A0A88
:1016D0000230DF2AFAD1C9B2820804D302884088D6
:1016E0000004104300E00068014A5050039007BD19
:1016F000A009002010B5040000F0B2F9002804D0C1
:10170000034B04199C4200D810BD0248FEF7AAFF03
:10171000000004205C24001010B500F0ABF910BDEF
:1017200001480421014B1847D0010020511200103C
:10173000014B5B6818470000D001002010B500285D
:1017400000D110BD00F022F9FBE7C04610B5094AF0
:101750000300146884B0002C08D0012200910648D0
:10176000524203A9A047012004B010BD00F05AF96D
:101770000020F9E74C0C00203D17001000BEFDE7EB
:10178000094A03001068002805D00849C3188B4295
:1017900007D81360704706480449C31810608B428D
:1017A000F7D901204042F5E7480C00200000042052
:1017B000800C002010B5FFF7E1FFC04670B5FFF7C1
:1017C00085FD074D074EB54209D20024013E761B28
:1017D000B60808CD984723000134B342F9D170BD53
:1017E0001424001018240010030010B50800110084
:1017F0001B68984710BDC046F0B5C64600B5437D8E
:1018000007000D001600002B38D0002A2EDD002125
:101810006A1E90466A5C037D4C1C00200A2A0CD08C
:10182000A64216D043461B5D21000D3B5A42534150
:101830006A5CDBB24C1C0A2AF2D1002BF0D1884240
:1018400017DB022110483B689847A64207D02000CA
:10185000E8E7864203DD311A3B6828189847AD193E
:10186000013D2B780D3B5A4253413B7580BCB84635
:10187000F0BD091A3B6828189847E2E70368110091
:1018800028009847F2E7C04600250010F0B5DE4674
:1018900057464E464546E0B585B017001C00060089
:1018A0000D00FFF75DFB0023314A12184B418021E8
:1018B00009068B4202D301222E4B52422E490800C8
:1018C0008A4600F081FD01906B1C03D1300000F0CE
:1018D000F7FB0500002C26D0284B9846284B1C68A7
:1018E000002C15D0002F21D1264F02E02469002CB6
:1018F0000ED02368002BF9D03B68002B01D09C420E
:10190000F4D120002A003100C0472469002CF0D116
:10191000019B002B28D1280005B0F0BCBB46B24685
:10192000A946A046F0BD184B9846D7E7154B9946F7
:1019300002ABDF1D0A239B4602E02469002CE7D09E
:101940002368002BF9D04B461B68002B01D0A34223
:10195000F3D12A0031002000C0475B460122390044
:1019600020003B70C047E8E7504600F01DFDD2E77D
:1019700040420F00FFFFFF7F18070020F9170010FB
:101980003C0C0020440C0020E9170010F0B5CE46B6
:10199000474680B583B06B460600DD1D2870FFF713
:1019A000DFFA00231A4A12184B41802109068B42A4
:1019B00002D30122174B524217490800884600F013
:1019C00003FD164B81461C68002C14D0144F02E016
:1019D0002469002C0FD02368002BF9D03B68002B22
:1019E00001D09C42F4D1200001222900FFF704FF1E
:1019F0002469002CEFD14B46002B05D1300003B0F9
:101A0000C0BCB946B046F0BD404600F0CDFCF5E79D
:101A100040420F00FFFFFF7F180700203C0C002012
:101A2000440C002070B5040000F04AFB01230100C3
:101A3000050001222000FFF729FF084B1C68002C3D
:101A400006D06368002B05D098472469002CF8D194
:101A5000280070BD2469002CF3D1F9E73C0C00206C
:101A600010B5034B0100186800F00EF810BDC04619
:101A7000F005002010B5034B0100186800F0A8FB2A
:101A800010BDC046F0050020F0B54E464546DE4686
:101A90005746E0B50D000B35060085B0162D27D84A
:101AA000102900D9DAE000F0D1FA1025182302211C
:101AB000C74FFB181A005C68083A944200D146E10F
:101AC00003226368A1689343E268CA6091600121C0
:101AD000E3185A6830000A435A6000F0BFFA200049
:101AE000083005B0F0BCBB46B246A946A046F0BDE2
:101AF00007239D4300D5B1E0A94200D9AEE000F034
:101B0000A5FAFC235B009D4200D29AE1690A00D14C
:101B1000A8E0042900D94FE138239846A909884450
:101B20003931CB00082252429446A94FFB189C44FD
:101B30006346DC68A44514D0032399460B00614634
:101B40009C4607E0E068002A00DBFAE0814200D111
:101B5000FBE004004A46636893435A1B0F2AF1DDF9
:101B600041463A003C690832944200D1D8E0032053
:101B700063688343581B0F2800DD66E13A617A6190
:101B80000028A4DA7A68904680229200934200D31B
:101B9000E3E0DA08580901238340404618438046B1
:101BA000D300DB199A687860E360A2609C60D4601F
:101BB00001208B10984040455CD8434603420AD12F
:101BC00003239943434640000431034203D14000BC
:101BD00004310342FBD00323B3469C460E00B846B3
:101BE0000190F00040440100B246CB680BE064462F
:101BF0005A681F00A243DB68541B0F2C00DDF3E082
:101C0000002C00DB0DE19942F1D101239946CA4431
:101C1000534608319B07E8D1032205E003680838E2
:101C2000013E834200D00AE23242F7D14346019A94
:101C30005B68934342465360019A520001929A4274
:101C400016D8002A06D113E004229146019ACA440C
:101C5000520001921342F7D05646C2E70C230020EF
:101C600033603EE780233F22402190469B0059E7A6
:101C70005E4647460322BC68636893439946AB427D
:101C800002D35B1B0F2B4EDC23004B440293514BC2
:101C900008201B6810335B19019300F003FA4E49CA
:101CA00003900B688B46013306D08446019B424269
:101CB000013B6344134001933000019900F0D6F9D1
:101CC00003008046013300D1DDE0029B834200D94E
:101CD000D7E0019A414B944619689A466144039AA9
:101CE0001960029B0800013A434500D0EAE04346F0
:101CF000134200D0E6E0BB68984663464B441A00A6
:101D000001231A4343465A60354B1868884200D273
:101D10001960344B1868884200D219604446B4E018
:101D20007B68984644E70122290013431143651953
:101D300061603000BD606B6000F090F920000830F9
:101D4000CFE6A268D0608260C1E6614609E7DC6840
:101D50000231A34200D104E7B2E65A0A042A00D8AD
:101D600088E0142A00D90FE110005B3082465C3213
:101D7000D200082040428446BA18944462469268D1
:101D80000B308146944500D1E5E00800A24661464B
:101D9000844602E09268914204D04C465068A043C9
:101DA0009842F7D8D368614654469C466346A26081
:101DB000E3609C60D460FBE6142973D9542900D9F0
:101DC000EBE06E239846290B88446F31CB00A9E6DF
:101DD000E8010020D40A0020E0010020A40A00202D
:101DE000CC0A0020D00A0020BA4601205146844681
:101DF0004919054350464560856847466046EB6093
:101E00005E469D60534639617961204308374860DA
:101E1000CF6030008F609C5000F020F950460830B1
:101E20005FE6BA4601205E46524451680143516064
:101E3000BA683000D3609A6000F010F938000830BA
:101E40004FE62B00E908083332E661198846012184
:101E50008C460D434146656039617961CA608A608C
:101E6000624602434A60E050300000F0F7F820007C
:101E7000083036E69A091000393238308246D200EE
:101E800077E7BC4214D0BC68626803239A43531BB3
:101E9000AA4202D30F2B00DD45E7300000F0DEF848
:101EA00000201EE65B23984688445C31CB0039E66F
:101EB000644B9A461868019B9C46534660441860E0
:101EC000039B5A1E5B461B68013371D0434602993F
:101ED0005B1A51461B180B600723414640461940C8
:101EE0000291184240D00398013384465B1A01994D
:101EF000984441440191634411405B1A1A40110017
:101F00003000934600F0B2F8431C78D04346C01A24
:101F100003005B440193534619680120594419603A
:101F20004346019ABB6002435A60BC4200D1EBE6D3
:101F30004B460F2B40D907220C3B9343626802406B
:101F400005201A436260E218506090600F2B4BD856
:101F500043465A68D8E653469810012383404046CA
:101F600018438046786021E7019B0399434413405E
:101F7000CB1A1A4011003000934600F077F8431C4A
:101F8000C4D100239B46C6E7542A18D81A0B100068
:101F90006F326E308246D200EBE6AA235B00994294
:101FA00018D8DD3B9846E90B88447831CB00B9E579
:101FB0005B46414619608FE7434658606DE7AA20AB
:101FC0004000824226D8DA0B100078327730824601
:101FD000D200CEE61C4B994226D87C239846A90C09
:101FE00088447D31CB009DE521003000083100F0B0
:101FF000EFF853461968BB6898465A6884E6019A18
:10200000029B94464246083B63449B1A019300237B
:102010009B4680E70C4882420CD89A0C10007D3217
:102020007C308246D200A4E6FE237E227F219046A9
:102030009B0077E5FE227E209200824699E6434689
:102040005B68F9E5A40A00205405000010B50248B9
:1020500000F024F810BDC046A00A002010B50248C8
:1020600000F01EF810BDC046A00A0020002370B585
:10207000064C050008002360FFF782FB431C00D0DC
:1020800070BD2368002BFBD02B60F9E7400C0020CB
:10209000014B18687047C046F00500207047C046E5
:1020A0007047C046802310B55B01082801D1180095
:1020B00010BDFFF7EDFF16230360173BF7E7C0469F
:1020C00010B583070AD00300032102E001330B425D
:1020D00005D01A78002AF9D1181A10BD0300196822
:1020E0000C4A0D4C8A188A4322420FD15968094A7A
:1020F00004338A188A43224208D15968054A0433B6
:102100008A188A432242F1D000E001331A78002A6B
:10211000FBD1E1E7FFFEFEFE80808080F0B5C64681
:10212000060000B508200D00FFF7BCFF04003000DA
:10213000FFF78CFF234B210098469B685F680323C1
:102140009F4338001138401B0019FFF7E3F9451E83
:102150006543AC4208DC00213000FFF787FF4346AF
:102160009B68DB19984206D03000FFF777FF00200C
:1021700080BCB846F0BD30006942FFF777FF013000
:102180000ED0012243467F1B9B6817430E4A5F60B7
:10219000136830005B1B1360FFF760FF0120E7E767
:1021A00000213000FFF762FF43469A68831A0F2B25
:1021B000DADD064C04492468001B086001210B434A
:1021C0005360D1E7E8010020A40A0020E0010020CC
:1021D000F8B5CE46474605000C0080B5002957D01B
:1021E000FFF734FF012321009C4608394868624606
:1021F000030003249343CF187A68654EA243B46862
:10220000BC4200D170E0BC18A14664467A6004422A
:1022100021D10868091A1B1888688046484640681A
:102220002040340008348146A04551D04046CC6857
:10223000C460A0604846002811D19B185548BA6870
:10224000824200D17FE0F868D060826001221A43A8
:102250004A60CB5007E0484640682042EDD06246D5
:102260001A434A603B6080229200934214D2DA08FB
:10227000580901238340706803437360D3009B199E
:102280009A68CB608A609960D1602800FFF7E6FE0B
:10229000C0BCB946B046F8BD5C0A042C3DD89C09C8
:1022A000200039343830E40034192268083C032710
:1022B000944203D140E09268944203D05068B843FE
:1022C0009842F8D8D468CC608A60A160D160DCE71D
:1022D000002858D1B868D218FB68C360986063467C
:1022E00013434B608A50D0E79A186346034206D1E5
:1022F0000B68C91A8868D218CB68C360986001233C
:1023000013434B60244BB1601B689342BDD8234BF1
:1023100028001968FFF702FFB7E7142C07D9542CDF
:102320001AD81C0B20006F346E30E400BCE720008C
:102330005C345B30E400B7E70123801083407068B1
:1023400003437360BFE7D1609160CA608A60012275
:102350001A434A60CB5098E7AA225200944205D80B
:10236000DC0B200078347730E4009DE70C4A94427F
:1023700005D89C0C20007D347C30E40094E7FE24DA
:102380007E20A40090E762461A434A603B607CE7E7
:10239000E8010020F0010020E4010020D40A002020
:1023A00054050000F8B5C04601B40248844601BC9B
:1023B000604700BF5D01002001B40248844601BCB3
:1023C000604700BF8501002001B40248844601BC7B
:1023D000604700BFC1000020F5120010211300105B
:1023E000051500102117001061150010651600106A
:1023F0002D1400103D1300105D1300107113001018
:10240000B907001079130010350B0010BD12001031
:082410000D070010B1020010DD
:102418000A2A2A2A2050414E4943202A2A2A0A00F9
:102428000A000000486172647761726520616C611E
:10243800726D20256420616C726561647920636C1B
:1024480061696D656400000048617264206173739E
:10245800657274004F7574206F66206D656D6F72BC
:102468007900000052656C6561736500626F6F7476
:10247800325F77323571303830000000322E322E1C
:10248800300000007069636F000000005A38304463
:102498006576426F61726400417072203237203273
:1024A8003032360006005250D3F075426C240010CA
:1024B80006005250E182887F7424001006005250B2
:1024C800ABB360538424001006005250BBFF3CB6E7
:1024D8008C24001006005250861C0302942400101D
:1024E800060052505422A29DA0240010050052500C
:0C24F800DE65F468802B00100D0A000067
:10250400AC240010B8240010C4240010D0240010FF
:0C251400DC240010E8240010F424001067
:10252000F0B5C646150000B504001E000268EFF3C2
:10253000108172B61368002BFCD0BFF35F8F0423A9
:10254000E356002B2DDB2268BFF35F8F0020106065
:1025500081F31088D0221206127852B290469A4225
:1025600003D1002080BCB846F0BD00270BE02368F3
:10257000BFF35F8F1F6081F310882800310000F0E7
:1025800033F80028EDD12268EFF3108172B613689A
:10259000002BFCD0BFF35F8F23797F2BE7D9434615
:1025A00002E0D0231B061B6823712368BFF35F8FF3
:1025B00000221A6081F310880120D3E70268EFF34C
:1025C000108172B61368002BFCD0BFF35F8FFF231E
:1025D00003710368BFF35F8F00221A6081F31088D4
:1025E00040BF70477047C04601B40248844601BCF2
:1025F000604700BF450E0010100000000000000002
:1026000000000000000000000000000000000000CA
:102610002007002000000000000000000000000073
:10262000503300004C33000054330000523300009C
:102630004D5300004D43000053340000433400006C
:10264000FFFFFFFF0000020000000000000000008C
:10265000E8010020E8010020F0010020F001002046
:10266000F8010020F80100200002002000020020F4
:1026700008020020080200201002002010020020A2
:102680001802002018020020200200202002002052
:102690002802002028020020300200203002002002
:1026A00038020020380200204002002040020020B2
:1026B0004802002048020020500200205002002062
:1026C0005802002058020020600200206002002012
:1026D00068020020680200207002002070020020C2
:1026E0007802002078020020800200208002002072
:1026F0008802002088020020900200209002002022
:102700009802002098020020A0020020A0020020D1
:10271000A8020020A8020020B0020020B002002081
:10272000B8020020B8020020C0020020C002002031
:10273000C8020020C8020020D0020020D0020020E1
:10274000D8020020D8020020E0020020E002002091
:10275000E8020020E8020020F0020020F002002041
:10276000F8020020F80200200003002000030020EF
:10277000080300200803002010030020100300209D
:10278000180300201803002020030020200300204D
:1027900028030020280300203003002030030020FD
:1027A00038030020380300204003002040030020AD
:1027B000480300204803002050030020500300205D
:1027C000580300205803002060030020600300200D
:1027D00068030020680300207003002070030020BD
:1027E000780300207803002080030020800300206D
:1027F000880300208803002090030020900300201D
:102800009803002098030020A0030020A0030020CC
:10281000A8030020A8030020B0030020B00300207C
:10282000B8030020B8030020C0030020C00300202C
:10283000C8030020C8030020D0030020D0030020DC
:10284000D8030020D8030020E0030020E00300208C
:10285000E8030020E8030020F0030020F00300203C
:10286000F8030020F80300200004002000040020EA
:102870000804002008040020100400201004002098
:102880001804002018040020200400202004002048
:1028900028040020280400203004002030040020F8
:1028A00038040020380400204004002040040020A8
:1028B0004804002048040020500400205004002058
:1028C0005804002058040020600400206004002008
:1028D00068040020680400207004002070040020B8
:1028E0007804002078040020800400208004002068
:1028F0008804002088040020900400209004002018
:102900009804002098040020A0040020A0040020C7
:10291000A8040020A8040020B0040020B004002077
:10292000B8040020B8040020C0040020C004002027
:10293000C8040020C8040020D0040020D0040020D7
:10294000D8040020D8040020E0040020E004002087
:10295000E8040020E8040020F0040020F004002037
:10296000F8040020F80400200005002000050020E5
:102970000805002008050020100500201005002093
:102980001805002018050020200500202005002043
:1029900028050020280500203005002030050020F3
:1029A00038050020380500204005002040050020A3
:1029B0004805002048050020500500205005002053
:1029C0005805002058050020600500206005002003
:1029D00068050020680500207005002070050020B3
:1029E0007805002078050020800500208005002063
:1029F0008805002088050020900500209005002013
:102A00009805002098050020A0050020A0050020C2
:102A1000A8050020A8050020B0050020B005002072
:102A2000B8050020B8050020C0050020C005002022
:102A3000C8050020C8050020D0050020D0050020D2
:102A4000D8050020D8050020E0050020E005002082
:102A5000F80500200000000000000000D80A002057
:102A6000400B0020A80B0020000000000000000028
:102A70000000000000000000000000000000000056
:102A80000000000000000000000000000000000046
:102A90000000000000000000000000000000000036
:102AA0000000000000000000000000000000000026
:102AB0000000000000000000000000000000000016
:102AC0000000000000000000000000000000000006
:102AD00000000000000000000000000000000000F6
:102AE00000000000000000000000000000000000E6
:102AF00001000000000000000E33CDAB34126DE683
:102B0000ECDE05000B0000000000000000000000EB
:102B100000000000000000000000000000000000B5
:102B200000000000000000000000000000000000A5
:102B30000000000000000000000000000000000095
:102B40000000000000000000000000000000000085
:102B50000000000000000000000000000000000075
:102B60000000000000000000000000000000000065
:102B70000000000000000000000000000000000055
:04000005100001E9FD
:00000001FF
