:020000041000EA
:1000000000B5324B212058609868022188439860DF
:10001000D860186158612E4B002199600221596106
:100020000121F02299502B49196001219960352056
:1000300000F044F80222904214D00621196600F024
:1000400034F8196E01211966002018661A6600F04E
:100050002CF8196E196E196E052000F02FF8012189
:100060000842F9D1002199601B49196000215960AB
:100070001A491B48016001219960EB211966A021F2
:10008000196600F012F800219960164914480160C1
:100090000121996001BC002800D000471248134993
:1000A000086003C880F30888084703B5996A0420EC
:1000B0000142FBD001200142F8D103BD02B5186610
:1000C0001866FFF7F2FF186E186E02BD00000240BE
:1000D000000000180000070000035F00212200005C
:1000E000F4000018222000A00001001008ED00E03C
:1000F00000000000000000000000000074B24E7A12
:1001000000200420F7010010CB010010CD010010E9
:10011000C9010010C9010010C9010010C901001077
:10012000C9010010C9010010C9010010CF01001061
:10013000C9010010C9010010D1010010D301001045
:10014000C1010010C1010010C1010010C101001067
:10015000C1010010C1010010C1010010C101001057
:10016000C1010010C1010010C1010010C101001047
:10017000C1010010C1010010C1010010C101001037
:10018000C1010010C1010010C1010010C101001027
:10019000C1010010C1010010C1010010C101001017
:1001A000C1010010C1010010C1010010C101001007
:1001B000C1010010C1010010C1010010C1010010F7
:1001C000EFF30580103800BE00BE00BE00BE00BECA
:1001D00000BE00BEF2EB88715091001070910010CB
:1001E0003802001090A31AE71E481F49086006C88D
:1001F00081F3088810471D480068002801D019487D
:10020000F3E70DA40ECC002902D000F012F8F9E7B4
:100210001749184A002000E001C19142FCD116495B
:100220008847164988471649884700BEFDE701C937
:1002300001C29A42FBD3704770910010C0000020A9
:10024000A817002058A80010000004200000042077
:1002500058A8001000100420001004200000000026
:10026000704700000000000008ED00E0000000D032
:10027000A81700201C280020C54D0010D502001032
:10028000BD4D0010F8B5C04606480749091A8B1045
:10029000C90FC91810B5491003D0044B002B00D06A
:1002A000984710BDA8170020A817002000000000E4
:1002B000054B10B5002B03D00449054800E000BFF2
:1002C000FFF7E2FF10BDC04600000000B827002085
:1002D0009C87001010B500F047FD00F0F3FDFCE72F
:1002E000D0221206F8B5536804001B0500D53EE184
:1002F000E31300D0A0E0D02302221B069A61D02392
:1003000008221B065A619A61620400D5A0E002220D
:100310009A61D02308221B065A619A61A20400D573
:10032000A0E002229A61D02308221B065A619A613A
:10033000E20400D5A0E002229A61D02308221B0625
:100340005A619A61220500D5A0E002229A61D02369
:1003500008221B065A619A61620500D5A0E00222BC
:100360009A61D02308221B065A619A61A20500D522
:10037000A0E002229A61D02308221B065A619A61EA
:10038000E20500D5A0E002229A61D02308221B06D4
:100390005A619A61220600D5A0E002229A61D02318
:1003A00008221B065A619A61620600D5A0E002226B
:1003B0009A61D02308221B065A619A61A20600D5D1
:1003C000A0E002229A61D02308221B065A619A619A
:1003D000E20600D5A0E002229A61D02308221B0683
:1003E0005A619A61220700D5A0E002229A61D023C7
:1003F00008221B065A619A61620700D5A0E002221A
:100400009A61D02308221B065A619A61A20700D57F
:10041000A0E002229A61D02308221B065A619A6149
:10042000E40700D4A0E002225A61D0230822012070
:100430001B065A619A61F8BDD02302221B065A613D
:10044000D02308221B065A619A61620400D45EE739
:1004500002225A61D02308221B065A619A61A20423
:1004600000D45EE702225A61D02308221B065A619B
:100470009A61E20400D45EE702225A61D023082286
:100480001B065A619A61220500D45EE702225A6176
:10049000D02308221B065A619A61620500D45EE7E8
:1004A00002225A61D02308221B065A619A61A205D2
:1004B00000D45EE702225A61D02308221B065A614B
:1004C0009A61E20500D45EE702225A61D023082235
:1004D0001B065A619A61220600D45EE702225A6125
:1004E000D02308221B065A619A61620600D45EE797
:1004F00002225A61D02308221B065A619A61A20681
:1005000000D45EE702225A61D02308221B065A61FA
:100510009A61E20600D45EE702225A61D0230822E3
:100520001B065A619A61220700D45EE702225A61D3
:10053000D02308221B065A619A61620700D45EE745
:1005400002225A61D02308221B065A619A61A2072F
:1005500000D45EE702225A61D02308221B065A61AA
:100560009A61E40700D55EE702229A615DE7802385
:10057000DB00936101F0E8FD00292BD0FA22002373
:10058000920002F0B7F90500D026FA273606BF0020
:1005900073681B0500D4ABE601F0D6FD002911D02D
:1005A000FA220023920002F0A5F9401BB842EFD9CD
:1005B0000B4804F0CBFDD02380221B06D200002084
:1005C0005A6138E7FA21890002F056F9401BB84217
:1005D000DED9EDE7FA21890002F04EF90500D3E7F4
:1005E000A0870010D022F0B5C6461206536800B5A9
:1005F0001B0546D4D0241023240601200021A3612A
:1006000001F01CFC802360686361A361676863611B
:10061000A361626863619446A36166686361A361D4
:1006200065686361A36161686361A3616268636116
:10063000A3619046400662687F06C00FFF0FC001AD
:10064000BF015206D20F3843104362465206D20F02
:100650005201104342467606F60F6D063601ED0F45
:1006600049063043ED00C90F520628438900D20FD6
:100670000843520010436361C0B2A36180BCB84616
:10068000F0BD8023DB00936101F05EFD00292AD0DC
:10069000FA220023920002F02DF90400D025FA2658
:1006A0002D06B6006B681B05A4D501F04DFD002991
:1006B00011D0FA220023920002F01CF9001BB04274
:1006C000F0D90C4804F042FDD02380221B06D20052
:1006D00000205A61D2E7FA21890002F0CDF8001B10
:1006E000B042DFD9EDE7FA21890002F0C5F8040035
:1006F000D4E7C046A0870010D0221206F8B5536890
:1007000004001B0500D593E0D02510232D066B6156
:100710000120002101F092FBE31147D10433AB61CA
:10072000D02308221B065A619A61620647D404222C
:100730009A61D02308221B065A619A61A20647D407
:1007400004229A61D02308221B065A619A61E206AC
:1007500047D404229A61D02308221B065A619A6169
:10076000220747D404229A61D02308221B065A612B
:100770009A61620747D404229A61D02308221B069B
:100780005A619A61A20747D404229A61D0230822B1
:100790001B065A619A61E40747D504225A61D023A7
:1007A000082201201B065A619A61F8BD04236B617F
:1007B000D02308221B065A619A616206B7D504222B
:1007C0005A61D02308221B065A619A61A206B7D546
:1007D00004225A61D02308221B065A619A61E2065C
:1007E000B7D504225A61D02308221B065A619A61A8
:1007F0002207B7D504225A61D02308221B065A616A
:100800009A616207B7D504225A61D02308221B06D9
:100810005A619A61A207B7D504225A61D0230822EF
:100820001B065A619A61E407B7D404229A61B6E7BD
:100830008023DB00936101F087FC00292BD0FA2292
:100840000023920002F056F80500D026FA2736065B
:10085000BF0073681B0500D456E701F075FC002942
:1008600011D0FA220023920002F044F8401BB84253
:10087000EFD90C4804F06AFCD02380221B06D2007A
:1008800000205A6191E7FA21890001F0F5FF401B31
:10089000B842DED9EDE7FA21890001F0EDFF05004D
:1008A000D3E7C046A0870010F8B58020DE46574643
:1008B00045464E460002E0B502F066FED027802590
:1008C0008346002400F040FB3F062D015B461B5D84
:1008D0009A467B682B423FD08023DB00BB6101F04E
:1008E00033FC002900D0EAE1FA21890001F0C4FFBD
:1008F0008146D023FA261B069846B60043465B681D
:100900002B4229D001F020FC002900D1DEE1FA229F
:100910000023920001F0EEFF4B46C01AB042EDD921
:10092000A34804F013FCD02380221B06D2005A6196
:10093000584602F04FFED024802320252406DB00F9
:1009400063616420A56101F0EFFA6561F0BCBB460C
:10095000B246A946A046F8BD0223BB6106337B61BF
:10096000BB61A31300D1C6E102237B61D02308221F
:100970001B065A619A61A20400D51BE102229A610A
:10098000D02308221B065A619A61E20400D51BE1BC
:1009900002229A61D02308221B065A619A6122051D
:1009A00000D51BE102229A61D02308221B065A615E
:1009B0009A61620500D51BE102229A61D0230822C8
:1009C0001B065A619A61A20500D51BE102229A61B9
:1009D000D02308221B065A619A61E20500D51BE16B
:1009E00002229A61D02308221B065A619A612206CC
:1009F00000D51BE102229A61D02308221B065A610E
:100A00009A61620600D51BE102229A61D023082276
:100A10001B065A619A61A20600D51BE102229A6167
:100A2000D02308221B065A619A61E20600D51BE119
:100A300002229A61D02308221B065A619A6122077A
:100A400000D51BE102229A61D02308221B065A61BD
:100A50009A61620700D51BE102229A61D023082225
:100A60001B065A619A61A20700D51BE102229A6116
:100A7000D02308221B065A619A61E20700D51BE1C8
:100A800002229A61D02308221B065A619A615A6891
:100A9000120528D58022D2009A6101F055FB002969
:100AA00000D133E1FA220023920001F023FF060077
:100AB000D0231B06984643465B682B4213D001F0B7
:100AC00043FB002900D10BE1FA220023920001F040
:100AD00011FFFA23801B9B00984200D920E7434670
:100AE0005B682B42EBD1D0261023360673610120C0
:100AF000002101F0A3F95346DB1100D131E10423B9
:100B00007361D02308221B065A619A61524652062D
:100B100000D523E104229A61D02308221B065A61E2
:100B20009A615246920600D515E104229A61D023BB
:100B300008221B065A619A615246D20600D507E187
:100B400004229A61D02308221B065A619A615246F8
:100B5000120700D5F9E004229A61D02308221B066F
:100B60005A619A615246520700D5D5E004229A6133
:100B7000D02308221B065A619A615246920700D57B
:100B8000D5E004229A61D023082251461B065A61FF
:100B90009A61C90700D5D5E0042199615A619A612B
:100BA000802301341B029C4200D08FE6C0E6C04681
:100BB000A087001002225A61D02308221B065A6126
:100BC0009A61E20400D4E3E602225A61D0230822AB
:100BD0001B065A619A61220500D4E3E602225A619B
:100BE000D02308221B065A619A61620500D4E3E60D
:100BF00002225A61D02308221B065A619A61A2057B
:100C000000D4E3E602225A61D02308221B065A616F
:100C10009A61E20500D4E3E602225A61D023082259
:100C20001B065A619A61220600D4E3E602225A6149
:100C3000D02308221B065A619A61620600D4E3E6BB
:100C400002225A61D02308221B065A619A61A20629
:100C500000D4E3E602225A61D02308221B065A611F
:100C60009A61E20600D4E3E602225A61D023082208
:100C70001B065A619A61220700D4E3E602225A61F8
:100C8000D02308221B065A619A61620700D4E3E66A
:100C900002225A61D02308221B065A619A61A207D8
:100CA00000D4E3E602225A61D02308221B065A61CF
:100CB0009A61E20700D4E3E602225A61E2E6FA22F0
:100CC0000023920001F016FE814612E6FA21890007
:100CD00001F0D2FD4B46C01AB04200D80EE61FE626
:100CE000FA21890001F0C8FDFA23801B9B0098427D
:100CF00000D8E0E614E60223BB61D02308221B06DD
:100D00005A619A61A20400D554E737E6FA218900B6
:100D100001F0B2FD0600CBE604225A61D02308227E
:100D20001B065A619A615246920700D429E70422B1
:100D30005A61D023082251461B065A619A61C9079D
:100D400000D429E70421596128E704225A6104E705
:100D500004225A61F6E604225A61E8E604225A6146
:100D6000DAE60423B361CCE6F8B5D02401262406E4
:100D7000002000F061FA0120A66200F05DFA022373
:100D80000220636200F058FA0423082710256362EA
:100D9000032000F051FA0420676200F04DFA0520AC
:100DA000656200F049FA20230620636200F044FAED
:100DB00040230720A36200F03FFA80230A206362E9
:100DC00000F03AFA8022D2000B20626200F034FA7E
:100DD000802380221B01A3622023D2006261636111
:100DE000A761A56100F0D0F804F0C2FC2A4D0028EC
:100DF00009D1636828701E420ED0FFF755FD2B788D
:100E0000002B2DD1F8BD2B78002B2DD063681E420E
:100E10001ED1224804F09AF980200121000202F03C
:100E2000C5FB040000F09AF82000D02420262406F8
:100E300002F0D0FB6420A66101F076F82B786661A1
:100E4000002BDAD0164804F081F92B78002BD4D08F
:100E5000144804F07BF9FFF727FD2B78002BD1D045
:100E6000114804F073F9CDE7104804F06FF9104809
:100E700004F06CF90F4804F069F90F4804F066F9C2
:100E80000E4804F063F90E4804F060F963682E70B0
:100E90001E42DDD1BDE7C0461A280020948800100C
:100EA000B8880010FC880010D8880010B88700109F
:100EB000DC8700100088001024880010488800108B
:100EC0006C88001030B591B004F052FC164D041E31
:100ED00002D02B78002B13D0402168462C7000F0F4
:100EE00087F8002808D06946104804F0B1F9684630
:100EF00000F0C8F811B030BD0A2001F015F8F9E78C
:100F00000B4804F023F90B4804F020F90A4804F0D8
:100F10001DF90A4804F01AF9094804F017F90948BC
:100F200004F014F9D8E7C0461A28002020890010E0
:100F3000B8870010DC87001000880010248800109B
:100F4000488800106C880010802210B502491202F7
:100F500002F052FB10BDC04600803F1070B5050086
:100F6000EFF3108472B68021FE200902800307F09F
:100F7000BBFB8022FE2029001202800307F09CFBAD
:100F800084F3108870BDC04670B504F045F801F0D8
:100F9000DBF8002926D0FA220023920001F0AAFCF7
:100FA0000400FA25AD000AE0FA220023920001F0C5
:100FB000A1FC001BA84211D80A2000F0B5FF04F0E4
:100FC000D7FB00280AD101F0BFF80029ECD1FA21A3
:100FD000890001F051FC001BA842EDD9642000F00B
:100FE000A3FF70BDFA21890001F046FC0400D8E798
:100FF000F8B50600002901D10020F8BD01293AD03A
:1010000000244F1E002C38D1002004F009F8831C66
:10101000F2D00A2828D00D2826D00300203B5E2BD2
:101020001ED8651C3055BD4213D2154803F0F8FF99
:10103000831C01D02C00ECE7114803F0F1FF831C66
:10104000F8D10F4803F0ECFF2C00831CE1D1AF4234
:10105000F2D8B446AC446646012000233370CCE796
:10106000A742CFD82500F4E7B446A444631E9C41B0
:101070006646E0B2F1E70020EFE72500E1E7C04671
:10108000A086010070B592B001003F2202A807F0CF
:10109000A1F869463F2300220831CA5402A85949E1
:1010A00007F0C8F8041E02D00378002B01D112B05B
:1010B00070BD5549002007F0BDF8544906002000D6
:1010C00007F01EF900283ED02000514907F018F91A
:1010D000002833D130004B4907F0ACF8041E00D192
:1010E0007EE0102201A907F069F8019B06009C42EE
:1010F00060D080235B0298425CD20020414907F017
:1011000099F8041E68D0102201A907F057F8019B36
:1011100005009C4268D0FF2866D8B4B22000FFF7D3
:10112000DFF8E8B2FFF7E8FA2000FFF7D9F8FFF799
:1011300059FA0100374804F08BF8B8E72100364827
:1011400004F086F8B3E730002E4907F073F8041E68
:1011500046D0102201A907F031F8019B9C4229D00A
:1011600080267602B04225D2264984B2002007F0BC
:1011700061F8051E23D0102201A907F01FF8019B7A
:101180009D4236D0B04234D285B2AC4236D8234EDE
:1011900004E0202003F090FF0134A4B22000FFF708
:1011A0009FF8FFF71FFA0100300004F051F8A54244
:1011B000EFD10DE021001A4804F04AF877E720004B
:1011C000FFF78EF8FFF70EFA0100144804F040F81C
:1011D0000A2003F071FF6AE7124803F0B7FF66E7E1
:1011E000114803F0B3FF62E72100104804F030F823
:1011F0005DE729000E4804F02BF858E70D4803F08E
:10120000A5FF54E728890010248A00102C890010BB
:10121000C4890010E4890010088A0010BC890010FD
:101220004C890010CC89001034890010EC89001022
:101230006C890010908900100123D022834012068F
:1012400093629361084A83009A18116840225140C2
:1012500080320A400549C0005B181A60044BC01870
:10126000052343607047C04604C0014004D00140DC
:10127000004001408023DB051868000F7047C0461E
:101280000FB400B5084883B003F060FF049B002B47
:1012900007D005A91800019103F05CFD034803F095
:1012A00055FF012003F06EFD288A0010E889001028
:1012B00070B58C461600EFF3108472B60F490B68B8
:1012C000002BFCD0BFF35F8F6346DB08C5180722F5
:1012D000C05C63461A40012393401A000240034257
:1012E00007D118432870BFF35F8F0A6084F310881A
:1012F00070BD61463000FFF7C3FFC0462C0100D02F
:10130000F8B5CE4647468C4680B51C00EFF31088F2
:1013100072B61C490B68002BFCD0BFF35F8FA24252
:1013200021D80723994602E00132944218D3494656
:10133000012611408E40D308C718C35C1E42F3D16A
:10134000100033433B70BFF35F8F00220D4B1A60D8
:1013500088F3108800280EDBC0BCB946B046F8BD43
:1013600001204042EFE7BFF35F8F00230B6088F35B
:101370001088012040426346002BEDD00898FFF70B
:101380007FFFC0462C0100D0044A1078431CDBB21A
:10139000172B00D9102313707047C046C8100020C7
:1013A00000B5054B83B00100009318221F230348AA
:1013B000FFF7A6FF03B000BD388A001040230020CD
:1013C0000021044B044ABFF35F8F02C39342FAD15A
:1013D0007047C046000100D0800100D0084B094A88
:1013E0001360094A1360094A1360094A1360094AE5
:1013F0001360094A1360094A1360094A1360704771
:101400008080808000E400E004E400E008E400E084
:101410000CE400E010E400E014E400E018E400E074
:101420001CE400E01F2318401E3B8340002905D028
:10143000C021044A4900535013607047802201497B
:101440008B50FAE700E100E001228240034B1B6869
:1014500013405A1E9341D8B27047C04600E100E0E5
:1014600001238340014A13607047C04600E200E058
:10147000054B10309B688000C358044A00209B1A1B
:101480002F229A424041704700ED00E0CC1000202E
:1014900070B50D00EFF3108672B60F4A1368002B7B
:1014A000FCD0BFF35F8F0D4B10309B6884001B593D
:1014B0000B4A934203D09D4201D001F089F8074BBB
:1014C0009B681D51BFF35F8FBFF35F8F0022024BFC
:1014D0001A6086F3108870BD240100D000ED00E092
:1014E000C1010010F0B5DE4657464E464546E0B510
:1014F000824683B08B461700EFF3108872B6604ABD
:101500001368002BFCD0BFF35F8F00255D4B5D5748
:101510009946002D00DA9AE04A466B005A4C5E1953
:10152000B6000193A31900939B791370574B9A68E7
:10153000534610339B00D15899460B1B2F2B32D9A1
:10154000534B994200D098E0019B0236ED18514B65
:10155000AD006353504BA619043B9B1B4F4A1B0520
:101560005B0D651913436B804D4B0121AB80FF234D
:10157000AB715B46AB60009BEF710B4319004A46B1
:10158000424B9B689950BFF35F8FBFF35F8F002280
:101590003B4B1A6088F3108803B0F0BCBB46B246E0
:1015A000A946A046F0BD01200A008243D379B44683
:1015B000BB422DD83B4BB51C190013001B1B5B41D4
:1015C0005943090D8C46334B6519A353324B00998F
:1015D000043B5B1B1B05314D5B0D2B4304364B80DD
:1015E000A619131F9B1B1B055B0D1D4363468B71C7
:1015F0005B468B602C4B8D80CF7113600143BEE73F
:101600005800C01880002018C679BE4225D90200B3
:101610000623D356002BF3DA9A46131D9C46234823
:101620006346009E9571043EF61A36051B4B760DF7
:101630001E43019B96805A1953469200A418A37129
:101640005B46194AA0802260E771A36097E700F02B
:10165000BFFF00254B465D575EE766469A46131D61
:101660009C469088043640050015A6196044801BEE
:1016700000050A4E400D3043D2E700F0A9FF63E7B2
:10168000240100D015280020CC10002000ED00E03F
:10169000C101001000A1FFFFFC10002000E0FFFFCF
:1016A00001BDFFFFAAAA00000148804701BD00005C
:1016B0000123034370B59C46EFF30581EFF31085DA
:1016C00072B6214A1368002BFCD0BFF35F8F1F4B0B
:1016D00004001F4AE41A64416243120D1D4C890044
:1016E000A66852B2765866451CD0062159569142DA
:1016F0001CD012215956914222D01E215956914296
:1017000020D02A2159560324914210D0124B197827
:101710001A708171BFF35F8F00220B4B1A6085F343
:10172000108870BDA3680D4C5C50EFE70024610089
:10173000091989005B18FF21997109499980E5E72A
:101740000124F4E70224F2E7240100D0CC100020A9
:10175000AAAA000000ED00E015280020C101001039
:1017600001BDFFFF00B5074B83B0010000930022CD
:1017700005230548FFF7C4FD002801DB1F23181AC5
:1017800003B000BD548A001019280020024BC9186C
:10179000890001607047C0464000003470B5114CAC
:1017A000114DAC420FD2FF262368002B0CD0FFF75F
:1017B000EBFD01002000FFF7E9FFA680BFF35F8F7C
:1017C0000834AC42F0D370BDFFF7DEFD010020000D
:1017D000FFF7DCFF2671BFF35F8F0834AC42E3D321
:1017E000F1E7C046A0170020A817002010B504009C
:1017F000FFF7CAFD01002000FFF7C8FFFF23237198
:10180000BFF35F8F10BDC04610B504000120FFF785
:10181000C7FD034BC01880002060BFF35F8F10BD71
:1018200040000034034BC91889000160BFF35F8F8B
:101830007047C046400000340A4B1968EFF310802F
:1018400072B60A68002AFCD0BFF35F8F1B68BFF333
:101850005F8F00221A6080F3108840BF00200021B3
:101860007047C046F4270020F0B5DE4657464E4686
:101870004546E0B585B0EFF3058303221A40B34B2C
:1018800091005F58012393409B4602925A46884636
:10189000AF4B1A60AF4B03935B46AF4843630823DB
:1018A000FE5E002E37DABB881BB2002B00DBA4E003
:1018B000BB79002B00D0E5E00823F95E002920DB8E
:1018C0004B007A695B18DB00D3189D68DC686B1CE1
:1018D00000D104E1A04801004144826A0B69AE1ABC
:1018E0009B1A9E4215D30123026A029883401A4232
:1018F0000FD0994800F020FC8C4202DCCCD185420C
:10190000CAD940BF05B0F0BCBB46B246A946A04606
:10191000F0BD0D61EDE77A69730091469B19DB001C
:1019200099444B469C68DD6800F006FC8D42BADCA9
:1019300000D1F6E0002D00DADBE04A464B46526962
:101940001B699246039A934200D1CCE04A46082193
:10195000785E5288000451461043984700900191E8
:101960000099019A0B00134300D1C2E013000A0052
:10197000002B00DBD9E020002900801A99414B465A
:101980009860D96000229B5E002B00DA8BE75D0037
:101990007C69EA18D200A21800949468D268A24622
:1019A0008A4200DD7FE702D1844200D97BE7082428
:1019B000A4463B81BC44009C00972F006546B4467A
:1019C0003E0006E05E00F218D200A2189768D268C6
:1019D000BA468A4207DC00D1B4E0F318DB00E51810
:1019E000E35E002BEEDA66464A46009F13802E80A7
:1019F000BB881BB2002B00DA5AE73A69EFF310817B
:101A000072B61368002BFCD0BFF35F8F0123BE8832
:101A10005B42BB8036B23B69BFF35F8F00221A6026
:101A200081F31088002E00DA42E73B0008333A00C9
:101A300099467D6973009B190824115FDB004846B5
:101A4000EB18002913DB9C680093A446DC6806E0D1
:101A5000A34240D00023F95E3800002906DB4F0086
:101A60007F18FF00EF19FB68A342F1DD009B0680A1
:101A700000201E5E1980002EDCDA1700BB79002BD7
:101A800000D119E70023BB710823F95E4B1C00D17C
:101A900037E73D000835AC467C6903E084464B1CC3
:101AA00000D109E74B005B18DB00E0180A00E15E9B
:101AB00043881BB2002BF1DA01256D42EE178560D9
:101AC000C66008257B5F9342E9D0634619803B8955
:101AD00003803A81E3E7BB686345BBD9C6E7631C73
:101AE00000D0F7E605E7534650461B6998470028A3
:101AF00023D14B461B883A693B81EFF3108372B6C2
:101B000011680029FCD0BFF35F8F49467A880A80AC
:101B10003A697E80BFF35F8F0021116083F31088E4
:101B2000C1E6844200D805E7BDE60B4800F004FB9F
:101B3000009B019CC018614121E753460CCB0092E9
:101B400001930DE7824500D847E74CE7D8270020EE
:101B50003C700540691800100040054070B52D4CE0
:101B60002569002D04D00A212B48FFF70FFE70BD18
:101B70002A4E0321294800F0D5FAE660FFF704FC5D
:101B8000274B0322C018D02322701B061B6801219B
:101B90006370244B8000A3600F23206102206380C8
:101BA00063694942A18019800231198647311D833A
:101BB000585218315A5275325C39995218320131E3
:101BC000995218320131995218320131995208351F
:101BD00018329D52023118329952183201319952FD
:101BE00018320131995218320131995218320131AB
:101BF00099521832013199520B4B0C49DC6001307B
:101C00003562FFF745FC01210320FFF70BFC084B71
:101C10001D60A8E714110020F427002000400540B3
:101C200040000034FFFF1000D82700206918001082
:101C3000386005400048704714110020F8B51F00B7
:101C400008AB1B7804001600002B07D100F07CFACB
:101C500032003B00121A8B41002B51DB2269EFF35B
:101C6000108C72B61368002BFCD0BFF35F8F022379
:101C7000E15E256900293ADB4B0060695B18DB00F7
:101C8000C218C35A6380BFF35F8F00232B608CF3AD
:101C90001088069B9660D7601361079B5361538839
:101CA00001335B045B0C181C002B1ED083B25080E8
:101CB000080418432569EFF3108672B62B68002BD1
:101CC000FCD0BFF35F8FA3881380A1802369BFF38B
:101CD0005F8F00221A6086F31088237801329A40C1
:101CE0000849E3685B181A60F8BD0120DEE7BFF31E
:101CF0005F8F00232B608CF3108801204042F3E7B4
:101D00000020F1E73C20000070B582B00092019302
:101D100001000269EFF3108472B61368002BFCD047
:101D2000BFF35F8F0223C85E0D6900283FDB4A695D
:101D3000430016001B18DB00D218F35A4B80BFF388
:101D40005F8F00232B6084F31088069B1361079B31
:101D50005361009B019C9360D460538801335B0402
:101D60005B0C1D1C002B20D0ACB203045580234318
:101D70000D69EFF3108C72B62C68002CFCD0BFF309
:101D80005F8F8C88148088800A69BFF35F8F002082
:101D900010608CF310880A7801309040CA680849B6
:101DA00052181060180002B070BD0125DCE7BFF3C7
:101DB0005F8F00232B6084F31088013BF2E7C0465D
:101DC0003C20000010B543890A1493421ADD5300E9
:101DD0009B184269DB00D3180469EFF3108C72B6CC
:101DE0002268002AFCD0BFF35F8F5A88090494B29E
:101DF000090C8A4208D00369BFF35F8F00221A6082
:101E00008CF31088002010BD094A22435A80012318
:101E100002698371BFF35F8F002111608CF310881A
:101E2000027804499340C268012052181360EAE71F
:101E30000080FFFF3C20000040787047F0B5C646A8
:101E400000B582B004000D0000F07EF924184D4169
:101E5000002D02DA01242F4D644206267642F71740
:101E600036196F41AF4214D811D000F06DF932002D
:101E70003B00121A8B41002B15DC002B46D02000B2
:101E8000290000F0A1F902B080BCB846F0BDA6421E
:101E9000EBD90026002700F057F932003B00121A58
:101EA0008B41002BE9DD00F04FF932003B00121AA4
:101EB0008B41002B0ADB00230193174B3200009368
:101EC00016483B00FFF720FF0130D8D0002339002F
:101ED000B0469C46124A1348536A994204D8966AFF
:101EE0004645CCD29942CAD10668EFF3108772B644
:101EF0003368002BFCD0BFF35F8F0368BFF35F8FA5
:101F000066461E6087F3108820BFE5E7002AB6D03A
:101F1000C9E7C046FFFFFF7F3918001014110020E9
:101F200000400540F4270020F0B5C64600B582B059
:101F3000040000F009F9FA2206000F002000002337
:101F40000021920001F0BCFA8019794104000D1EB5
:101F500002DA01242E4D644206267642F71736191E
:101F60006F41AF4214D811D000F0EEF832003B00C0
:101F7000121A8B41002B15DC002B46D020002900C3
:101F800000F022F902B080BCB846F0BDA642EBD901
:101F90000026002700F0D8F832003B00121A8B41CF
:101FA000002BE9DD00F0D0F832003B00121A8B4123
:101FB000002B0ADB00230193164B320000931648D6
:101FC0003B00FFF7A1FE0130D8D000233900B04616
:101FD0009C46124A1248536A994204D8966A46456A
:101FE000CCD29942CAD10668EFF3108772B6336833
:101FF000002BFCD0BFF35F8F0368BFF35F8F664693
:102000001E6087F3108820BFE5E7002AB6D0C9E735
:10201000FFFFFF7F39180010141100200040054019
:10202000F4270020F0B5CE46474680B504000D00E9
:1020300085B0EFF305868946002E10D03649002082
:102040004B6AAB4206D38A6A5B1B591E8B41A24284
:102050004041184305B0C0BCB946B046F0BD2F4F53
:10206000FB683A7898461800039200F065F8039AE6
:10207000131D42469B009B5822001B1A9C462B00B6
:10208000121A8B419E4210DC0DD020BF224A002044
:10209000536A4B45DED3926A5B1B591E8B41A242A9
:1020A00040411843D6E79445EFD900F04DF822009F
:1020B0002B00121A8B41002B1BDB00230193184BC2
:1020C0002200009338002B00FFF71EFE002810DDD1
:1020D000114B5A6A4A451CD39B6AA34217D301008D
:1020E0003800FFF76FFE0C4A0020536A4B45B1D30E
:1020F000D1E7094A0020536A4B45ABD30020926ACE
:102100005B1BA24240415A1E93411843A2E74A4535
:10211000E5D120BFE3E7C046004005401411002090
:102120003918001010B5024A0248FFF7C1F810BD77
:10213000708A0010442300200300416A0A00986A54
:10214000596A8A42FAD17047034B596A0A00986A61
:10215000596A9142FAD170470040054070B50500B8
:102160000E00184A536A1900946A536A8B42FAD1D6
:10217000200019002C00350024184D41AB4216D820
:1021800013D0104B2A005B6A9D4203D90D494B6A5C
:102190009342FCD3934207D10A4A02E0516A994222
:1021A00002D1916AA142F9D370BDA042E9D9054B91
:1021B0005B6A1C005A1CEFD0012201246442E5171F
:1021C0005242E3E700400540064A536A9942FCD870
:1021D00007D1044B02E05A6A914202D19A6A9042B6
:1021E000F9D8704700400540F8B5DE464E464546F2
:1021F0005746E0B505008B4618000A99914600F055
:102200003BFB0A9B6C001E026419304BA400E418CF
:10221000636880469E4200D966602F1FFBB29A46D3
:10222000012B2FD9C0238022294FAD009B01795962
:102230001201E3181A6000291BD14B4622685B018A
:102240005340E022134080225201A21813605346EB
:10225000012B2FD9802380229B01E31812011A60E1
:10226000434666607B51F0BCBB46B246A946A046D9
:10227000F8BD786900F000FB013043001B18033BF8
:10228000FDD2DAE75B46012BCCD1C02303229B01B0
:10229000E3181A60023AA3681A42FCD04A4623683F
:1022A00052015A40E023134080225201A218084FE5
:1022B0001360AD0058460323216841400B40136072
:1022C00001228240A3681A42FCD0C3E7008000408C
:1022D00048230020F0B5D6464F464646440098466F
:1022E0002418324BA400E41863688A469146C0B5AE
:1022F000FF2B02D880235B006360061FF6B2012E1D
:102300002FD9C02380222A4F85009B0179591201C1
:10231000E3181A6000291BD14B4622685B01534029
:10232000E022134080225201A2181360012E30D9FE
:10233000802380229B01E31812011A6080235B0036
:10234000636043467B51E0BCBA46B146A846F0BD47
:10235000786900F091FA013043001B18033BFDD26D
:10236000DAE75346012BCCD1C02303229B01E318AB
:102370001A60023AA3681A42FCD04A462368520106
:102380005A40E023134080225201A218084F1360E4
:10239000850050460323216841400B401360012211
:1023A0008240A3681A42FCD0C2E7C04600800040C9
:1023B00048230020014B8000C0587047482300206C
:1023C000F0B5C646040000B52348160098460D0037
:1023D00000F052FA0100300000F04EFA4346069A2F
:1023E0001B04120313439C4623680600002B22DBC8
:1023F0001A4B1B48E218531E9A4180235242120B7B
:102400009B011203D218174B1A60174B1A60130066
:1024100001688B43FBD12122144B2560E318A66091
:102420001A602268002AFCDA6246E26008221A601A
:1024300080BCB846F0BD3F2322681340AB42D7D1E1
:10244000A3681B051B0D8342D2D1EE22E368D202A2
:1024500013406345CCD1EBE7001BB7000040FDBF44
:1024600008C0004000E0004000F0004004300000E0
:1024700010B580241C4BE4051C6000281AD00123F1
:102480001A4C18431A4BDC611A4C44401C625962C6
:1024900098628021144BC9051960174817490860D4
:1024A000E021C9041960002A07D18022144B1206CA
:1024B0001A6010BD0E4BD861EBE753019B1A9B00CD
:1024C0009A18802312015B049A4209D213000D4925
:1024D0000B60074B5A608022094BD2051A60E8E76F
:1024E000094B1A00F3E7C04600B00540D3C007B05F
:1024F000008005402D3FF84FFCFF010008200140FF
:1025000000A00540B0270020FFFFFF008023024A03
:102510009B000B43D362704700800540002310B539
:102520000100988A1B8B984710BDC046162310B532
:10253000010018885B88984710BDC046F8B547462B
:10254000CE4680B50F1E18D01423994604330400DC
:102550000025012698464B461888434621681B886B
:10256000984701C4431E984101350640AF42F2D15D
:102570003000C0BCB946B046F8BD0126F8E7C046F9
:10258000002370B504000D00988A05491B8B9847FD
:1025900003000020002C01DB0130A04029009847F7
:1025A00055420000AA23064A1B0113608D235B00DD
:1025B000D3600449044B19605368002BFCDA704760
:1025C0000040024000B0FA00006002407047C04680
:1025D00010B50148FEF754FE948A001070B5074DFF
:1025E000074EB54209D20024013E761BB6080136DB
:1025F00008CD01349847B442FAD170BD5887001015
:1026000094870010054B064A06491A60064A074B94
:102610001A6010000B689843FBD1704700E000403F
:10262000BFCDFBFE08C00040FE7F3C0000F0004034
:10263000044BDB6C002B03D18022034BD2021A60C7
:102640007047C046000011504C201150044A054B01
:102650001A60054A1368DB018033FBD17047C0461E
:10266000FFFFFF0100F0004008C000404022034B84
:102670009A675A671A67DA667047C04600F00140E9
:1026800010B5FEF79DFE10BD70B52849284D294EA6
:102690006D1AAC102200302C00D93022300092008C
:1026A00000F0AAFFBC2D3DD823002A3B224A052B6F
:1026B0001DD9302075196D07A446001BEB0F002DA6
:1026C00003DA611C8C46A1007250C01AE3189B000B
:1026D0004108F318C900C9181A605A6008339942B2
:1026E000FAD1012303421DD0984360440400A300A3
:1026F000F250631C2F2C15D09B00F250A31C2E2CE3
:1027000010D09B00F250E31C2D2C0BD09B00F250FC
:10271000231D2C2C06D09B00F250631D2B2C01D0C6
:102720009B00F250054B9E6070BDC046000100103A
:10273000C001001000000020C101001000ED00E009
:10274000002310B5294C82B0A367FFF72BFF0122AD
:10275000274B1A60636C012BFCD10322254B1A60B6
:10276000224A936B012BFCD1013300930121224AB1
:1027700022480433FFF724FE052301210093204A59
:102780002048FFF71DFE0022022104201E4BFFF708
:10279000A1FD0022012105201C4BFFF79BFD00221B
:1027A000002107201A4BFFF795FD00220021082089
:1027B000174BFFF78FFD8023DB00009300220021E1
:1027C0000920134BFFF710FD0022104B00210620BB
:1027D000FFF780FD0420FFF7EDFD0E4900F04CF8F7
:1027E00001000020FFF792FE02B010BD0080004003
:1027F0003CB0004030B00040002F685900800240DB
:10280000008C864700C00240001BB7004059730788
:10281000006CDC0240420F0001480421014B1847C4
:10282000301100203D250010124A936F9B0815D2ED
:102830009066D166002905D0FFE7FFE7FFE7516FFB
:10284000106F704704B580210906C2175140002857
:1028500000D0C84305F038FF002104BDF0B5146E68
:10286000556E576F166FFFF7E3FF1466556657678F
:102870001667F0BD000000D0114A936F9B0813D279
:1028800010665166002905D0FFE7FFE7FFE7516FAB
:10289000106F704704B5002801D00020C04305F038
:1028A00013FF002104BDC046F0B5146E556E576F7E
:1028B000166FFFF7E5FF1466556657671667F0BD9C
:1028C000000000D094464A4A926F9208624601D2B4
:1028D00028E0C046F0B5464E346E756E776F366FA1
:1028E00000F020F89446424A14665566576716670A
:1028F0006246F0BD94463E4A926F9208624601D20B
:1029000054E0C046F0B53A4E346E756E776F366F50
:1029100000F04CF89446364A1466556657671667B9
:102920006246F0BD002B24DB11D000293EDA00B551
:10293000C943404200D1013100F038F8C943404258
:1029400000D10131DB43524200D1013300BD002AE6
:10295000EBD1002801D1002905D00020C90FC907FB
:1029600001D1C043410800B505F09EFE00220023BE
:1029700000BD00B500290ADBDB43524200D1013320
:1029800000F014F8C943404200D1013100BDC943F1
:10299000404200D10131DB43524200D1013300F00B
:1029A00005F8DB43524200D1013300BD002923D199
:1029B000002B18D1002A0CD0BC460D4F38667A6621
:1029C00000210023FFE7FFE7FFE77A6F386F6746D4
:1029D0007047002801D00748010000B505F064FEEB
:1029E0000022002300BD02000B00002000217047E0
:1029F000000000D0FFFFFFFF002B00D0BFE0130C52
:102A000028D1002AE7D080B4114F39667A66FFE7F3
:102A1000FFE730B4040C7B6F396F1B0423433B6624
:102A20007A66FFE7FFE7FFE7C04684B27B6F3D6F42
:102A30001B0423433B667A66FFE7FFE7C04600239B
:102A40002C042D0C7A6F386F00196941B0BC7047A7
:102A5000000000D0F0B594460025140E01D11202FA
:102A60000835140F01D112010435940F01D19200E1
:102A70000235D40F01D152000135D40B0134254F5A
:102A80007C66254C3C660E0C93B2FFE7FFE7FFE740
:102A90003C6F6643360C7703BE467343DF0B5B0423
:102AA000C01AB941130C7343DB18C91ACE08664328
:102AB000360CB64493B273431F0F1B01C01AB941C1
:102AC000130C73431F0B1B05C01AB941860D8F02EF
:102AD0003E436643360C092D24DB520A7243801AAA
:102AE0007703460A6643360C16235B1BDE40DF4045
:102AF000BF1964466643821B7046043506330100E5
:102B0000D940A840C01900D30131A24206D2002307
:102B1000F0BD0000000000D0FFFFFFFF121B0130DE
:102B2000F3D3F1E709277F1BFE406446A2B272434C
:102B3000801A00D20139220C7243130C1204821A3B
:102B400099410B007046043513370100F940A84045
:102B5000801900D30131002B02D1A2420AD2F0BD6C
:102B6000013000D30131121BFAD2013BF8D1A2424D
:102B700000D2F0BD013000D30131121BF7E7F0B5F0
:102B80001C0C00D080E00CB400251C0A04D11B02F0
:102B9000160E3343120208351C0B04D11B01160F0D
:102BA0003343120104359C0B04D19B00960F334331
:102BB00092000235DC0B02D192185B4101351C00FA
:102BC000971864410134464F7C66464C3C660E0CB7
:102BD000FFE7FFE7FFE7C0463C6F6643360C77032D
:102BE000BE4697B27743C01B00D20139C01B00D24A
:102BF00001399FB27743C91BC91B170C77437E0469
:102C0000FF0B801BB941CE086643360C0C2D33DB1D
:102C1000B644120B1F053A431B0B97B27743C01BF8
:102C200000D201399FB27743C91B170C77433E048A
:102C30003F0C801BB941860D8F023E436643292716
:102C40007F1BFE400C3D7746AF40BF1930BCA2B29F
:102C5000ABB272437343801A9941220C7243130C36
:102C60001204801A994102000B000137001BA94190
:102C7000F9D2781E0021F0BD0C277F1BFE4077465D
:102C80007F0BAF40FF19E0E700245D1C07D0144F15
:102C90007D663966FFE7FFE7FFE7FFE73C6F95B228
:102CA0009EB265436643401BB141150C1E0C654343
:102CB000664336042F0C3E432D04401BB14199421C
:102CC00004D202000B0020000021F0BD01D190428F
:102CD000F7D3801A994101349942F2D3F6E7000004
:102CE000000000D0FFFFFFFF48404140484018B4BB
:102CF0001B4B5B68FC46019308BD04DF932F00105B
:102D000018B4174B1B68FC46019308BD00DF9D2FCC
:102D100000109446134A926F920809D2624618B482
:102D20000F4BDB68FC46019308BD0CDF55320010E9
:102D30000C4AF0B5146E556E576F166F6246FFF76A
:102D4000EEFF084A1466556657671667F0BD18B45B
:102D5000034B9B68FC46019308BD08DFF930001067
:102D6000F8190020000000D0FFB55040424050400C
:102D700059404B40594000E0FFB5154F4C00640DE1
:102D800003D0BC4204D10C0314D80020090D09055E
:102D90005C00640D03D0BC4204D11C030AD800229D
:102DA0001B0D1B0501264B4009D44B4003D58B421C
:102DB00000D18242FFBD9942FCD19042FFBD0B433E
:102DC000DB1803431343F5D0C9434918FFBD000086
:102DD000FF07000000B5FFF7CFFF804100BDC046F0
:102DE00000B5FFF7C9FF01D9002000BD012000BDDB
:102DF00000B5FFF7B9FF01D9002000BD012000BDDB
:102E000000B5FFF7B1FF804100BD012040054A0039
:102E1000121804D85A00121801D800207047012057
:102E2000704700000021002805D17047C1174840B5
:102E3000401AFAD0C90713B5064B1B6898470CBC5B
:102E4000441CA2401005120B0349091B0905194334
:102E5000114310BDF02700201F04000010B54C00E6
:102E6000620D8023D218DB00D21A5B057E2A10DDAA
:102E70009E3A13DACC170903490819435242D1404C
:102E8000640001341532202A05DAD040084360433B
:102E900010BD002010BD0846604310BDC80FC0180B
:102EA000013810BD18B4044B5B6AFC46019308BDA1
:102EB00024DF053400100000F8190020132370B53A
:102EC0001D78012D19D014DD1F48FFF72FFB0600D8
:102ED0001E48FFF72BFB1E4C80223100200000F023
:102EE0008BFB022D2DD01B48FFF718FB1A4B1860E7
:102EF00070BD1A4B164CA364F5E7184B144C2360B5
:102F00006360A360E36023616361A361E3612362A3
:102F10006362A362E36223636363A363E363236483
:102F20006364A364E36423656365A365E365236663
:102F30006366A366E36623676367A367E367A364C7
:102F4000D1E7064BA364CEE753440000534600008C
:102F5000F81900204C330000F0270020612F0010EA
:102F600007B5604601880A0A0230DF2AFAD1C9B2E1
:102F7000820804D3028840880004104300E00068FF
:102F8000014A5050039007BDF81900200FB403BC4C
:102F90000CBCF0B50124E407634000E0F0B50C0D73
:102FA000CF0F661E3605891B640503D3C943404213
:102FB00000D30131640D03D0661CF60A07D0E41B70
:102FC00000207F00791C89078912803C24031D0D95
:102FD000DF0F6E1E36059B1B6D0503D3DB4352428C
:102FE00000D301336D0D03D06E1CF60A07D0ED1B24
:102FF00000227F007B1C9B079B12803D2D032F1B13
:10300000661B58D4A446202E46DA20371400BC4054
:103010001D00BD40F24033412A4380185941CB0F77
:1030200005D0C943C0430022644250415141624629
:103030004D0D28D10D0D07D100281FD02419404176
:103040004941013A0D0DF9D0640006D3013000D397
:103050000131002C01D140084000013A0BD4941CEE
:10306000E40A04D112051144DB071944F0BDD90765
:10307000204B194300E0D9070020F0BD0029DDD125
:10308000002CDBD1F0BD0132C6074008CD07284334
:103090004908002EE1D0D9E73C2E29DA203E4037FE
:1030A0001400BC4000D00124F24014431A00BB407D
:1030B0001C43D317ACE7AC46202F08DA20360400B7
:1030C000B4400D00B540F84039412843A5E73C2FF6
:1030D0000CDA203F40360400B44000D00124F84010
:1030E00004430800B1400C43C117EAE7100019007F
:1030F000002494E70000F07FF0B50C0D661E360545
:10310000891BE60A6405640D02D0651CED0A04D033
:10311000002001210905803C2403A4461C0D671EE4
:103120003F05DB1BE70A6405640D02D0651CED0A50
:1031300004D0002201231B05803C24037740644413
:1031400097B484B296B27443070C7E43150C6F4358
:1031500080B26843361802D3012000043F183004BF
:10316000350C00197D41844688B29AB250430C0C4C
:1031700062431F0C7C438EB27E43921902D3012618
:103180003604A4191604170C3618674101BC81B225
:103190009AB25143040C62431B0C5C4380B2584307
:1031A000121802D30120000424181004130C401834
:1031B00063412D185E410020474106BC88B293B29E
:1031C00058430C0C6343120C544389B251435B18AF
:1031D00002D301210904641819041A0C0918624168
:1031E0006D1856410020474118BCF902720D114379
:1031F000F0026A0D1043ED020A0D03D16D19404132
:103200004941013B124E9B1B7600B3420ED26D002A
:1032100007D30130002671416646354301D140088D
:1032200040001B05C918E4072144F0BD0BDA013347
:1032300006D1013004D101314F0D01D04908F2E728
:10324000E1070020F0BD013631050020EBE700006A
:10325000FF030000F0B51C0D671E3F05DB1BE70AEE
:103260006405640D02D0661CF60A04D00022012316
:103270001B05803C2403D0252D060026F6432E6630
:103280001E096E66CE0FF619B44649004F0D02D0E6
:103290007E1CF60A03D000200021403F3F033E1B66
:1032A000B600B444013F7F05C91B49082E6F0136A3
:1032B00076089C02950D25437543ED137543AD13B8
:1032C00001356D10F603761B0CB4CC02450D2C4372
:1032D000A2B2B3B25A43270C7B43350C6F43A4B25E
:1032E0006C431B1902D3012424043F191C041D0C38
:1032F000A4187D4124196D41009A91B2ACB261438A
:10330000170C7C432B0C5F4392B25A43A41802D390
:1033100001221204BF182204230C52187B41019C85
:103320006C431B19520ED9010A434401A01A81B201
:10333000B2B2514303145A43360C734387B27743F6
:10334000D617D21900277E4136049B191704160C94
:103350007F185E417316ED18F30100268033754126
:10336000A90F06D16400690AE8055B0A184309D26F
:103370002FE00422944480337541A90AA8059B0AD2
:10338000184326D3404149412404009A019B0D0073
:103390005543641B4343E41A95B286B27543170C38
:1033A0007E43030C5F4392B25A43B61802D3012204
:1033B0001204BF183204330C52197B4152429C4113
:1033C000002C02D40022013051414008CA071043AA
:1033D000490802B06246D7079210084BD218084B32
:1033E0009A4203D212058918C919F0BD0020002A9B
:1033F00001DC3900F0BD01331905F5E7FD030000DC
:10340000FE070000002200B5203200F004F808009A
:1034100000BD000000220B150AD410B5944600F040
:1034200031F81414013400DA0021CB17144C204772
:103430000020002170476244343A0CD40C2A07DA89
:1034400004009140904052422032D440214310BDAC
:10345000D843D94310BD203207D40C469440524281
:1034600020321141D040204310BD0800C91720323E
:1034700003D452422032104110BD1800190010BD73
:10348000373400100A0DCC0F531E1B05C91A520504
:1034900003D3C943404200D30131520D03D0531C22
:1034A000DB0A07D0121B00206400611C8907891207
:1034B000803A1203014BD21A70470000FF0300004C
:1034C00051434343C9188C46110C83B24B4310B48B
:1034D000040C614392B280B2504362431C041B0C43
:1034E000001910BC59411304120CC0185141614419
:1034F00070470000132310B51C781348FFF716F827
:10350000012C0BD004DD01008022104800F074F87B
:103510000F48FFF703F80F4B186010BD0B4C01006C
:103520005422200000F068F80B4B6365A365E36547
:1035300023666366A366E36623676367A367E3673F
:103540002362E361E4E7C04653460000F81A002016
:103550004C330000F02700205D35001007B56046B1
:1035600001880A0A0230DF2AFAD1C9B2820804D3DC
:10357000028840880004104300E00068014A50506F
:10358000039007BDF81A002010B5040004F09EFA5D
:10359000002804D0034B04199C4200D810BD0248F7
:1035A000FDF76EFE00000420A08A001070B5050033
:1035B0000C0004F025FA002805D06C43034B0419D5
:1035C0009C4200D870BD0248FDF75AFE000004205E
:1035D000A08A001010B504F083FA10BD0148042140
:1035E000014B1847401100203D250010014B1B687E
:1035F0001847000040110020014B5B68184700008D
:10360000401100207047C046F8B5DE4657464E468A
:103610004546E0B599460D9B0700884693469B07B3
:1036200028D00B9B002B3CD016000B9C0A9D361912
:10363000321B013C4B464146285DB847002CF7D170
:1036400035000D9B9B070ED55B46EC1A0C9BA342E5
:1036500009D91E002A004B46414620200134B847B4
:103660000135B442F6D32800F0BCBB46B246A946A9
:10367000A046F8BD0B9B0C9A934214D213005D46F2
:103680000C000B9A9E1A76192A004B460135210030
:103690002020B847B542F7D10B9BA046002BC4D1E0
:1036A000E1E71500CDE75E46002BBED15D46DAE7C7
:1036B000F0B54F46D6464646C0B584B09C460EABE4
:1036C0001F78129B9146BA460D9C109E119D9B0738
:1036D0004CD4002D41D1B44248D20123129F1F4047
:1036E000B8460C9B5F1E302303E001343B55A642D5
:1036F00001D9202CF9D14346002B00D187E00C9B47
:103700005F1E3023A54204D830E001343B55AC4263
:103710002CD0202CF9D1129BDB060DD5129B5B051A
:1037200057D4A64267D0A54265D00F9B102B53D02B
:10373000022B5BD0202C36D12023129C01930C9BB2
:103740004A460093039463460295FFF75DFF04B079
:10375000E0BCBA46B146A846F0BD0123129A134018
:103760009846012313422DD1B442BAD3129BDB06F3
:103770001ED5129B5B05D8D4002CD2D10F9B102BE9
:1037800060D00F9B022B71D0302301240C9A137050
:103790005346002B11D1129B5B0740D52B260C9A68
:1037A000631C1655C9E72300013430260C9AD65401
:1037B000202CC1D05346002BEDD02D260C9A631C33
:1037C0001655BAE7002F34D0013DB44200D288E745
:1037D00095E70F9B102BAFD1129B9B063CD5202C5D
:1037E000AAD058230C9A13550134A3E7202CA3D058
:1037F0002300013407E0631E012CBFD00F9A102A6A
:1038000036D0022AD1D162260C9AD65492E7129B66
:10381000DB06CDD5129B5B0500D482E785E7129AC3
:103820002300160700D488E720260C9A013316558A
:1038300083E70C2313405F1EBB41ED1AB44200D254
:103840004FE75CE7129B9B060ED478230C9A022468
:103850001370302353709BE7202C00D16CE7782342
:103860000C9A1355013465E75823EFE76033EDE711
:103870000C9AA61EB618129A920602D558223270D9
:1038800093E77822327090E710B5002800D110BD80
:1038900001F012FCFBE7C04610B5002803D04A68CF
:1038A0000B681100984710BDF0B54E46DE465746EE
:1038B0004546E0B595B083468946924698461E9A9D
:1038C0001F9B10001900209EFFF79FFA002800D0D0
:1038D000D2E11E981F990122C44B5242FFF77AFA97
:1038E000002800D001E11E981F990122C04B5242CE
:1038F000FFF786FA002800D0D6E01E981F99002214
:10390000BC4BFFF77DFA002800D0B5E01E981F9948
:103910000022B94BFFF75EFA002800D0ACE01E98F9
:103920001F9900220023FFF755FA002800D0D1E0AC
:1039300000230B93229B5B0500D406260024302332
:1039400006E006AA013417321355013E202C01D09F
:10395000092EF6D81E981F99FFF780FAA74BF200A0
:103960009B180CCB050008920993FFF75FFA020041
:103970000B001E981F99FFF7BAF9089A099BFFF7E9
:10398000E6F906900791FFF78DFA0700FFF74AFA6C
:1039900002000B0006980799FFF7A9F90022984B3F
:1039A00006900791FFF72CFA002800D1E9E00137D3
:1039B0003800FFF737FA02000B0008980999FFF763
:1039C0000FFA002801D000270135002E00D1B7E002
:1039D000069513E0172306AA9B180A213800013424
:1039E0001D19FEF749FF3031297038000A21013EC8
:1039F000FEF742FF092F00D8E1E00700202CE9D1B3
:103A0000069D20240CAB0693172706ABFF180DE08C
:103A100028000A21FEF708FF01343031280039550B
:103A20000A21FEF701FF051E00D1B7E0202CEFD1DF
:103A30000323229A1340012B17D1219B002B14D072
:103A40000B9B002B00D1E3E0219B013B2193202B1A
:103A50000BD93023219A06E006A9013417310B5502
:103A6000944200D3A0E0202CF6D1229B0194039332
:103A7000219B0293069B21E0229B52460493219BAB
:103A80004946039358461E9B1F9C0296009301943F
:103A9000434600F043F90400200015B0F0BCBB46DB
:103AA000B246A946A046F0BD229B5B070FD4032275
:103AB000544B22990192039121990291009352460D
:103AC000434649465846FFF79FFD0400E4E70422B9
:103AD0004D4BEEE71E9A1F9B00200021FFF707F9D0
:103AE00001231E901F910B9324E70223229A544630
:103AF0001A40229B06929B0700D1ACE02600434D62
:103B000008942F1F3200E87843464946013DD847C4
:103B10000136BD42F6D1089C069B0434002BBBD075
:103B20005746219AE31B9A42B6D915002200434614
:103B3000494620200134D847E31BAB42F6D3ABE71C
:103B40002800FFF773F902000B001E981F99FFF77A
:103B5000CEF82B4B002206000F00FFF73BF90CAB11
:103B60000693002800D04FE7002230003900244B94
:103B7000FFF746F9002800D046E7012301359D43B1
:103B800042E70022069807991D4BFFF723F900280A
:103B900000D01AE7002F59D1013716E70323229AE4
:103BA0001340012B00D1A6E0202C00D15DE70B9B38
:103BB000002B3AD02D23069A1355013455E7069D64
:103BC000202C00D11DE73023361906E006AA013467
:103BD00017321355202C00D113E7A642F6D12E231D
:103BE0000CAA0134069293550EE7C046FFFFEFFF83
:103BF000FFFFEF7F65CDCD4165CDCDC1988D001024
:103C00000000E03FF88A0010F08A0010008B0010DE
:103C10000C23229A134257D0219B013B2193A342AC
:103C200000D916E7202C00D11FE7229B5B0704D5A3
:103C30002B23069A1355013417E7229B1B0700D448
:103C400013E72023069A135501340EE7FB0700D42F
:103C5000BBE60137B9E6219B042B00D84EE7554659
:103C60004F46043CE4182A00434601353900202021
:103C7000D847AC42F7D141E70227229B55461F4067
:103C80009B0726D006975F46234EEC1C2A00B0788F
:103C9000434649460135B847013EAC42F6D1069F3E
:103CA000002F00D1F8E65746219AE31B9A4200D82C
:103CB000F2E6150022004346494620200134D84749
:103CC000E31BAB42F6D3E7E6219BA34200D9C0E653
:103CD000CBE6219B032BD5D9069754464F46033D8F
:103CE000ED1822004346013439002020D847A54270
:103CF000F7D1069FC6E7219B002B00D154E70B9B11
:103D0000002B85D0219B013B21939C4200D2A0E651
:103D1000202C00D04EE7A8E6FC8A0010F0B54546FE
:103D2000DE4657464E46E0B59BB0249C259D824614
:103D300088469346994622002B0020002900FFF771
:103D400064F8002800D0C1E00122200029007C4B4B
:103D50005242FFF755F8002800D0B7E001222000BA
:103D60002900784B5242FFF735F8002800D0ADE02B
:103D70000022002320002900FFF72CF8002800D0A3
:103D8000BBE108940995089809998023289ADB00DB
:103D90001A400F928022289E1201164032000E9681
:103DA000289E0F000A901E4200D0A4E00B0003439F
:103DB00000D0CBE0002A00D012E232000633269376
:103DC000022313400C930223134200D00AE2279BE4
:103DD000042B00D215E200270426043B0E93002298
:103DE000002320002900FEF7F5FF002800D0C8E1DD
:103DF000554B289A134004930E9B0393269B0293E2
:103E0000089B099C0093019441464B465A465046F4
:103E1000FFF74AFD02002020289B0025034059425D
:103E20004B415B421840531C089341464B4645307A
:103E3000D047FB17FC185C40FB0F1F270A93731E2B
:103E40000E930AABFF1806E020000A21FEF714FDCE
:103E50000400202D08D00A212000FEF70DFD0135B9
:103E600030317955092CEFD8052306930E9B564621
:103E70000593002304930A3303930A9B414602935C
:103E800012AB009330004B46089A0195FFF710FCE7
:103E90000C9B002B28D05F46279BC41BA34223D931
:103EA00082461D003A194B46414620200134B04756
:103EB000A542F7D850465946279C421A01320023A2
:103EC000944200D395E1013018180DE0289B00942E
:103ED00001950493279B0393269B02934B465A46D6
:103EE00041465046FFF7E0FC1BB0F0BCBB46B24673
:103EF000A946A046F0BD01432AD10E9B3200002BFB
:103F000000D15DE70027269B0026BB4200DD82E151
:103F10000022002320002900FEF75CFF002800D0CB
:103F20004BE1289B084A02961A408023DB0013438A
:103F30000493279B0393089B099C00930194CDE76E
:103F4000FFFFEF7FFFFFEFFFFFF7FFFF0623269343
:103F5000B24B7800400DC018FEF768FFB04AB14B75
:103F6000FEF7F5FEB04AB14BFEF7CAFE3F03B04B79
:103F70003F0B3B430C900D9100220A981900AD4B6A
:103F8000FEF7B5FEAC4AAD4BFEF7E1FE02000B00BA
:103F90000C980D99FEF7B4FEFEF760FF0700FEF7E0
:103FA00045FFA74AA74B0A900B91FEF7D0FE0022CF
:103FB000A54BFEF7A5FEFEF751FFA44A06000A989E
:103FC0000B99A34BFEF7C3FE0A900B913000FEF74E
:103FD0002DFFA04AA04BFEF7BAFE02000B000A9884
:103FE0000B99FEF784FE02000B000A900B91FEF77E
:103FF000AEFE0C900D910A980B9902000B00FEF793
:104000007FFE0022109011910C980D99934BFEF7B2
:1040100080FE0022924BFEF773FE02000B000C980C
:104020000D99FEF776FE00228E4BFEF769FE020028
:104030000B000C980D99FEF76CFE0A9A0B9B0C90E6
:104040000D9180210020C905FEF751FE02000B00F2
:104050000C980D99FEF754FE02000B001098119970
:10406000FEF757FE0022724BFEF74AFE7E4B0022FF
:10407000F6183305FEF76BFE02000B000A900B9159
:1040800008980999FEF7A6FE002808D00A980B990F
:104090000022734BFEF73DFE0A900B91013F0A99F7
:1040A0000B9A0B0011003A006332C62A12D8022282
:1040B0002898042610400E9A0C90002A26D1279B9F
:1040C000042B05D9002800D0A1E0279B043B0E93C8
:1040D000042642E00222289810400E9A0C90002AF2
:1040E00013D1279B052B00D889E0002800D084E05D
:1040F000279B0526053B0E9332E080231B069C463A
:10410000AC446346089409933DE605260B4300D171
:10411000F9E608980999554A554BFEF769FE0028BB
:1041200008D0089809990022524BFEF753FE002848
:1041300000D0E8E6269B002B34D00F9B002B31D01B
:10414000269B013B2693279BB34204D90C9B002B53
:1041500059D002230C9300230E93002F00D13EE68A
:104160000A9A0B9B08980999FEF7D3FD0022089044
:104170000991002320002900FEF72CFE002800D121
:1041800036E6089C099D289A80203B4B0006134088
:10419000220004930E9B0393269B02932B180092FC
:1041A000019331E6279BB342D5D90C9B002B2AD033
:1041B00000230E9302330C93CFE7289B2E4A8020D6
:1041C000089C099D1A408023DB00134322000493BE
:1041D000279B000603932B180092019302967DE61D
:1041E000052695E600230E930233002704260C9340
:1041F000F5E54B1E1B191B1A65E602230C930526D9
:10420000AEE70423E7E5279B9B1B0E93A5E702235C
:1042100004260C93A1E7DB1B5E1E79E601FCFFFF81
:10422000FB799F501344D33FB3C8608B288AC63FA5
:104230000000F03F0000F83F61436F63A787D23F63
:1042400071A379094F930A400000E03F1655B5BBB2
:10425000B16B0240EF39FAFE422EE63F00002C40DF
:104260000000244000001840FF0300002D431CEB19
:10427000E2361A3F80842E41FFF7FFFFF0B5574624
:10428000DE464E464546E0B5A3B01F002C9B924645
:104290000C93C94AC94B8B460B901A60002900D178
:1042A000BFE1002338789946002800D1C1E1C44B12
:1042B0004C460993C34B0E935B460A9308E02200D9
:1042C00053460A990B9DA84701343878002876D0C8
:1042D00001372528F3D110239B46083B9946043B20
:1042E0009846033B002602259C463878791C03003B
:1042F000203BDBB2102B03D8099A9B00D3589F4672
:104300000300303B092B36D900252A2800D1A7E02D
:1043100000230D932E283FD00300683BDBB2122B05
:104320001BD80E9A9B00D3589F4663460F001E432E
:10433000DBE70F002E43D8E743460F001E43D4E7C8
:104340005B460F001E43D0E74B460F001E43CCE7F1
:10435000802378785B001E4301310F00672845D821
:104360002428ACD90300253BDBB2422BA7D89649C1
:104370009B00CB589F460025AB005D196D002D18A2
:1043800008780F000300303B303D0131092BF3D991
:1043900000230D932E28BFD1302280205242904618
:1043A000C000064378780B0080444246092A00D8B2
:1043B00051E12A2800D15EE10F000131ACE70A9BF0
:1043C000A1469B46CA4503D801235B425344994604
:1043D00053464A46594600200B9DA847200023B06B
:1043E000F0BCBB46B246A946A046F0BD0300693BFF
:1043F000DBB20F2B00D962E7012199408846734A4E
:1044000011408B46110042460A4200D013E10A2BAC
:104410002FD0072B00D052E70C9D01CD002800D1F2
:1044200034E121231E43B0461F260D9A12ABF61825
:10443000A14694465946340002E0000920290AD0DA
:104440000F26064032003732092E00D8073A0131D4
:1044500062540F28F1D863464C468B460D9322E1F7
:104460000C9B20CB002D52DB78780C930F00013190
:104470004EE70C9B0D9904CB90469B46002900D13A
:1044800028E1434618784144002801D100F029FC76
:104490000D9A94460A0004E059780133002900D1AE
:1044A00095E19A42F8D163460D934346D31A0F9390
:1044B000730500D46CE10F9B0D9A934200D90F92C3
:1044C00002231A0032400C92334200D191E20C9345
:1044D0000D9BB9461E1943461B1BA84622001F0010
:1044E0000B9D08E0541C53460A99A847385D0028E4
:1044F00000D163E122009642F4D145464F46340094
:104500000C9B002B00D097E15B460C93DDE602226A
:10451000787816430F006D420C930131F8E67878F5
:104520006C2800D159E180235B001E43013114E760
:1045300080239B0078781E4301310EE77878682845
:1045400000D150E1802301311E4306E7672800D1E6
:10455000C2E0472800D134E1452800D134E10721E9
:104560000C9B0D9A07338B43190004960395029216
:104570000CC90B98009201930C91220053460A99A2
:10458000FFF7CCFB0400A0E6462800D1A8E00721F5
:104590000C9B0D9A07338B431900049603950292E6
:1045A0000CC90B98009201930C91220053460A9972
:1045B000FFF77AF9040088E67D420010AC2700205E
:1045C000F88B00103C8C0010888C0010419000008B
:1045D0002200534625200A990B9DA847013474E612
:1045E0000C9B04339B46631C9846B60700D4FFE03F
:1045F0000C9B220018780A9953460B9EB047641909
:10460000012D00D849E245460B9EB8460A9F2A0074
:104610005346013539002020B047A542F7D147461F
:1046200072E7DB4B38780B9300239946002800D0C3
:104630003DE60024C6E66F2855D000D8BCE2102322
:10464000782800D19EE09E430A239C4600230F93C6
:104650000A339B464DE000218A0052185200013374
:104660001118187830390200303A092AF4D90D911E
:104670001F00591C50E60C9BB87804CB0237D1437D
:10468000C9170A400D920C93791C45E6102330009F
:10469000984311331843802380463000DB001840D4
:1046A0001E4200D1C0E643460693082305930D9BA6
:1046B0002200049310230393002302935B4601938B
:1046C0001AAB00930A9953460B98FEF7F1FF0C952D
:1046D0000400FAE50139D4E680231B011E433EE7BE
:1046E00020231E4353E708239C4600230F930833DF
:1046F0009B4680233000DB0018401E4200D11AE1A7
:104700000D233100994380230A009B001A409146F3
:10471000194200D0C3E180230A005B001A40904692
:104720000C9A04320F92194200D08FE24B0600D54A
:1047300097E10B0600D4E5E20C9B1B8899464B469B
:10474000002B00D005E210339943002800D100E28D
:10475000002398460D9B069104935B460393002328
:10476000059502934346D9E0582808D0622878D1AD
:1047700002239C4600230F9302339B46B9E7202374
:104780001E43103B9C4600230F9310339B46B0E71B
:1047900002231A0032400C92334200D105E20C93FE
:1047A0004346B9460B9E0A9FA8461D1B220053464E
:1047B00039000134B047285D0028F7D145464F46FF
:1047C0009EE680231B011E4320231E43C7E662464C
:1047D0000D9242469B1A0F936AE6C0239B00B8785D
:1047E0001E43F91CB9E5C023B8781E43F91CB4E593
:1047F000012D00D84AE1631E9946A9444B46524612
:104800002600A146BA461C001700A8460B9D3200A0
:104810003B00013620200A99A847A642F7D13B0069
:1048200057469A464C460C9B320018780A995346D4
:104830000B9D4444A84767E6A0460F9B9D4200D8C5
:1048400062E62C190B9E4546B8460A9FE41A2A00D8
:104850005346013539002020B047A542F7D14746DD
:1048600052E680233200DB001A4090461E4200D1FF
:10487000F3E011218E43B4469846802362469B00A4
:104880001A40934662461A4259D180235B001A406F
:1048900091460C9A04320F9262461A4200D0A0E16F
:1048A00063465B0600D5D4E063461B0600D412E2E3
:1048B0000C9B00229B5ED8171918414089B2DA0F71
:1048C0000C92002B00D187E188461F2612ABBB4615
:1048D0001495F71845464E46E046A14606E02800E6
:1048E0000A21FDF7C9FF0500202E08D00A21280063
:1048F000FDF7C2FF01363031B955092DEFD84C46CE
:10490000C446B1465F46149D634606930D9B0595CC
:1049100004930A2303930C9B02934B4601931AAB17
:10492000220000930A9953460B98FEF7C1FE0F9B95
:1049300004000C93C9E40C2331009943E3E60822F8
:10494000072191460C9B07338B4399444A460ACB77
:1049500008000C92DA0F9346184300D085E000233C
:1049600099464346002B2FD1002200231092119329
:1049700000231F26994612ABF6185B461495BB46DA
:10498000E04637000F934E46A146109C119D05E06E
:104990000536001004000D00202E0CD00A22002342
:1049A00020002900FDF7A6FF01363032BA55002D50
:1049B000F0D1092CEED80F9B109411955F464C4610
:1049C000C446B1469B46149D634606930D9B0595D0
:1049D00004930A2303935B4602934B4601931AAB5D
:1049E000220000930A9953460B98FEF761FE0400DB
:1049F0006BE40F9B9D4200D896E18023DB000C9373
:104A00000F9B2E19F61A43460F930D9BA846994605
:104A10005346BA461F000B9D22003B000134202064
:104A20000A99A847B442F7D10F9B454698464B4692
:104A30000D933B0057469A4643461878002800D10C
:104A400062E56B1C0F930C9B002B00D1A8E60023A2
:104A50003DE50C9B1B78190031E710239E43B446BB
:104A60000BE70C9B1B78994669E6DA1712921392B2
:104A70004A401092129813990A005A401192109AC3
:104A8000119B121A8B411092119371E70C9B22001B
:104A900018780A9953460B9CA047444634E50822EF
:104AA000072690460C9B0733B343984442460C922A
:104AB0001A685B68149208931300089A134305D18F
:104AC0001033994300239846002838D161208B0683
:104AD00000D5412000231F2698465A4612ABF618EF
:104AE000030018920F9A0A3BB1461695179419972E
:104AF0004446664690469B46149F089D159103E0E8
:104B000007000D00202C13D03200002338002900AC
:104B1000FDF7F0FE5B46D2B2D318092A01D8130084
:104B200030334A4601341355A845E9D1BE42E7D98E
:104B3000189BA0469B461599169D179C199F0D9B87
:104B4000069104935B460393002305950293434625
:104B500044E761208B0600D541201F2612ABF218D6
:104B600003000A3B0C934B464646A146A8461C0050
:104B70005D461491BB46170002E00400202E0DD0C4
:104B800029002000FDF778FE0C9BCB18092901D8DD
:104B90000B0030330136BB55AC42EED25F464C467B
:104BA000AB4614994546B046D4E50F9B9D4200D9CB
:104BB00026E701330F93F3E5102332009A4394461E
:104BC000692800D0A2E080233200DB001A40904622
:104BD0001E4200D151E64CE64346002B00D093E63E
:104BE00073E60C9B1B68DA0F002B70D0D9175B188B
:104BF0004B4098461F2612ABF618A14614955C460A
:104C00004546BB46E04637000C9206E028000A21E4
:104C1000FDF732FE0500202C08D00A212800FDF700
:104C20002BFE013430313955092DEFD85F46C4468B
:104C3000A3464C46149D0C9A634606930D9B05951E
:104C400004930A23029203935B4667E60C9B1B685E
:104C50009846002B03D11033994300282DD16120B1
:104C60008B0600D541201F2612ABF61803000A3B25
:104C70004A460C93149143463100A846A1465E462D
:104C80001400BB461D000F0002E00500202C0DD0D3
:104C900031002800FDF7F0FD0C9BCB18092901D845
:104CA0000B00303301343B55B542EED223005F4652
:104CB0004C464546B346994614990D9B069104937C
:104CC0005B4603930023059502934B4626E6434635
:104CD000002BB1D18EE70C9B1B68D81719184140E7
:104CE000EDE580233200DB001A400F921E420FD008
:104CF0000230020032400F92304219D00023A04609
:104D00000F939AE50C9B1B68994618E516009BE4E7
:104D100002231A0032400C92334200D08CE5002D61
:104D200000D06DE6FFF7F0FB01330F93FFF7D0FBE8
:104D30000C93F4E700B585B0039101210290009334
:104D4000034813004A4202A9FFF798FA05B000BDD4
:104D50009938001010B5094A0300146884B0002C7B
:104D600008D0012200910648524203A9A047012021
:104D700004B010BD00F0EAF90020F9E7AC270020EC
:104D80008938001000BEFDE7094A1368002B06D0E1
:104D900008491818884208D8106018007047064B58
:104DA0000449181813608842F6D901235B42F4E7DE
:104DB000A8230020000004201C28002010B5FFF7C5
:104DC000E1FFC04670B5FDF709FC074D074EB5423F
:104DD00009D20024013E761BB608013608CD013405
:104DE0009847B442FAD170BD948700109C87001098
:104DF000030010B5080011001B68984710BDC0469D
:104E0000F8B5437D07000D001600002B38D0002AAE
:104E10001ADD0B780A2B18D00020012E09D00124AE
:104E200021006B5C01340A2B1AD0B442F8D18642BF
:104E300003DD311A3B6828189847AD19013D2B78DE
:104E40000D3B5A4253413B75F8BD037D002BE3D126
:104E500002210E483B689847012EEED00120DEE784
:104E60006B1E5B5C0D2BE0D0884203DA091A3B68AD
:104E700028189847054802213B6898472000D4E746
:104E80000368110028009847DEE7C046E88D00104F
:104E9000F0B5C6460B6807000D0000B5802B06D0A4
:104EA0005A1C2A60ED182F7180BCB846F0BD0F4B1C
:104EB0001C68002C16D00B1D98460D4E02E024698C
:104EC000002C0FD02368002BF9D03368002B01D0C1
:104ED000A342F4D1200041462A68FFF791FF2469DC
:104EE000002CEFD101220023DBE7C04698230020ED
:104EF000A4230020F0B54646D6464F46C0B582B042
:104F000090461C0006000D00FDF71EF900232F4AF5
:104F100012184B41002B02DA01222D4B52422D492F
:104F200008008A4603F0F0FB81466B1C03D1300079
:104F300003F02EFA0500002C27D0274F274B1C68C2
:104F4000002C18D04346002B21D1254B984602E077
:104F50002469002C0FD02368002BF9D043461B682E
:104F6000002B01D09C42F3D120002A003100B84729
:104F70002469002CEFD14B46002B23D1280002B02E
:104F8000E0BCBA46B146A846F0BD164FD6E7144B72
:104F9000984602E02469002CEDD02368002BF9D05C
:104FA00043461B68002B01D0A342F3D12A003100F5
:104FB0002000B8476B460A222000DA71D91D093A51
:104FC000B847E7E7504603F05FFBD7E740420F00E2
:104FD000FFFFFF7FA0170020014E00109823002044
:104FE000A4230020F14D00100A4A1368002B05D1BC
:104FF0000CE01A001B691032002B07D08342F8D155
:10500000002902D118691060196170470029FCD08D
:105010001060FAE79823002010B500F037FB10BDB0
:10502000F0B5CE464746040080B583B0FDF78CF856
:105030002600002736184F41002F02DA01261A4FAA
:1050400076421A4B1A4D994601AB98464B461C685E
:10505000002C03D116E02469002C13D02B68002B00
:1050600001D09C42F7D1A368002BF4D00121404627
:1050700098470028EFDD4346187803B0C0BCB94616
:10508000B046F0BD0B4B5A6A974207D89B6AB342B1
:1050900002D302204042F0E79742FAD101200021DA
:1050A000FDF75CF8D2E7C046FFFFFF7F98230020A2
:1050B000A423002000400540F0B5CE46474680B509
:1050C00083B06B460600DD1D2870FDF73DF8002318
:1050D000194A12184B41002B02DA0122174B524297
:1050E00017490800894603F00FFB164B80461C68E1
:1050F000002C14D0144F02E02469002C0FD0236838
:10510000002BF9D03B68002B01D09C42F4D1200049
:1051100001222900FFF774FE2469002CEFD14346D9
:10512000002B05D1300003B0C0BCB946B046F0BD7D
:10513000484603F0A9FAF5E740420F00FFFFFF7F62
:10514000A017002098230020A423002070B504009D
:1051500003F01EF901230100050001222000FFF7E2
:10516000C9FE084B1C68002C06D06368002B05D0D4
:1051700098472469002CF8D1280070BD2469002CC0
:10518000F3D1F9E798230020F0B5CE46474680B525
:10519000A3B004000E00FCF7D7FF0023264A121824
:1051A0004B41002B02DA0122244B5242244803F0E7
:1051B000ABFA00232200019380463300214801A965
:1051C000FFF7B8FD204F019B81463C68002B19D0AA
:1051D000002C2FD01D4E02E02469002C0FD0236834
:1051E000002BF9D03368002B01D0A342F4D120006A
:1051F000019A02A9FFF704FE2469002CEFD10023D5
:105200003C680193002C06D06368002B0CD09847B3
:105210002469002CF8D14346002B07D1484623B01F
:10522000C0BCB946B046F0BD2469EBE7044803F0C2
:105230002BFAF3E70194EEE740420F00FFFFFF7FF8
:10524000A0170020914E001098230020A4230020D6
:105250000FB400B583B004A901C90191FFF794FF11
:1052600003B008BC04B018477047C0460022014B89
:105270001A707047162800204B790020FF2B0BD1A5
:105280008B79002B08D1CB79012B05D1082A03D9C2
:10529000024B8A7809301A707047C04616280020E1
:1052A0000120704710B5012913D1124953791079A3
:1052B00009781B0203430020994200D010BD5378A7
:1052C000012B08D0022BF9D1642200210020FDF728
:1052D000CFF80120F2E7D37891781B021943480AEE
:1052E000DB0501D4012040427F238A05D20F1940FB
:1052F000FDF746F91628002000487047B48E0010CC
:105300009446012310B501290AD152780023012ABD
:1053100006D162461179527912020A43072A01D056
:10532000180010BDA6336146024A01F069FA030075
:10533000F6E7C0460C8E001001230370004870474A
:10534000EC8D00104B780A781B0213438A7810B555
:1053500012041A43CB781B0613439622D2009342C1
:1053600000D010BD0022012011004042FDF708F9D5
:10537000024B1860024B19607047C046382300206A
:105380003C23002010B5024B1878FCF769F810BDDB
:1053900017280020154B70B51A68002A22D0EFF3A9
:1053A000108172B610680028FCD0BFF35F8F002018
:1053B0000F4A596010701B68BFF35F8F186081F34C
:1053C0001088002400250B4E3078FCF73DF80028AB
:1053D00004D1002400252900200070BD3078FCF79E
:1053E0003FF8F8E7FA240025A400ECE7D0270020D6
:1053F000182800201728002070B5050000200E0096
:1054000001F016FB002834D0002001F027FB002813
:105410002FD0FCF799FE0023174A12184B41002B9E
:1054200016DB164C200003F06FF9002821D0002075
:1054300001F0FEFA00280FD101200021404200F0C7
:1054400015FD03256D42200003F01EF9280070BDF4
:1054500001220B4B5242E4E7002001F0FFFA002842
:10546000EAD029003200002001F002FB051EEAD13B
:10547000E7E703256D42E9E740420F00F8270020E7
:10548000FFFFFF7F10B5FCF75FFE00230D4A1218E7
:105490004B41002B02DA01220B4B52420B4803F026
:1054A00033F900280CD001200021404200F0DEFC3E
:1054B000002001F021FB0028F5D1044803F0E4F8B6
:1054C00010BDC04640420F00FFFFFF7FF8270020BD
:1054D000F8B5CE46474680B505000C00FCF734FE13
:1054E0000023344A12184B41002B02DA0122324BBE
:1054F000524232490800884603F006F9002803D1D9
:10550000C0BCB946B046F8BD002001F091FA0028B1
:1055100048D00026002C41DD294B994613E0A919FB
:10552000002001F025FB070001200021404200F08F
:105530009DFC002001F0E0FAFCF706FE204BF61976
:1055400003C3B4422ADD002001F032FBA71B020096
:10555000B84200DD3A00002AE1D10120002140429A
:1055600000F084FC002001F0C7FA002001F060FA8E
:10557000002813D0002001F01BFB0028E1D1FCF72C
:10558000E3FD4B460F000CCB002184460D4812185A
:105590004B419F4202D8D4D19445D2D9404603F022
:1055A00073F8ADE700200021054B03C3404603F02C
:1055B0006BF8A5E740420F00FFFFFF7FF8270020B0
:1055C000F019002020A1070030B5002185B028483F
:1055D00003F082F800281CD1264B1A68002A16D046
:1055E000EFF3108172B610680028FCD0BFF35F8F14
:1055F00001242148596002781B68D2B20470BFF3BD
:105600005F8F0020186081F31088002A17D005B042
:1056100030BD01200021404200F028FC002001F0B4
:105620001DFA0500124803F02FF8002DEFD0134BA0
:105630001B68002BEBD0124A10689847E7E7FCF78D
:10564000F9FA0400FCF780FDFA22002392001218F8
:105650004B41002B02DA01220A4B524201210291F6
:1056600000210191084920000091FCF7E7FACEE7FC
:10567000F8270020D02700201828002038230020F9
:105680003C230020FFFFFF7F95530010D02310B56F
:105690001B0684B01C68FCF7CDFAFCF7CDFBA042DA
:1056A00002D0002004B010BD284B002100201B7840
:1056B00001F066FD26480368002B44D00120FCF76A
:1056C00051F8FF23234C244920701840FBF7E0FEDB
:1056D00020780121FBF7A6FE0520FBF7C9FE002874
:1056E00024D1082200211D48FDF780FFFCF7A2FA13
:1056F0000400FCF729FDFA220023920012184B4106
:10570000002B02DA0122164B5242012102910021A4
:105710000191144920000091FCF790FA0028C0DBA9
:1057200011480121FFF760FC0120BBE70120FBF7D6
:1057300037FE01000948FCF775F8002205200B49E7
:10574000FBF7D0FEECE7FCF751F8B7E76C910010DF
:10575000F827002017280020C9550010D027002066
:10576000FFFFFF7F9553001050110020855300105C
:1057700010B5002001F05CF910BDC046004870472C
:10578000508F001000487047FC8E001010B50400C8
:1057900016480378002B20D0002C06D1144B154856
:1057A0004380063BFF3B038010BD052C1CD8124BE9
:1057B000A400E4580F480123811C013C04E001339C
:1057C0000A800231142B0CD0E25C002AF7D1C022EF
:1057D000DBB25B0092001343E5E7112100F016F8FD
:1057E000DAE7CA239B00DEE70020DDE7002800207F
:1057F0000904000070230020E48E001010B5024858
:1058000000F0F4F810BDC046E827002030B50129AB
:1058100000D1BBE0744B01391A78121114003034F6
:10582000092A00DDB5E00470012900D1DAE00F2279
:105830001C78224014003034092A00D9ACE04470AE
:10584000022900D1CEE05A78944612111400303467
:10585000092A00DDA3E08470032900D1C2E0644678
:105860000F22224014003034092A00D99AE0C47073
:10587000042900D1B6E09A7894461211140030340D
:10588000092A00DD91E00471052900D1AAE06446EF
:105890000F22224014003034092A00D988E04471D4
:1058A000062900D19EE03025AC46DC7822119444D4
:1058B000092A00DD7FE062468271072900D191E06C
:1058C0000F22224014003034092A00D977E0C47135
:1058D000082900D186E03025AC461C792211944479
:1058E000092A00DD6EE062460272092900D179E0E2
:1058F0000F22224014003034092A67D844720A2942
:1059000000D16FE03025AC465C7922119444092A1D
:105910005FDC624682720B2964D00F2222401400A1
:105920003034092A59D8C4720C295BD03025AC46D2
:105930009C7922119444092A02DD0735AC4694442F
:10594000624602730D294DD00F22224014003034DC
:10595000092A01D93732140044730E2942D0DA796A
:1059600013111C003034092B01DD37331C00847304
:105970000F2937D00F2313401A003732092B01D8D3
:1059800030331A00C27310292CD01030002303705A
:1059900030BD3732140046E7373214004FE7373254
:1059A000140058E73732140061E7373214006AE711
:1059B0003732140073E70735AC4694447BE737323F
:1059C000140084E70735AC4694448CE73732140062
:1059D00094E70735AC4694449BE737321400C47211
:1059E0000C29A3D14018D1E7E827002010B588B0D2
:1059F00004000D2200216846FDF7F8FD0D2200216C
:105A000004A8FDF7F3FD4B236A466846137004A90A
:105A10000D2202F031FE1521082220006944FDF715
:105A2000EBFD08B010BDC046F8B500F047F90C23F7
:105A3000194DFF22AB6705201849FBF753FD184CA1
:105A4000402200212000FDF7D1FD40270023012640
:105A50002121144A66702783A260136063545F316A
:105A6000618445396354104A10496360E2602787B6
:105A7000A1620B606362E26202F00EFE80239B056E
:105A80002E64EB6490230A4A0120EA508022094BDD
:105A90005202DA64F8BDC0460000115035060020FD
:105AA000AC230020840010500001105080001050E2
:105AB00010D001000020115010B501210520FBF786
:105AC000B1FC10BD10B500220021024800F016F90B
:105AD00010BDC046CC230020044B1970002904D00F
