:020000041000EA
:1000000000B5324B212058609868022188439860DF
:10001000D860186158612E4B002199600221596106
:100020000121F02299502B49196001219960352056
:1000300000F044F80222904214D00621196600F024
:1000400034F8196E01211966002018661A6600F04E
:100050002CF8196E196E196E052000F02FF8012189
:100060000842F9D1002199601B49196000215960AB
:100070001A491B48016001219960EB211966A021F2
:10008000196600F012F800219960164914480160C1
:100090000121996001BC002800D000471248134993
:1000A000086003C880F30888084703B5996A0420EC
:1000B0000142FBD001200142F8D103BD02B5186610
:1000C0001866FFF7F2FF186E186E02BD00000240BE
:1000D000000000180000070000035F00212200005C
:1000E000F4000018222000A00001001008ED00E03C
:1000F00000000000000000000000000074B24E7A12
:1001000000200420F7010010CB010010CD010010E9
:10011000C9010010C9010010C9010010C901001077
:10012000C9010010C9010010C9010010CF01001061
:10013000C9010010C9010010D1010010D301001045
:10014000C1010010C1010010C1010010C101001067
:10015000C1010010C1010010C1010010C101001057
:10016000C1010010C1010010C1010010C101001047
:10017000C1010010C1010010C1010010C101001037
:10018000C1010010C1010010C1010010C101001027
:10019000C1010010C1010010C1010010C101001017
:1001A000C1010010C1010010C1010010C101001007
:1001B000C1010010C1010010C1010010C1010010F7
:1001C000EFF30580103800BE00BE00BE00BE00BECA
:1001D00000BE00BEF2EB8871D8890010F8890010CB
:1001E0003802001090A31AE71E481F49086006C88D
:1001F00081F3088810471D480068002801D019487D
:10020000F3E70DA40ECC002902D000F012F8F9E7B4
:100210001749184A002000E001C19142FCD116495B
:100220008847164988471649884700BEFDE701C937
:1002300001C29A42FBD37047F8890010C000002029
:10024000D816002010A00010000004200000042098
:1002500010A0001000100420001004200000000076
:10026000704700000000000008ED00E0000000D032
:10027000D81600204C270020D9470010D5020010C6
:10028000D1470010F8B5C04606480749091A8B1037
:10029000C90FC91810B5491003D0044B002B00D06A
:1002A000984710BDD8160020D81600200000000086
:1002B000054B10B5002B03D00449054800E000BFF2
:1002C000FFF7E2FF10BDC04600000000E826002056
:1002D000AC81001010B500F073FB00F0E1FBFCE70F
:1002E000D02280211206536809010B4205D08023D9
:1002F000DB00936153680B42FCD1C31300D02EE1A5
:10030000D02302221B069A61D02308221B065A61C1
:100310009A61420400D593E002229A61D023082218
:100320001B065A619A61820400D593E002229A6109
:10033000D02308221B065A619A61C20400D593E0BB
:1003400002229A61D02308221B065A619A61020593
:1003500000D593E002229A61D02308221B065A613D
:100360009A61420500D593E002229A61D0230822C7
:100370001B065A619A61820500D593E002229A61B8
:10038000D02308221B065A619A61C20500D593E06A
:1003900002229A61D02308221B065A619A61020642
:1003A00000D593E002229A61D02308221B065A61ED
:1003B0009A61420600D593E002229A61D023082276
:1003C0001B065A619A61820600D593E002229A6167
:1003D000D02308221B065A619A61C20600D593E019
:1003E00002229A61D02308221B065A619A610242B6
:1003F00000D093E0063A9A61D02308221B065A6186
:100400009A61420700D593E002229A61D023082224
:100410001B065A619A61063A024200D093E09A6143
:10042000D02308221B065A619A61C00700D493E0CA
:1004300002225A61D02308221B065A619A61704732
:1004400002225A61D02308221B065A619A61820453
:1004500000D46BE702225A61D02308221B065A619E
:100460009A61C20400D46BE702225A61D0230822A9
:100470001B065A619A61020500D46BE702225A6199
:10048000D02308221B065A619A61420500D46BE70B
:1004900002225A61D02308221B065A619A61820502
:1004A00000D46BE702225A61D02308221B065A614E
:1004B0009A61C20500D46BE702225A61D023082258
:1004C0001B065A619A61020600D46BE702225A6148
:1004D000D02308221B065A619A61420600D46BE7BA
:1004E00002225A61D02308221B065A619A618206B1
:1004F00000D46BE702225A61D02308221B065A61FE
:100500009A61C20600D46BE702225A61D023082206
:100510001B065A619A61024200D16BE702225A61BE
:10052000D02308221B065A619A61420700D46BE768
:1005300002225A61D02308221B065A619A61063AA8
:10054000024200D16BE75A61D02308221B065A6190
:100550009A61C00700D56BE702229A616AE7D0234F
:1005600002221B065A61D02308221B065A619A6197
:10057000420400D564E7CFE6D0228021F0B5D6460C
:100580004F464646120653680901C0B50B4205D0D6
:100590008023DB00936153680B42FCD1D0241023ED
:1005A0002406A3610120002101F04AFA802360683B
:1005B0006361A361626863619046A361626863617D
:1005C000A36167686361A36166686361A361944620
:1005D00062686361A36165686361A3619246626852
:1005E0004146914601228009890910401140890144
:1005F000C0010843494689091140084361468909F9
:100600001140490108435146BF091740B6093F014F
:10061000164089093843F600AD09114030432A409D
:1006200089000843520063611043A361E0BCBA46ED
:10063000B146A846F0BDC046D022802112065368BC
:10064000090170B504000B4205D08023DB009361E3
:1006500053680B42FCD1D02510232D066B6101207D
:10066000002101F0EDF9E31146D10433AB61D02351
:1006700008221B065A619A61620646D404229A61D6
:10068000D02308221B065A619A61A20646D404228E
:100690009A61D02308221B065A619A61E20646D469
:1006A00004229A61D02208231206536193612342E7
:1006B00046D1043B9361D02308221B065A619A61FC
:1006C000043A224246D19A61D02308221B065A617D
:1006D0009A61A20746D404229A61D02308221B06FD
:1006E0005A619A61E40746D504225A61D023082250
:1006F0001B065A619A6170BD04236B61D0230822E6
:100700001B065A619A616206B8D504225A61D02349
:1007100008221B065A619A61A206B8D504225A61C2
:10072000D02308221B065A619A61E206B8D504223A
:100730005A61D02208231206536193612342B8D034
:1007400004235361D02308221B065A619A61043A9C
:100750002242B8D05A61D02308221B065A619A61FE
:10076000A207B8D504225A61D02308221B065A6179
:100770009A61E407B8D404229A61B7E7F0B5DE467F
:10078000574645464E468020E0B5000283B002F051
:100790002BFC019000F092F980231B0198468023E6
:1007A000DB009B461023D0240026022708259A460A
:1007B00024064146019BB2B29B5D994663680B4299
:1007C00005D05B46A361414663680B42FBD1A7613C
:1007D0006561A561730400D5F0E0A7616561A5615D
:1007E000B30400D5E8E0A7616561A561F30400D515
:1007F000E0E0A76143466561A5611E4200D0D7E0F5
:10080000A7615B466561A5611E4200D0CEE0A7618D
:100810006561A561B30500D5C6E0A7616561A56105
:10082000F30500D5BEE0A7616561A561330600D57B
:10083000B6E0A7616561A561730600D5AEE0A7616A
:100840006561A561B30600D5A6E0A7615346656161
:10085000A561334200D09DE0A7616561A561354285
:1008600000D095E0A7616561A561730700D58DE0B3
:10087000A7616561A561374200D085E0A761656128
:10088000A561D20700D57DE0A76142466561A561FB
:100890006368134205D05B46A36142466368134216
:1008A000FBD1534601206361002101F0C9F84B469A
:1008B000DB0964D10433A3614B466561A5615B0626
:1008C0005AD40423A3614B466561A5619B0650D4AD
:1008D0000423A36153464A466561A561134245D18D
:1008E0000423A3614B466561A5611D423BD10423EE
:1008F000A36104234A466561A561134231D1A36116
:100900004B466561A5611F4228D10423A3614B4674
:100910006561A561DB071ED40423A3618023013632
:1009200065611B02A5619E4200D042E7019802F07A
:100930006DFBD024802320252406DB006361642026
:10094000A56101F091F8656103B0F0BCBB46B24609
:10095000A946A046F0BD04236361DFE70423636179
:10096000D5E76361CCE704236361C2E704236361D5
:10097000B8E704236361ADE704236361A3E70423BD
:10098000636199E7676180E7676178E7676170E7AE
:10099000676168E7676160E7676157E767614FE72D
:1009A000676147E767613FE7676137E767612FE79F
:1009B000676126E767611DE7676115E767610DE716
:1009C000F0B5D6464F464646D024C0B5012724068A
:1009D000002000F0B5F90120A76200F0B1F9022370
:1009E0000220636200F0ACF904230320636200F08C
:1009F000A7F9082304206362994600F0A1F91023A7
:100A000005206362984600F09BF92023062063626C
:100A10009A4600F095F940230720A36200F090F970
:100A2000802680230A206362F60000F089F9802581
:100A30000B20666200F084F953462D01A5626661C1
:100A400063614B46A3614346A36100F057F86368B6
:100A50001F4206D1FFF792FEE0BCBA46B146A84657
:100A6000F0BD8020000202F0BFFA636807002B424D
:100A700003D0A66163682B42FCD1380000F028F84F
:100A8000380002F0C3FAD024802320252406DB009E
:100A900063616420A56100F0E7FF6561DAE7C046A5
:100AA00000B591B04021684600F02CF8002801D133
:100AB00011B000BD684600F063F8F9E7802210B578
:100AC0000249120202F0B4FA10BDC04600803F1085
:100AD000F8B50400EFF3108772B68026FE253602C3
:100AE000AD033100280007F007FB32002100280089
:100AF00007F0EAFA87F31088F8BDC04610B503F096
:100B00009DFF10BDF8B50500002901D10020F8BDFA
:100B10004E1E012930D00024002C1BD1002003F0F0
:100B200091FF831CF2D00A2821D00D281FD003008A
:100B3000203B5E2B0AD8671C2855BE4212D90F48AD
:100B400003F080FF831C06D03C00ECE7A642E3D80C
:100B5000270007E02700094803F074FF831CF3D146
:100B6000BE42F8D80120ED1900232B70CFE72D19D4
:100B7000631E9C41E0B2F7E70020F5E7A086010084
:100B8000F0B593B002AC01003F22200007F02CF832
:100B90003F2300225D4E20003100E25407F054F85C
:100BA000041E02D00378002B01D113B0F0BD5849C8
:100BB000002007F049F857490500200007F0AAF87F
:100BC00000283ED02000544907F0A4F8002833D173
:100BD0003100280007F038F8041E77D0102201A950
:100BE00006F0F6FF019B05009C4252D080235B0279
:100BF00098424ED23100002007F026F8041E6ED035
:100C0000102201A906F0E4FF019B06009C4253D08C
:100C1000FF2851D8ADB22800FFF762FBF0B2FFF712
:100C20000BFD2800FFF75CFBFFF7A6FC3B4B010028
:100C3000180004F027F8B8E72100394804F022F83A
:100C4000B3E72800310006F0FFFF051E3ED010225A
:100C500001A906F0BDFF019B9D4232D080277F0293
:100C6000B8422ED2310084B2002006F0EDFF061EFD
:100C700014D0102201A906F0ABFF019B9E4229D09F
:100C8000B84227D285B2AC422DD9264803F072FF74
:100C90008BE72100244803F0F5FF86E72000FFF7EB
:100CA0001FFBFFF769FC214B0100180003F0EAFF6E
:100CB0000A2003F013FF78E721001D4803F0E2FF4C
:100CC00073E72900184803F0DDFF6EE7194803F0C9
:100CD00051FF6AE73100184803F0D4FF65E7174871
:100CE00003F048FF61E7114E04E0202003F0F6FE18
:100CF0000134A4B22000FFF7F3FAFFF73DFC010036
:100D0000300003F0BFFFA542EFD1D1E7B081001062
:100D1000AC820010B48100104C8200106C82001074
:100D20009082001018820010D481001044820010BC
:100D300074820010BC810010F481001054820010F5
:100D40000123D0228340120693629361094A8300F3
:100D50009A1811684022514080320A400649C0006A
:100D60008C4663441A60054B9C46052360444360EF
:100D70007047C04604C0014004D00140004001401B
:100D80008023DB051868000F7047C0460FB400B51C
:100D9000084883B003F0EEFE049B002B07D005A9A2
:100DA0001800019103F0E0FC034803F0E3FE01208A
:100DB00003F0F2FCB08200107082001070B5EFF307
:100DC000108C72B60D4D2B68002BFCD0BFF35F8FDB
:100DD0000724CB08C618C05C01230C40A3401C00AC
:100DE0000440034207D118433070BFF35F8F2C607B
:100DF0008CF3108870BD1000FFF7C8FF2C0100D0E5
:100E0000F8B54746CE46884680B5EFF3108C72B6EB
:100E1000214D2C68002CFCD0BFF35F8F9A422CD858
:100E2000D4080727055D061901241740BC402C4251
:100E30001FD007210127894609E0D408055D06195E
:100E40004C4639001440A1400C00294211D0013217
:100E50009342F2D201204042BFF35F8F00220E4B3B
:100E60001A608CF3108800280FDBC0BCB946B0466E
:100E7000F8BD254310003570EEE7BFF35F8F002308
:100E80002B608CF31088012040424346002BECD0AD
:100E90000898FFF77BFFC0462C0100D0044A107869
:100EA000431CDBB2172B00D9102313707047C046C8
:100EB000D010002010B5064B064C82B00100009304
:100EC00018221F232000FFF79BFF02B010BDC04671
:100ED000C0820010702200200021044B044ABFF39E
:100EE0005F8F02C39342FAD17047C046000100D021
:100EF000800100D0054B064A1360064A1360536018
:100F00009360D360136153619361704780808080E8
:100F100000E400E004E400E01F2318401E3B83408F
:100F2000002905D0C021044A49005350136070477E
:100F3000802201498B50FAE700E100E00122824063
:100F4000034B1B6813405A1E9341D8B27047C046EA
:100F500000E100E001238340014A13607047C0466E
:100F600000E200E0064B10309B688000C358054A41
:100F700000209B1A2F229A424041C0B27047C046BF
:100F800000ED00E0D410002070B50D00EFF31086E6
:100F900072B60F4A1368002BFCD0BFF35F8F0D4B66
:100FA00010309B6884001B590B4A934203D09D422A
:100FB00001D001F049F8074B9B681D51BFF35F8FCB
:100FC000BFF35F8F0022024B1A6086F3108870BD5A
:100FD000240100D000ED00E0C1010010F0B557463B
:100FE0004E46DE464546E0B585B006000091170046
:100FF000EFF3108B72B66A4A1368002BFCD0BFF374
:101000005F8F0025674B5D579A46002D00DAA9E0F7
:101010006B00654C01935B199B009846A146C14447
:101020004B4652469B7910361370604BB6009B6856
:1010300099590B1B2F2B33D95D4B994200D0ACE053
:10104000019B42469C465B4B6544AD0063535A4B43
:101050000232A218043B9B1A1B05584A5B0D651906
:1010600013436B80564B0121AB80FF23AB71009B78
:10107000EF71AB604B460B4319004C4B9B68995189
:10108000BFF35F8FBFF35F8F0022454B1A608BF376
:10109000108805B0F0BCBB46B246A946A046F0BDDC
:1010A00001200A008243D3798C46BB4231D84546A1
:1010B000130044491B1B5B415943090D3D4B6353CE
:1010C0003D4B02356519043B5B1B1B053B4D5B0D1E
:1010D0002B43AA464D466B800425AC465546E0445A
:1010E000131F44441B1B1B055B0D1D434B4699718D
:1010F00000999D8099604946DF71334B014313602D
:10110000BBE75800C01880002018C179B9422FD918
:1011100002000623D356002BF3DA02932B4B6146D1
:101120000393131D9A4604235B429C46E1445046B8
:101130004B461B1A1B055B0D9C46204B9571984630
:101140006346404603439380019B5A199200039BD8
:10115000A418A380029B1C4AA371009B2260E77124
:10116000A3608AE700F070FF002553465D574FE704
:10117000908802934005131D9A46031561469C46CC
:101180004046D444634604302018181AE023000572
:10119000400D1B0218430390C5E700F055FF4FE7D1
:1011A000240100D045270020D410002000ED00E0ED
:1011B000C101001000A1FFFF0411002000E0FFFFAB
:1011C00001BDFFFFAAAA00000148804701BD000041
:1011D00070B501240443EFF30581EFF3108C72B670
:1011E000214A1368002BFCD0BFF35F8F1F4B050013
:1011F0001F4AED1A6D416A43120D1E4D8900AE68FB
:1012000052B27658A6421CD00621595691421CD0A3
:1012100012215956914222D01E215956914220D076
:101220002A2159560324914210D0134B19781A7071
:101230008171BFF35F8F00220B4B1A608CF3108813
:1012400070BDAB680D4C5C50EFE7002461000919DC
:1012500089005B18FF21997109499980E5E701240C
:10126000F4E70224F2E7C046240100D0D4100020A5
:10127000AAAA000000ED00E045270020C1010010EF
:1012800001BDFFFF10B5084B084C82B00100009370
:10129000002205232000FFF7B3FD002801DB1F23F8
:1012A000181A02B010BDC046DC8200104927002089
:1012B000024B9C4661448900016070474000003445
:1012C00070B5114C114DAC420FD2FF262368002B94
:1012D0000CD0FFF7E3FD01002000FFF7E9FFA68037
:1012E000BFF35F8F0834AC42F0D370BDFFF7D6FD7B
:1012F00001002000FFF7DCFF2671BFF35F8F083489
:10130000AC42E3D3F1E7C046D0160020D816002047
:1013100010B50400FFF7C2FD01002000FFF7C8FF71
:10132000FF232371BFF35F8F10BDC04610B50400CB
:101330000120FFF7BFFD034BC3189B002360BFF3E1
:101340005F8F10BD40000034034B9C466144890010
:101350000160BFF35F8F7047400000340A4B19688B
:10136000EFF3108072B60A68002AFCD0BFF35F8FDB
:101370001B68BFF35F8F00221A6080F3108840BFA4
:10138000002000217047C04624270020F0B5DE462B
:1013900057464E464546E0B583B0EFF3058203233A
:1013A0001340B54A990052580091904601229A4044
:1013B0009346B24B1A60B24B01935B46B14843630C
:1013C000434608229B5E9946002B3ADA43469B88A7
:1013D0001BB2002B00DB9DE043469B79002B00D025
:1013E000E1E0434608241C5F002C20DB43465A6999
:1013F00063001B19DB00D3189D68DC686B1C00D1EF
:1014000003E1A048009984466144826A0B69AE1AE0
:101410009B1A9E4213D35A46036A1A420FD0994828
:1014200000F0C4FB8C4202DCC7D18542C5D940BF65
:1014300003B0F0BCBB46B246A946A046F0BD0D6164
:10144000EDE7424652695B0092464B44DB009A440A
:1014500053469E68DF6800F0A9FB8F42B6DC00D1DE
:10146000F8E0002F00DAD9E05246534654691B6970
:10147000019A934200D1CCE0414652460820085ED2
:101480005288000421001043984704000D002300F7
:101490002B4300D1C2E0002D00DBDFE0300039003B
:1014A000001BA94153469860D96000229A5E002A29
:1014B00000DA8BE743465D6953009C18E4002C1961
:1014C000A768E4688C4200DD80E702D1874200D93A
:1014D0007CE74646328108360DE08C4200D1C6E0FA
:1014E0001E000023F25E002A0ADB53009C18E40071
:1014F0002C19A768E4689B18DB00EB188C42ECDD24
:1015000053461A804B46338043469B881BB2002BC0
:1015100000DA61E743461A69EFF3108172B6136887
:10152000002BFCD0BFF35F8F43469E8801234246C9
:101530005B42938036B21369BFF35F8F00221A605B
:1015400081F31088002E00DA46E743465D690833D0
:1015500042469C467700BF19FF00EF19BB68604602
:1015600098460823D15E9246FC68002907DA0EE00F
:10157000A24246D018000023C15E002906DB4B00C2
:101580005B18DB00EB18DA68A242F1DD52460680F8
:101590000023FE5E3980002EDCDA904643469B79BC
:1015A000002B00D11DE70023424693714346464677
:1015B0000821595E08364B1C00D138E7474689465A
:1015C000556902E006004B1C18D04B005B18DB008D
:1015D000E8180A008C46E95E43881BB2002BF1DA5A
:1015E00001235B42DC178360C4604A4503D031802D
:1015F0003B8903803A81E1464B1CE6D1B8464C4614
:10160000F2E69A684245B5D9C0E7631C00D0F8E617
:1016100005E7200023699847002825D15346424614
:101620001B8813811269EFF3108372B611680029C9
:10163000FCD0BFF35F8F4246514652880A80424633
:10164000494651801269BFF35F8F0021116083F317
:101650001088BBE6864200D803E7B7E6094800F0E9
:10166000A5FA001969411DE7656824680FE78742FC
:1016700000D835E744E7C046082700203C70054005
:101680008D1300100040054070B52E4C2569002DCB
:1016900004D00A212C48FFF70BFE70BD2B4E03210E
:1016A000300000F079FAE660FFF7F8FB284B0322E0
:1016B0009C46D02322701B061B6801216370254BBA
:1016C0006044A3600F23800020610220638063696F
:1016D0004942A18019800231198647311D83585231
:1016E00018315A5275325C39995218320131995277
:1016F0001832013199521832013199520835183295
:101700009D520231183299521832013199521832D1
:1017100001319952183201319952183201319952DE
:101720001832013199520C4B0C49DC6001303562A2
:10173000FFF72AFC01210320FFF7EEFB084B1D6099
:10174000A7E7C0461C1100202427002000400540C8
:1017500040000034FFFF1000082700208D13001008
:1017600038600540004870471C110020F8B51F0084
:1017700008AB1B7804001600002B08D100F01EFAFD
:1017800032003B00121A8B41002B00DA53E0226931
:10179000EFF3108072B61368002BFCD0BFF35F8F9D
:1017A0000223E15E63694A005218D2009B180029A7
:1017B00037DB1A8862802269BFF35F8F00251560CE
:1017C00080F31088069A9E60DF601A61079A5A615A
:1017D0005A8801325204520C101C002A1FD082B2C7
:1017E0005880080410432669EFF3108772B63268F8
:1017F000002AFCD0BFF35F8FA2881A80A1802369E2
:10180000BFF35F8F00221A6087F310880B4923789B
:101810008C4601329A40E36863441A60F8BD0120A7
:10182000DDE72369BFF35F8F00221A6080F3108821
:1018300001204042F2E70020F0E7C0463C200000D3
:1018400070B501000469EFF3108C72B620680028AF
:10185000FCD0BFF35F8F02200D5E4C696800401919
:10186000C0002418002D37DB208848800869BFF3AA
:101870005F8F002606608CF31088E360638804980D
:10188000013320615B0405985B0CA26060611A1C47
:10189000002B1FD093B22804628018430A69EFF32B
:1018A000108C72B61368002BFCD0BFF35F8F8B884F
:1018B00023808D800B69BFF35F8F00221A608CF349
:1018C00010880B7801329A40CB6808498C466344F3
:1018D0001A6070BD0122DDE70B69BFF35F8F002244
:1018E0001A608CF3108801204042F2E73C2000008F
:1018F00010B543890A1493421ADD53009B184269BC
:10190000DB00D3180469EFF3108C72B62268002A4A
:10191000FCD0BFF35F8F5A88090494B2090C8A4245
:1019200008D00369BFF35F8F00221A608CF3108820
:10193000002010BD8022120214435C800123026942
:101940008371BFF35F8F002111608CF3108804490D
:1019500002788C469340C268012062441360E8E735
:101960003C20000040787047F0B504000D000626CA
:101970007642F717C64636196F4100B582B08F42DE
:1019800014D811D000F01AF932003B00121A8B4122
:10199000002B17DC002B47D02000290000F04CF969
:1019A00002B080BCB846F0BD8642EBD900220023CD
:1019B00016001F0000F002F932003B00121A8B41A2
:1019C000002BE7DD00F0FAF832003B00121A8B41E1
:1019D000002B0ADB00230193154B320000931548BE
:1019E0003B00FFF72DFF0028D6DB00239C46B046C6
:1019F000114A124E736A9F4204D8B16A8845CBD906
:101A00009F42C9D11168EFF3108072B60B68002BAA
:101A1000FCD0BFF35F8F1368BFF35F8F614619601F
:101A200080F3108820BFE5E7002AB5D0CAE7C0469A
:101A30005D1300101C1100202427002000400540E9
:101A400070B504000D0000F0B9F880230019694159
:101A50001B06994202D3012002494042FFF784FF4E
:101A600070BDC046FFFFFF7F70B5060000F0A6F80E
:101A7000FA2204000D00002330000021920001F042
:101A800051FA8023001969411B06994202D30120B3
:101A900002494042FFF768FF70BDC046FFFFFF7F6D
:101AA000F0B5D6464F464646C0B504000D0082B09C
:101AB000EFF305878946002F0ED0344900204B6A8A
:101AC000AB4203D38A6A0130A24226D302B0E0BC03
:101AD000BA46B146A846F0BD2D4B9846DB689A46FB
:101AE000434650461E7800F061F80B005146020054
:101AF0000436B600715820008E1A2900801A9941C8
:101B00008F4211DC0ED020BF204A0020536A4B4583
:101B1000DCD3926A0130A242D8D25B1B5A1E934199
:101B2000D8B2D3E78642EED900F048F822002B0065
:101B3000121A8B41002B1ADB00230193154B220054
:101B4000009340462B00FFF77BFE011E0FDD0F4B7D
:101B50005A6A4A4517D39B6AA34212D34046FFF7FD
:101B6000C7FE0A4A0020536A4B45AFD3D1E7074A64
:101B70000020536A4B45A9D3926A0120A242A5D204
:101B8000CBE74A45EAD120BFE8E7C0460040054020
:101B90001C1100205D13001010B5024A0248FFF727
:101BA0000DF910BDF8820010742200200300416A74
:101BB0000A00986A596A8A42FAD17047034B596AF7
:101BC0000A00986A596A9142FAD17047004005406C
:101BD00070B504000D00174A536A1900966A536ADB
:101BE0008B42FAD13000190024184D41AB4216D86F
:101BF00013D0104A2B00526A954203D90D494A6A04
:101C00009A42FCD39A4207D10A4A02E0516A9942A9
:101C100002D1916AA142F9D370BDA642E9D9054B20
:101C20005B6A1C005A1CEFD0012301246442E517B3
:101C30005B42E3E700400540064A536A9942FCD8FC
:101C400007D1044B02E05A6A914202D19A6A824259
:101C5000F9D3704700400540F8B5DE464E4657467A
:101C60004546E0B58B4605000A991800160000F0BD
:101C70003DFB0A9B6C001F02324B64199C46A4007A
:101C80006444636881469F4200D967602B1FDBB2C2
:101C90009846012B30D9C02380229B01E318120102
:101CA0001A60294BAD0059599A4600291BD173017E
:101CB000E026226853401E40802342465B01E31821
:101CC0001E60012A30D9802380229B01E318120173
:101CD0001A6053464A4667605A51F0BCBB46B2464A
:101CE000A946A046F8BD586900F000FB013043004A
:101CF0001B18033BFDD2DAE75B46012BCBD1C02397
:101D000003229B01E3181A60023AA3681A42FCD02E
:101D10007301E0262268AD0053401E4080230A4A2A
:101D20005B019246E3181E605A4621685140032227
:101D30000A401A6001225B469A40A3681A42FCD00E
:101D4000C1E7C0460080004078220020F0B546463A
:101D50004F46D646C0B51F00344B44009C4624185D
:101D6000A4006444636888461600FF2B02D88023D1
:101D70005B006360031FDBB29A46012B30D9C0239E
:101D800080229B01E31812011A60294B85005959E2
:101D9000994600291BD17301E026226853401E405A
:101DA000802352465B01E3181E60012A30D980234C
:101DB00080229B01E31812011A6080235B0063609C
:101DC0004B465F51E0BCBA46B146A846F0BD5869E3
:101DD00000F08CFA013043001B18033BFDD2DAE718
:101DE0004346012BCBD1C02303229B01E3181A6089
:101DF000023AA3681A42FCD07301E02622688500EB
:101E000053401E4080230A4A5B019146E3181E603E
:101E100042462168514003220A401A60012342468B
:101E20009340A2681342FCD0C1E7C0460080004046
:101E300078220020014B8000C05870477822002093
:101E4000F8B5040021481E0017000D0000F04EFAFE
:101E50000100380000F04AFA069B36041B031E43BB
:101E60002368002B20DB1A4B1A49E3185A1E9341B2
:101E70008022920194465B421B0B174A1B0363446A
:101E80001360164A13601F000A689743FBD1144B76
:101E90002560E2182123A06013602368002BFCDA80
:101EA0000823E6601360F8BD3F2322681340AB426D
:101EB000D9D1A3681B051B0D8342D4D1EE22E36860
:101EC000D2021340B342CED1EDE7C046001BB700AB
:101ED0000040FDBF08C0004000E0004000F00040AE
:101EE0000430000010B580241C4BE4051C60002861
:101EF0001AD001231A4C18431A4BDC611A4C444087
:101F00001C62596298628021144BC90519601748F8
:101F100017490860E021C9041960002A07D180220E
:101F2000144B12061A6010BD0E4BD861EBE753013B
:101F30009B1A9B009A18802312015B049A4209D2D3
:101F400013000D490B60074B5A608022094BD205E4
:101F50001A60E8E7094B1A00F3E7C04600B00540F5
:101F6000D3C007B0008005402D3FF84FFCFF0100B3
:101F70000820014000A00540E0260020FFFFFF00F0
:101F80008023024A9B000B43D362704700800540C8
:101F9000142310B50100188804331B88984710BD1E
:101FA000162310B50100188802331B88984710BD0E
:101FB000F8B54746CE4680B50F1E19D01423994672
:101FC000043304000025012698464B4618884346F2
:101FD00021681B88984701C4431E9841013540423F
:101FE0000640AF42F1D13000C0BCB946B046F8BDA2
:101FF0000126F8E7142370B50400188804331B8801
:102000000D000549984703000020002C01DB01303A
:10201000A04029009847C04655420000AA23064A1E
:102020001B0113608D235B00D3600449044B1960CE
:102030005368002BFCDA70470040024000B0FA0001
:10204000006002407047C04610B50148FEF79EFE92
:102050001C83001070B5074D074EB54209D200240D
:10206000013E761BB60808CD984723000134B342E1
:10207000F9D170BD68810010A4810010054B064A9B
:1020800006491A60064A074B1A6010000B6898430D
:10209000FBD1704700E00040BFCDFBFE08C0004010
:1020A000FE7F3C0000F00040044BDB6C002B03D1B2
:1020B0008022034BD2021A607047C04600001150C4
:1020C0004C201150044A054B1A60054A1368DB0185
:1020D0008033FBD17047C046FFFFFF0100F0004096
:1020E00008C000404022034B9A675A671A67DA66B5
:1020F0007047C04600F0014010B5FEF7EDFE10BD80
:10210000F8B52749274C284D641AA6103200302E06
:1021100000D930222800920000F08AFFBC2C3BD866
:1021200030202F232C196407204A801BE40F9B1BAF
:10213000052B16D93700002C02D0B300771CEA50CB
:10214000001B33199B004108EB18C900C9181A601D
:102150005A6008339942FAD1012303421CD09843B4
:10216000C619B300EA50731C2F2E15D09B00EA50FD
:10217000B31C2E2E10D09B00EA50F31C2D2E0BD03A
:102180009B00EA50331D2C2E06D09B00EA50731D95
:102190002B2E01D09B00EA50054B9D60F8BDC04638
:1021A00000010010C001001000000020C10100105B
:1021B00000ED00E0002310B5294C82B0A367FFF7C3
:1021C0002DFF0122274B1A60636C012BFCD10322E7
:1021D000254B1A60224A936B012BFCD101330093EB
:1021E0000121224A22480433FFF72AFE0523012158
:1021F0000093204A2048FFF723FE002202210420FA
:102200001E4BFFF7A3FD0022012105201C4BFFF709
:102210009DFD0022002107201A4BFFF797FD0022A9
:1022200000210820174BFFF791FD8023DB0000936E
:10223000002200210920134BFFF70EFD0022104B56
:1022400000210620FFF782FD0420FFF7F3FD0E4971
:1022500000F04CF801000020FFF792FE02B010BD24
:10226000008000403CB0004030B00040002F685972
:1022700000800240008C864700C00240001BB7006F
:1022800040597307006CDC0240420F0001480421F2
:10229000014B184740110020B11F0010124A936FE4
:1022A0009B0815D29066D166002905D0FFE7FFE7AD
:1022B000FFE7516F106F704704B580210906C21700
:1022C0005140002800D0C84305F006FF002104BD9E
:1022D000F0B5146E556E576F166FFFF7E3FF146677
:1022E000556657671667F0BD000000D0114A936F1E
:1022F0009B0813D210665166002905D0FFE7FFE75F
:10230000FFE7516F106F704704B5002801D000201F
:10231000C04305F0E1FE002104BDC046F0B5146ED7
:10232000556E576F166FFFF7E5FF146655665767D2
:102330001667F0BD000000D094464A4A926F92089A
:10234000624601D228E0C046F0B5464E346E756E46
:10235000776F366F00F020F89446424A146655664F
:10236000576716676246F0BD94463E4A926F9208E0
:10237000624601D254E0C046F0B53A4E346E756EF6
:10238000776F366F00F04CF89446364A14665566FF
:10239000576716676246F0BD002B24DB11D0002979
:1023A0003EDA00B5C943404200D1013100F038F8AF
:1023B000C943404200D10131DB43524200D10133D5
:1023C00000BD002AEBD1002801D1002905D0002052
:1023D000C90FC90701D1C043410800B505F06CFE23
:1023E0000022002300BD00B500290ADBDB43524276
:1023F00000D1013300F014F8C943404200D101314B
:1024000000BDC943404200D10131DB43524200D1FB
:10241000013300F005F8DB43524200D1013300BD27
:10242000002923D1002B18D1002A0CD0BC460D4F17
:1024300038667A6600210023FFE7FFE7FFE77A6F3F
:10244000386F67467047002801D00748010000B583
:1024500005F032FE0022002300BD02000B00002028
:1024600000217047000000D0FFFFFFFF002B00D0CD
:10247000BFE0130C28D1002AE7D080B4114F396691
:102480007A66FFE7FFE730B4040C7B6F396F1B04FB
:1024900023433B667A66FFE7FFE7FFE7C04684B267
:1024A0007B6F3D6F1B0423433B667A66FFE7FFE7C4
:1024B000C04600232C042D0C7A6F386F0019694137
:1024C000B0BC7047000000D0F0B594460025140E53
:1024D00001D112020835140F01D112010435940FF5
:1024E00001D192000235D40F01D152000135D40B35
:1024F0000134254F7C66254C3C660E0C93B2FFE7F9
:10250000FFE7FFE73C6F6643360C7703BE46734335
:10251000DF0B5B04C01AB941130C7343DB18C91AF3
:10252000CE086643360CB64493B273431F0F1B01AB
:10253000C01AB941130C73431F0B1B05C01AB941D4
:10254000860D8F023E436643360C092D24DB520A6A
:102550007243801A7703460A6643360C16235B1BC8
:10256000DE40DF40BF1964466643821B7046043577
:1025700006330100D940A840C01900D30131A2425E
:1025800006D20023F0BD0000000000D0FFFFFFFFD7
:10259000121B0130F3D3F1E709277F1BFE4064468D
:1025A000A2B27243801A00D20139220C7243130C7A
:1025B0001204821A99410B0070460435133701004A
:1025C000F940A840801900D30131002B02D1A2426A
:1025D0000AD2F0BD013000D30131121BFAD2013B07
:1025E000F8D1A24200D2F0BD013000D30131121B5C
:1025F000F7E7F0B51C0C00D080E00CB400251C0AF5
:1026000004D11B02160E3343120208351C0B04D1F1
:102610001B01160F3343120104359C0B04D19B00A0
:10262000960F334392000235DC0B02D192185B41C6
:1026300001351C00971864410134464F7C66464CB6
:102640003C660E0CFFE7FFE7FFE7C0463C6F6643C2
:10265000360C7703BE4697B27743C01B00D20139D0
:10266000C01B00D201399FB27743C91BC91B170C8D
:1026700077437E04FF0B801BB941CE086643360CBE
:102680000C2D33DBB644120B1F053A431B0B97B2DC
:102690007743C01B00D201399FB27743C91B170C87
:1026A00077433E043F0C801BB941860D8F023E43A9
:1026B000664329277F1BFE400C3D7746AF40BF197C
:1026C00030BCA2B2ABB272437343801A9941220C60
:1026D0007243130C1204801A994102000B00013757
:1026E000001BA941F9D2781E0021F0BD0C277F1BE9
:1026F000FE4077467F0BAF40FF19E0E700245D1CEA
:1027000007D0144F7D663966FFE7FFE7FFE7FFE775
:102710003C6F95B29EB265436643401BB141150CB8
:102720001E0C6543664336042F0C3E432D04401BAC
:10273000B141994204D202000B0020000021F0BDFB
:1027400001D19042F7D3801A994101349942F2D3D2
:10275000F6E70000000000D0FFFFFFFF48404140C7
:10276000484018B41B4B5B68FC46019308BD04DF6E
:10277000F729001018B4174B1B68FC46019308BDDD
:1027800000DF012A00109446134A926F920809D282
:10279000624618B40F4BDB68FC46019308BD0CDFA2
:1027A000B92C00100C4AF0B5146E556E576F166FA9
:1027B0006246FFF7EEFF084A1466556657671667CC
:1027C000F0BD18B4034B9B68FC46019308BD08DFBD
:1027D0005D2B001060180020000000D0FFB55040B5
:1027E0004240504059404B40594000E0FFB5154F22
:1027F0004C00640D03D0BC4204D10C0314D800205B
:10280000090D09055C00640D03D0BC4204D11C0312
:102810000AD800221B0D1B0501264B4009D44B4052
:1028200003D58B4200D18242FFBD9942FCD1904238
:10283000FFBD0B43DB1803431343F5D0C9434918CD
:10284000FFBD0000FF07000000B5FFF7CFFF80418C
:1028500000BDC04600B5FFF7C1FF01D9002000BD93
:10286000012000BD00B5FFF7B9FF804100BD012088
:1028700040054A00121804D85A00121801D8002046
:1028800070470120704700000021002805D17047E3
:10289000C1174840401AFAD0C90713B5064B1B6848
:1028A00098470CBC441CA2401005120B0349091B9D
:1028B00009051943114310BD202700201F04000003
:1028C00010B54C00620D8023D218DB00D21A5B05D4
:1028D0007E2A10DD9E3A13DACC1709034908194302
:1028E0005242D140640001341532202A05DAD0402A
:1028F0000843604310BD002010BD0846604310BD72
:10290000C80FC018013810BD18B4044B5B6AFC46F0
:10291000019308BD24DF692E00100000601800201C
:10292000132370B51D78012D19D014DD1F48FFF752
:1029300037FB06001E48FFF733FB1E4C8022310098
:10294000200000F075FB022D2DD01B48FFF720FB67
:102950001A4B186070BD1A4B164CA364F5E7184B60
:10296000144C23606360A360E36023616361A3612F
:10297000E36123626362A362E36223636363A3632D
:10298000E36323646364A364E36423656365A3650D
:10299000E36523666366A366E36623676367A367ED
:1029A000E367A364D1E7064BA364CEE7534400007A
:1029B00053460000601800204C3300002027002000
:1029C000C529001007B5604601880A0A0230DF2ACF
:1029D000FAD1C9B2820804D30288408800041043A7
:1029E00000E00068014A5050039007BD60180020C5
:1029F0000FB403BC0CBCF0B50124E407634000E055
:102A0000F0B50C0DCF0F661E3605891B640503D388
:102A1000C943404200D30131640D03D0661CF60A5D
:102A200007D0E41B00207F00791C89078912803CB5
:102A300024031D0DDF0F6E1E36059B1B6D0503D392
:102A4000DB43524200D301336D0D03D06E1CF60AF6
:102A500007D0ED1B00227F007B1C9B079B12803D53
:102A60002D032F1B661B58D4A446202E46DA203790
:102A70001400BC401D00BD40F24033412A43801881
:102A80005941CB0F05D0C943C04300226442504195
:102A9000514162464D0D28D10D0D07D100281FD0A0
:102AA000241940414941013A0D0DF9D0640006D383
:102AB000013000D30131002C01D140084000013A1F
:102AC0000BD4941CE40A04D112051144DB07194409
:102AD000F0BDD907204B194300E0D9070020F0BD15
:102AE0000029DDD1002CDBD1F0BD0132C607400842
:102AF000CD0728434908002EE1D0D9E73C2E29DA3A
:102B0000203E40371400BC4000D00124F240144362
:102B10001A00BB401C43D317ACE7AC46202F08DAA1
:102B200020360400B4400D00B540F8403941284338
:102B3000A5E73C2F0CDA203F40360400B44000D01B
:102B40000124F84004430800B1400C43C117EAE7F0
:102B500010001900002494E70000F07FF0B50C0D80
:102B6000661E3605891BE60A6405640D02D0651CE5
:102B7000ED0A04D0002001210905803C2403A4466D
:102B80001C0D671E3F05DB1BE70A6405640D02D0C0
:102B9000651CED0A04D0002201231B05803C2403A0
:102BA0007740644497B484B296B27443070C7E4372
:102BB000150C6F4380B26843361802D3012000041D
:102BC0003F183004350C00197D41844688B29AB212
:102BD00050430C0C62431F0C7C438EB27E4392190F
:102BE00002D301263604A4191604170C36186741BF
:102BF00001BC81B29AB25143040C62431B0C5C438A
:102C000080B25843121802D3012000042418100483
:102C1000130C401863412D185E410020474106BC4B
:102C200088B293B258430C0C6343120C544389B2DC
:102C300051435B1802D301210904641819041A0CCA
:102C4000091862416D1856410020474118BCF9022D
:102C5000720D1143F0026A0D1043ED020A0D03D10B
:102C60006D1940414941013B124E9B1B7600B34216
:102C70000ED26D0007D30130002671416646354300
:102C800001D1400840001B05C918E4072144F0BDEC
:102C90000BDA013306D1013004D101314F0D01D0DF
:102CA0004908F2E7E1070020F0BD013631050020B8
:102CB000EBE70000FF030000F0B51C0D671E3F05A9
:102CC000DB1BE70A6405640D02D0661CF60A04D01B
:102CD000002201231B05803C2403D0252D0600265D
:102CE000F6432E661E096E66CE0FF619B4464900ED
:102CF0004F0D02D07E1CF60A03D000200021403F79
:102D00003F033E1BB600B444013F7F05C91B490881
:102D10002E6F013676089C02950D25437543ED1301
:102D20007543AD1301356D10F603761B0CB4CC0260
:102D3000450D2C43A2B2B3B25A43270C7B43350C4A
:102D40006F43A4B26C431B1902D3012424043F191E
:102D50001C041D0CA4187D4124196D41009A91B2E8
:102D6000ACB26143170C7C432B0C5F4392B25A43C5
:102D7000A41802D301221204BF182204230C5218F3
:102D80007B41019C6C431B19520ED9010A4344013B
:102D9000A01A81B2B2B2514303145A43360C7343A2
:102DA00087B27743D617D21900277E4136049B1984
:102DB0001704160C7F185E417316ED18F3010026F8
:102DC00080337541A90F06D16400690AE8055B0AE2
:102DD000184309D22FE00422944480337541A90A94
:102DE000A8059B0A184326D3404149412404009A70
:102DF000019B0D005543641B4343E41A95B286B210
:102E00007543170C7E43030C5F4392B25A43B618C6
:102E100002D301221204BF183204330C52197B4131
:102E200052429C41002C02D4002201305141400802
:102E3000CA071043490802B06246D7079210084BF0
:102E4000D218084B9A4203D212058918C919F0BD4D
:102E50000020002A01DC3900F0BD01331905F5E737
:102E6000FD030000FE070000002200B5203200F044
:102E700004F8080000BD000000220B150AD410B5AC
:102E8000944600F031F81414013400DA0021CB1715
:102E9000144C20470020002170476244343A0CD47F
:102EA0000C2A07DA04009140904052422032D4406C
:102EB000214310BDD843D94310BD203207D40C465E
:102EC0009440524220321141D040204310BD0800AE
:102ED000C917203203D452422032104110BD1800CD
:102EE000190010BD9B2E00100A0DCC0F531E1B05A0
:102EF000C91A520503D3C943404200D30131520DD0
:102F000003D0531CDB0A07D0121B00206400611C95
:102F100089078912803A1203014BD21A70470000C8
:102F2000FF03000051434343C9188C46110C83B280
:102F30004B4310B4040C614392B280B250436243DD
:102F40001C041B0C001910BC59411304120CC018AE
:102F50005141614470470000132310B512481C789A
:102F6000FFF71EF80100012C0AD003DD80220F4874
:102F700000F05EF80E48FFF70BF80E4B186010BD1E
:102F80000A4C5422200000F053F80B4B6365A365F4
:102F9000E36523666366A366E36623676367A367E7
:102FA000E3672362E361E5E7534600006019002010
:102FB0004C33000020270020BD2F001007B56046CD
:102FC00001880A0A0230DF2AFAD1C9B2820804D382
:102FD000028840880004104300E00068014A505015
:102FE000039007BD6019002010B5040004F048FAF2
:102FF000002804D0034B04199C4200D810BD02489D
:10300000FDF7C4FE000004202883001010B504F072
:1030100041FA10BD01480421014B1847501100200E
:10302000B11F0010014B1B68184700005011002011
:10303000014B5B6818470000501100207047C046E4
:10304000F8B55746DE464E464546E0B599460A9BDA
:1030500007009A460D9B884693460B9C9B073BD1E5
:103060000C9B9C423DD21E1B0B9415000C005E4431
:103070002A004B46013521002020B847B542F7D140
:10308000A0460B9C002C20D0454636195346321BD7
:10309000013C185D29004B46B847002CF6D12B00A7
:1030A000350098460D9B9B070FD55B46EC1A0C9B91
:1030B000A3420AD9464698462A004B4631002020B2
:1030C0000134B84701354445F6D32800F0BCBB466F
:1030D000B246A946A046F8BD16001500002CD3D173
:1030E000E0E71600002CCFD11500EEE7F0B54F4613
:1030F0004646D646C0B584B098460EAB1B7894467B
:103100009946129B0D9C109F119E9A0725D4002E64
:1031100065D1BC4221D201221A409246202C00D116
:10312000E9E00C9A551E302202E0202C00D17BE011
:1031300001342A55A742F8D85246002A0DD0B4428D
:103140000BD20C9A551E3022202C02D171E0202C7B
:103150002DD001342A55B442F9D1DA063CD55A05AE
:103160002ED4002C28D10F9A102A00D1B6E0022AC2
:1031700000D1BCE030220C9C227001244A46002A77
:1031800065D15A0700D499E02B220C9D2A550134B1
:1031900003930C9B62460093029643460194FFF70B
:1031A0004FFF04B0E0BCBA46B146A846F0BD2024AB
:1031B000DA06EDD55A0503D4A74266D0B44264D0EE
:1031C0000F9A102A71D0022A57D0202CE0D022006A
:1031D000013430250C9FBD54202CD9D0CEE70122DC
:1031E00015001D40AA461A4236D04A46002A4AD146
:1031F0000C321A4247D1BC42A1D2202C91D1202EB0
:1032000017D82024DA06C3D55A051BD4202F01D0A5
:10321000202ED5D11F220F9D102D6FD0022DD8D179
:1032200062250C9FBD54D0E75246002A79D0202E4B
:10323000BDD92024DA06ABD55A0503D4202FE9D016
:10324000202EE7D00F9A102AA2D12024A0E72D2209
:103250000C9D2A5501349BE7BC4200D37DE7202C0E
:1032600000D05EE7DA06F0D55A05EED4202F62D002
:10327000202EEAD134001F22CDE7202C00D187E791
:1032800022000134CCE7013EB5E7621E012CC2D119
:103290000F9A102A00D06AE79A063BD558220C9C58
:1032A0002270283A6270022468E79A060ED4202C15
:1032B000CBD078220C9D2A55013486E71A0700D41A
:1032C00066E720220C9D2A55013461E7202CBCD0F2
:1032D00058250C9A12191570013476E79A0608D50C
:1032E00058220C9C227030226270022446E7603221
:1032F000F7E77822F5E7002A83D1B3E7A21E013C65
:103300009D0603D478250C9FBD5460E758250C9F7B
:10331000BD545CE778220C9C2270483A627002240B
:103320002CE7DA0600D433E75A058BD4202F00D0DF
:1033300044E71F226FE73C001F226CE710B500280E
:1033400000D110BD01F0CAFBFBE7C0460B0010B571
:10335000002802D049681B68984710BDF0B5574651
:103360004E464546DE46E0B599B0824689469046CF
:103370000893229A239B10001900FFF778FA00287F
:1033800000D0CDE0229823990122D94B5242FFF779
:1033900069FA002800D0C3E0229823990122D54B76
:1033A0005242FFF751FA002800D0B9E02298239941
:1033B00000220023FFF748FA002800D0F1E1229E06
:1033C000239F8023269ADB001A400D92269A1A42E8
:1033D00001D1062324938023269A1B011A403B0027
:1033E00093460996334300D0B3E0002A00D0C2E1EF
:1033F000002300240A930B94002304250993259BA2
:103400000024AB4200D95C1B0223269A1A400C927E
:10341000269A134203D06B426B415B421C40099BCE
:10342000002B07D00A9A0B9B30003900FFF7ABF94D
:1034300006000F002298239900220023FFF704FAC8
:10344000002803D0802109067B181F00269AAA4B6A
:10345000009601971340089E0493249B03940293C3
:10346000424633004946504600F0AAF90400002DB8
:1034700067D02020269A4946024013005A42534101
:103480005B42621C18400A92330022004530D0474C
:10349000099A6F1ED317D4185C40D30F9B460025A2
:1034A00001E0202D13D008AA94461F232000634476
:1034B0000A2101355E19FEF719FF30313170200005
:1034C0000A21FEF713FF26000400092EE9D8052380
:1034D0000693002304930A3303935B46089E0293EA
:1034E00010AB0A9A00934946330050460597019560
:1034F000FFF7FCFD0C9A0400002A22D04246851AF0
:10350000259AAA421DD9B0465746160022004346C6
:10351000494620200135B8470134AE42F6D810E0C4
:10352000269B42460493259B49460393249B504681
:103530000293229B239C00930194089B00F040F986
:103540000400200019B0F0BCBB46B246A946A04614
:10355000F0BD6A4B78009C46400D6044FFF798F937
:10356000674A684BFFF72DF9674A684BFFF702F986
:10357000674A3B031B0B1A4304000D000998110016
:10358000644B0022FFF7EDF8634A644BFFF719F92B
:1035900002000B0020002900FFF7ECF8FFF790F97C
:1035A0000990FFF775F95E4A5E4B04000D00FFF7C6
:1035B00008F900225C4BFFF7DDF8FFF781F95B4A61
:1035C0005B4B29000C902000FFF7FBF804000C98DF
:1035D0000D00FFF75DF9574A574BFFF7F2F802006D
:1035E0000B0020002900FFF7BCF804000D000200CA
:1035F0000B000A940B95FFF7E4F804000D000A98FD
:103600000B9902000B00FFF7B5F800220E900F9106
:103610004A4B20002900FFF7B6F80022484BFFF77D
:10362000A9F802000B0020002900FFF7ACF80022E7
:10363000444BFFF79FF802000B0020002900FFF722
:10364000A2F80A9A0B9B0D0080210400C9050020F6
:10365000FFF787F802000B0020002900FFF78AF827
:1036600002000B000E980F99FFF78DF80022284BEF
:10367000FFF780F8344B0C9C9C46644423050022E1
:10368000FFF79FF804000D0002000B003000390026
:103690000A940B95FFF7D8F800285DD123002A0083
:1036A000C625099963318D42AD4159466D420435B5
:1036B000002900D1A3E6134363D030003900234A28
:1036C000234BFFF7C7F8002807D00022300039004D
:1036D000204BFFF7B9F8002853D1249B002B00D1D1
:1036E0008DE60D9B5A1E9341249AD31A249386E6A5
:1036F000FFFFEF7FFFFFEFFFFFF7FFFF01FCFFFF83
:10370000FB799F501344D33FB3C8608B288AC63FD0
:103710000000F03F0000F83F61436F63A787D23F8E
:1037200071A379094F930A400000E03F1655B5BBDD
:10373000B16B0240EF39FAFE422EE63F00002C400A
:103740000000244000001840FF0300002D431CEB44
:10375000E2361A3F80842E41099B0022013B0993E7
:103760002000164B2900FFF70EF80A0001000300A5
:103770000A910B9294E7002300240A930B940023F0
:103780000993249A099B9A4214DDD31A013B24938E
:103790008023269ADB001A430023002526920993F2
:1037A0002DE6802212069446229B1E00239B634432
:1037B0001F0006E600232493EAE7C04600002440E9
:1037C000F0B54546DE464E465746E0B595B08B46C9
:1037D000904699461E9A1F9B0A9019001000209D42
:1037E000FFF745F8002800D0B0E11E981F9901228C
:1037F000C74B5242FFF728F8002800D037E11E9847
:103800001F990122C34B5242FFF72CF8002800D029
:10381000A7E01E981F990022BF4BFFF723F800284E
:1038200000D088E01E981F990022BC4BFFF70CF8CF
:10383000002800D07FE01E981F9900220023FFF788
:1038400003F8002800D0FAE000230B938023229C89
:10385000229ADB001C401A4200D102E1092D00D857
:103860007CE106A98C462C00172200233021093C5C
:1038700062440133D154EF1A202B00D132E1A3422C
:10388000F7D10022A44B069207931E981F99FFF7C9
:1038900017F80500FEF7FCFF02000B001E981F99A9
:1038A000FEF75FFF069A079BFEF78BFF08900991D2
:1038B000FFF72AF80600FEF7E7FF02000B00089862
:1038C0000999FEF74EFF0022954B08900991FEF7EB
:1038D000C9FF002800D1D2E001363000FEF7D4FF46
:1038E000069A079BFEF7B6FF002801D00026013597
:1038F000AA46002F00D098E02800FEF7C9FF02007A
:103900000B001E981F99FEF72CFF854B0022060026
:103910000F00FEF799FF0CAB9A46002845D1002214
:10392000300039007E4BFEF79DFF00283DD1EB07AC
:103930003BD5013539E0229B42460493219B5946F1
:1039400003930A981E9B1F9C0295009301944B467B
:10395000FFF704FD15B0F0BCBB46B246A946A04631
:10396000F0BD229B5B0767D403226E4B2299019224
:10397000039121990291009342464B4659460A9879
:10398000FFF75EFBE6E706AA944617232800634488
:103990000A2101341E19FEF781FC303128003170F4
:1039A0000A21FEF77BFC051E76D0202CEBD10323E9
:1039B000229A1340012B1DD1219B002B1AD00B9B67
:1039C000002B00D0BBE0229A0C33134200D0B6E0AB
:1039D000219BA34200D887E006AB9C4617223023E8
:1039E000624404E02199013413558C4259D0202CB3
:1039F000F8D12024229B01940393219B02935346E8
:103A0000B9E706AA944617230A216344300001341B
:103A10001D19FEF76BFC3031297030000A21013F7F
:103A2000FEF764FC092E46D90600202CE9D1554644
:103A30000CAB20249A46B8E704223B4B96E71E9A2B
:103A40001F9B00200021FEF78CFE01230B93802397
:103A5000229C229ADB001E901F911C401A4200D02B
:103A6000FCE60022314B0627069207930DE7229BC6
:103A70000393219B0293042301932D4B7BE70022A8
:103A800008980999264BFEF7DFFE002800D02FE7A3
:103A9000002E4FD101362BE70323229A1340012B2E
:103AA00066D0202CA6D00B9B002B1FD02D23524676
:103AB000135501349EE75546202CB9D030233A19CE
:103AC000002F08D0172006A9013409180B55202C07
:103AD000AED09442F6D10CAB9A462E2352461355E3
:103AE000013462E72024CCE6202C83D0229B5B07A4
:103AF00008D4229B1B0700D47CE720235246135591
:103B0000013477E72B2352461355013472E7C04640
:103B1000FFFFEFFFFFFFEF7F65CDCD4165CDCDC14D
:103B20000000E03F808300107883001080842E41E5
:103B300088830010F30700D4DAE60136D8E6219B2B
:103B4000013B2193A34200D946E7AAE7229B0393B6
:103B5000219B029303230193074B0CE7074BEA00D9
:103B60009B185C681B682F000693079400248CE662
:103B7000219B002B95D022E7848300102086001023
:103B8000F0B55746DE464E464546E0B5A5B01F00A7
:103B90002E9B91460D93CA4ACA4B82468B461A60A9
:103BA000002900D129E2002338789846002800D166
:103BB0002BE2C54B44460C93C44B55464E460E93E0
:103BC0000AE0631C9846220033005946A847444641
:103BD0003878002800D187E001372528F1D1082363
:103BE0009A46043B9946023B9846013B00229C467C
:103BF0000B943878791C0300203BDBB2102B03D8E0
:103C00000C9C9B00E3589F460300303B0B9C0B929F
:103C1000092B3AD9002398462A2800D1DDE0002359
:103C20009A462E284BD00300683BDBB2122B1ED8DD
:103C30000E9A9B00D3589F4663460F001A43D8E75D
:103C400043460F001A43D4E74B460F001A43D0E710
:103C500010230F001A43CCE753460F001A43C8E75E
:103C600080235B000B9A78781A430B9201310F0086
:103C700067284FD82428A4D90300253BDBB2422B68
:103C80009FD893499B00CB589F46002398460B9B97
:103C900047469C4600E00131BB00DB195B001F1862
:103CA0000878303F0300303B092BF4D963460B936F
:103CB0000023B8469A460F0001312E28B3D1802048
:103CC0000B9AC00002430B923022524294467878FD
:103CD0000B0084446246092A00D8AAE12A2800D1B0
:103CE000B9E10F0001319EE7A046AA46B146C8459A
:103CF00003D301235B424B4498464B464246594608
:103D00000020D047200025B0F0BCBB46B246A946F3
:103D1000A046F0BD01006939C9B20F2900D950E7AA
:103D200001238B409C466B4B994663464A461340A1
:103D30000F9362464B461A4200D068E10A2956D0DA
:103D4000072900D03DE70D9B02CB9846002900D003
:103D500092E10B9B10211A008A4310001131084395
:103D6000814680201A00C0000240110003421CD18D
:103D700014AB9C461F220F2362440D959C461500F0
:103D80000F9B0B9402E0202B0CD0110064460C40DA
:103D900020003730092C00D807380133E8540A09CD
:103DA0000F29F0D80B9C0D9D0F934B4608220693CC
:103DB0005346059208320392002204930F9B02920D
:103DC00001931CAB22000093594633002800FFF7F3
:103DD0008DF9434604000D93FAE60D9B04CB904603
:103DE000002A79DB78780D930F00013117E70D9BDE
:103DF00002CB14930B789C4618005346002B00D13D
:103E000034E1002815D05346013B013399460D9407
:103E10000B9C89444A460B00A14601E0934203D023
:103E20005C780133002CF9D14A465B1A0D9C0B9249
:103E30000F938023DB0099460B9A13400D934B465A
:103E40001A4204D00F9B534501D953460F930223C6
:103E500099460B9A13400B934B46134200D1F5E160
:103E60006346002B00D1D6E10D9B002B00D182E1EF
:103E70000B1BD14631009A463B00A1442E005F4601
:103E80004D4622009B46894609E04B463900541CAA
:103E9000B0475346185D002800D192E122009542B8
:103EA000F3D14B465A46A946BB46350017001E00C3
:103EB0004C460B9B002B00D0ADE1149B0D9387E685
:103EC000813B0010DC26002080840010C484001098
:103ED00010850010419000000B9A283802430B9285
:103EE00042465242787890460F000D93013196E693
:103EF00078786C2800D15DE180230B9A5B001A432F
:103F00000B920131B3E680239B00ABE678786828FA
:103F100000D148E180230B9A01311A430B92A6E6A7
:103F2000672800D1B2E0472800D11AE1452800D126
:103F30001CE10B9A0721049242460D9B0392073322
:103F400052468B43190002920CC92800009201933B
:103F50000D91220033005946FFF700FA040037E6BE
:103F6000462800D18DE00B9A0721049242460D9B12
:103F70000392073352468B43190002920CC9280062
:103F8000009201930D91220033005946FFF718FC6F
:103F900004001DE6631C9846220033005946252084
:103FA000A847444614E60D9B04330F93631C9946BF
:103FB0000B9B9A0700D40AE10D9B22001878594602
:103FC0003300A84743464444012B00D86FE1B04674
:103FD0002E0025004C46B9465F4622004346013478
:103FE00039002020B047AC42F7D12C00BB46350049
:103FF0004F4646460F9B0D93EAE5D64B38789A46D6
:1040000000239846002800D0D3E500246FE66F28EF
:1040100042D000D8FDE11023782800D19BE00B9A14
:104020009A430B920A239C46002314930A330F935E
:1040300038E057460B9AB900C919490001330F18E7
:104040001878303F010030390929F4D9BA460B926B
:104050001F00591CE7E50D9BB87804CB0237D1430C
:10406000C9170A4092460D93791CDCE5002800D15F
:10407000DFE602235B42C8E621200B9A0243914609
:1040800076E620230B9A1A430B926CE780230B9A57
:104090001B011A430B924CE708239C460023149300
:1040A00008330F930B9880230200DB001A401100A5
:1040B0000200184200D080E00C239A4310008023B5
:1040C00002009B001A400B92184200D0F1E08023BE
:1040D00002005B001A4091460D9A04321492184275
:1040E00000D0C3E2430600D5D7E0030600D421E3A5
:1040F0000D9B1B880993002B00D02DE110339843B2
:10410000002900D128E100239946434605935346F0
:1041100004930F9B06900393002302934B46019355
:104120001CAB22000093594633002800FEF7DEFF47
:104130000400C2E6582809D0622800D0E3E2022336
:104140009C460023149302330F93ABE720230B9A72
:104150001A430B92103B9C460023149310330F9389
:10416000A0E780230B9A1B011A430B9220230B9A82
:104170001A430B92DDE60B1B9A460F9B99463B00B8
:1041800037005E469B4622003B003100A84753465D
:104190000134185D0028F6D14B460F935B46B346B9
:1041A0003E001F0085E6C0230B9AB8781A430B9295
:1041B000F91C5CE5C0239B00F6E70D239A43100031
:1041C0007DE75B463500BB464E461F0071E6434621
:1041D000012B66D9631E434432002E001D003B00B4
:1041E000A2465F4691469B4622004B460134390069
:1041F0002020B047AC42F7D15B463500BB464E4667
:10420000A14654461F000D9B4A4618785946330074
:104210004444A847EEE60F9BA146984500D84CE6DB
:104220004444E41AB0462E0025004C46B9465F4689
:1042300022004346013439002020B047AC42F7D178
:104240002C00BB4635004F46464636E60F98804563
:1042500000D873E24346E218131A32002E001D0004
:104260003B0091465F469B460F9122004B4601342E
:1042700039002020B047AC42F7D15B46BB461F0057
:1042800043460F9901330F930B7835009C464E46F9
:104290006046002800D0E7E50FE60D9B1B780993E8
:1042A00029E70D9B2200187859463300A8474C4651
:1042B000A0E60D9AFA3BFF3B07329A430133994639
:1042C00091444B460D931368526815921A4306D1D8
:1042D0001032904300220992002900D083E061222D
:1042E000810600D54122D2B20A9214AA91460A9AB6
:1042F00000210A3A0B9242461792524618925A46A9
:10430000B24609911E001F31149B4944BB461694C6
:104310001A950024674698468946159D19901B9268
:104320000AE03032D2B24B4601341A55A8454CD07F
:10433000202C4CD006000D003A000023300029004C
:10434000FEF712F8D2B2092AEBD90B9B9C466244C5
:10435000D2B2E8E73D3000106123820600D5412348
:10436000DBB20A3B0B93434614A91F228C461593DC
:1043700053466244B2460D9417974C468046A94670
:104380001700099D0F9E169308E03033DBB201340D
:104390003B55B5420ED3202C0CD00500310028002F
:1043A000FDF7A4FFCBB20929EFD90B9A94466344D9
:1043B000DBB2ECE7159B40469846169B4D465646A9
:1043C000A1469A460D9C179F9FE6B742B0D9179B0E
:1043D00056469846189B5F469A461B9B09949B46F7
:1043E000169C19981A9D43460593534604930F9BB8
:1043F0000690039300230293099B01931CAB2200B8
:104400000093594633002800FEF770FE0400FFF7C2
:10441000DFFB10230B9A9A430F92692800D091E199
:104420000B9980230A00DB001A4010000A00194291
:1044300003D0112118008A430F920F9A8023110094
:104440009B0019408C461A425BD1802311005B000F
:10445000194089460D9904310B911A4200D0B2E0FF
:1044600013005B0600D4EDE00D9B1B781A00D90FFA
:104470000D91002B00D1A3E0100014AA94464246EF
:104480001F23159252466344A846BA464D461494DB
:10449000B14604001F00169201E0202D0FD020002D
:1044A0000A21FDF723FF01357E19303131702000DC
:1044B0000A21FDF71BFF26000400092EEDD8159BED
:1044C0004E46A94645469846169B57469A46149C22
:1044D0000F9B069343460593534604930A23039385
:1044E0000D9B02934B4601931CAB2200009359464F
:1044F00033002800FEF7FAFD0B9B04000D93FFF735
:1045000067FB07220D9B07339343013294469C447B
:1045100062460D920CCBD90F0B911100194300D1BB
:104520009BE0D91713911291514010911399594062
:10453000119110981199129A139B801A9941109019
:10454000119114AA94464246002315925246994668
:10455000169232001F336344A8464E46BA4614945E
:104560001F00109C119D914601E0202E10D02000CC
:1045700029000A220023FDF7F7FE013630322B0016
:10458000BA550D0022000400002BEED1092AECD808
:10459000159B10941195454698464B46169AB14680
:1045A00057461E009246149C0F9B06934346059364
:1045B000534604930A2303930B9B02934B461CE739
:1045C000002885D159E70D9B1B68DA0F1100002BDD
:1045D00000D1A6E0DA179818504014AA91461F237C
:1045E00042464B44A8460D94169704006546B146D2
:1045F0001F001491159201E0202D0FD020000A21F8
:10460000FDF774FE01357E193031317020000A212A
:10461000FDF76CFE26000400092EEDD8159BAC4674
:1046200045469846149B4E4619000D9C169F0F9BBD
:104630000291069343460593534604930A2303933A
:10464000634650E713001B066ED50D9B00229B5E50
:10465000D9175A184A4092B209E700239946002810
:10466000A2D100220023109211936AE70D9B1B68D0
:104670009946002B03D110339843002938D1612388
:10468000820600D54123DBB20A3B0D9343461693C5
:10469000534614A91F228C4617932B0062444D46A3
:1046A000B246159418978046170099460B9C0F9EAA
:1046B00008E03033DBB201343B55B5420ED3202C39
:1046C0000CD0050031002800FDF710FECBB20929FF
:1046D000EFD90D9A94466344DBB2ECE7169B404653
:1046E0009846179B56464D469A460B94189F159C24
:1046F00043460593534604930F9B06900393002370
:1047000002930B9B0BE50B9980230A00DB001A40F8
:1047100010000A00194200D08BE610239A430F9232
:104720008BE6002883D158E70D9B1B68D9175A18D0
:104730004A409CE60D9B1B680993DCE403000133AF
:104740000F93A5E50B926DE400B585B003910121AF
:1047500002900093034813004A4202A9FFF710FA9F
:1047600005B000BD4D33001010B5094A03001468B0
:1047700084B0002C08D0012200910648524203A9BF
:10478000A047012004B010BD00F0F4F90020F9E7C3
:10479000DC2600203D33001000BEFDE7094A03007F
:1047A0001068002805D00849C3188B4207D8136049
:1047B000704706480449C31810608B42F7D901209E
:1047C0004042F5E7D8220020000004204C270020BA
:1047D00010B5FFF7E1FFC04670B5FDF73BFC074D94
:1047E000074EB54209D20024013E761BB60808CD1B
:1047F000984723000134B342F9D170BDA481001061
:10480000AC810010030010B5080011001B68984728
:1048100010BDC046F0B5C64600B5437D07000D008B
:104820001600002B38D0002A2EDD00216A1E90468B
:104830006A5C037D4C1C00200A2A0CD0A64216D0CC
:1048400043461B5D21000D3B5A4253416A5CDBB27B
:104850004C1C0A2AF2D1002BF0D1884217DB02212E
:1048600010483B689847A64207D02000E8E78642F8
:1048700003DD311A3B6828189847AD19013D2B78A4
:104880000D3B5A4253413B7580BCB846F0BD091AF6
:104890003B6828189847E2E703681100280098470A
:1048A000F2E7C04670860010F0B5C6460B680600F9
:1048B0000C0000B5802B06D05A1C2260E41826712B
:1048C00080BCB846F0BD0F4B1D68002D16D00B1DE7
:1048D00098460D4F02E02D69002D0FD02B68002B5C
:1048E000F9D03B68002B01D0AB42F4D128004146FF
:1048F0002268FFF78FFF2D69002DEFD101220023E1
:10490000DBE7C046C8220020D4220020F0B5DE46F6
:1049100057464E464546E0B585B017001C000600D8
:104920000D00FDF74BF90023314A12184B4180214D
:1049300009068B4202D301222E4B52422E49080017
:104940008A4603F0E9FB01906B1C03D1300003F0B1
:1049500025FA0500002C26D0284B9846284B1C68C9
:10496000002C15D0002F21D1264F02E02469002C05
:104970000ED02368002BF9D03B68002B01D09C425D
:10498000F4D120002A003100C0472469002CF0D166
:10499000019B002B28D1280005B0F0BCBB46B246D5
:1049A000A946A046F0BD184B9846D7E7154B994647
:1049B00002ABDF1D0A239B4602E02469002CE7D0EE
:1049C0002368002BF9D04B461B68002B01D0A34273
:1049D000F3D12A0031002000C0475B460122390094
:1049E00020003B70C047E8E7504603F05DFBD2E78C
:1049F00040420F00FFFFFF7FD01600201548001037
:104A0000C8220020D4220020054800100A4A13685A
:104A1000002B05D10CE01A001B691032002B07D0C7
:104A20009842F8D1002902D10369136001617047EF
:104A30000029FCD01060FAE7C822002010B500F071
:104A40004FFB10BDF0B5CE464746040080B583B09D
:104A5000FDF7B4F826000027802336184F411B06C7
:104A60009F4202D30126194F7642194BB946984608
:104A7000184D43461C68002C03D116E02469002C15
:104A800013D02B68002B01D09C42F7D1A368002BD8
:104A9000F4D0012101A898470028EFDD6B46187972
:104AA00003B0C0BCB946B046F0BD0B4B5A6A914545
:104AB00007D89B6AB34202D302204042F0E79145F7
:104AC000FAD101200021FDF783F8D2E7FFFFFF7F35
:104AD000C8220020D422002000400540F0B5CE4678
:104AE000474680B583B06B460600DD1D2870FDF794
:104AF00065F800231A4A12184B41802109068B429F
:104B000002D30122174B524217490800884603F08E
:104B100003FB164B81461C68002C14D0144F02E096
:104B20002469002C0FD02368002BF9D03B68002BA0
:104B300001D09C42F4D1200001222900FFF76AFE37
:104B40002469002CEFD14B46002B05D1300003B077
:104B5000C0BCB946B046F0BD404603F0A5FAF5E743
:104B600040420F00FFFFFF7FD0160020C822002028
:104B7000D422002070B5040003F010F901230100D5
:104B8000050001222000FFF7C1FE084B1C68002C25
:104B900006D06368002B05D098472469002CF8D113
:104BA000280070BD2469002CF3D1F9E7C822002049
:104BB000F0B5CE46474680B5A3B004000D00FCF723
:104BC000FDFF0023294A12184B41802109068B4220
:104BD00002D30122264B5242264F380003F09CFAA2
:104BE00000230600019322002B00234801A9FFF7B0
:104BF000ABFD019B8046002B14D1204B1C68002C80
:104C000006D06368002B0BD098472469002CF8D19C
:104C1000002E25D1404623B0C0BCB946B046F0BDF9
:104C20002469ECE7154B1D689946002D1CD0144CE7
:104C300002E02D69002D0FD02B68002BF9D02368DE
:104C4000002B01D0AB42F4D12800019A02A9FFF752
:104C5000E1FD2D69002DEFD14B4601951C68CEE793
:104C6000380003F021FAD5E70195D1E740420F0063
:104C7000FFFFFF7FD0160020A9480010C8220020A7
:104C8000D42200200FB400B583B004A901C901915A
:104C9000FFF78EFF03B008BC04B018477047C0464A
:104CA0000022014B1A707047462700204B790020E4
:104CB000FF2B0BD18B79002B08D1CB79012B05D1A0
:104CC000082A03D9024B8A7809301A707047C04607
:104CD000462700200120704710B5012901D001208E
:104CE00010BD13495379107909781B020343002042
:104CF0009942F5D15378012B08D0022BF0D1002036
:104D000064220021FDF7EEF80120E9E7D3789178DD
:104D10001B021943DB0507D54A0A100001231A407C
:104D20007E331940FDF766F901204A0A4042F5E753
:104D300046270020004870473C87001070B50500EA
:104D400014000120012909D153780020012B05D13D
:104D5000637912791B021343072B00D070BD210029
:104D60002800024A9F3301F05FFAF7E794860010AB
:104D70000123037000487047748600104B780A784E
:104D80001B0213438A7810B512041A43CB781B0612
:104D900013439622D200934200D010BD002201207E
:104DA00011004042FDF726F9024B1860024B1960D2
:104DB0007047C046682200206C22002010B5024BCC
:104DC0001878FCF7C7F810BD47270020154B70B5C1
:104DD0001A68002A22D0EFF3108172B610680028FA
:104DE000FCD0BFF35F8F00200F4A596010701B6822
:104DF000BFF35F8F186081F31088002400250B4EED
:104E00003078FCF79BF8002804D100240025290005
:104E1000200070BD3078FCF79DF8F8E7FA240025F3
:104E2000A400ECE7002700204827002047270020A7
:104E300070B5040000200E0001F016FB002836D0EB
:104E4000002001F027FB002831D0FCF7B7FE00233B
:104E5000184A12184B41802109068B4216D2164D72
:104E6000280003F059F9002821D0002001F0FCFAB5
:104E700000280FD101200021404200F009FD032449
:104E80006442280003F010F9200070BD01220B4B92
:104E90005242E4E7002001F0FDFA0028EAD02100A8
:104EA0003200002001F000FB041EEAD1E7E70324F2
:104EB0006442E9E740420F0028270020FFFFFF7F00
:104EC00010B5FCF77BFE00230E4A12184B418021DF
:104ED00009068B4202D301220B4B52420B4C20009D
:104EE00003F01AF900280CD001200021404200F004
:104EF000CFFC002001F022FB0028F5D1200003F0B8
:104F0000D3F810BD40420F00FFFFFF7F282700208D
:104F1000F8B5DE46574680B505000C00FCF74EFE9E
:104F20000023374A12184B41802109068B4202D3D5
:104F30000122344B5242344908008A4603F0ECF80F
:104F4000002803D1C0BCBB46B246F8BD002001F02A
:104F50008BFA00284AD00026002C43DD2B4B9B46C1
:104F600014E0A919002001F023FB07000120002113
:104F7000404200F08DFC002001F0E0FAFCF71EFE3C
:104F8000224BF61918605960B4422BDD002001F065
:104F90002FFBA71B0200B84200DD3A00002AE0D137
:104FA00001200021404200F073FC002001F0C6FA0D
:104FB000002001F059FA002814D0002001F018FB5D
:104FC0000028E1D1FCF7FAFD5B460F001A685B6828
:104FD000002184460E4812184B419F4202D8D3D17B
:104FE0009445D1D9504603F05FF8ABE7002000218B
:104FF000064B18605960504603F056F8A2E7C046C9
:1050000040420F00FFFFFF7F282700205818002094
:1050100020A1070030B52B4C85B00021200003F003
:1050200063F800281CD1284B1A68002A16D0EFF329
:10503000108172B610680028FCD0BFF35F8F012486
:105040002248596002781B68D2B20470BFF35F8FA8
:105050000020186081F31088002A17D005B030BDF9
:1050600001200021404200F013FC002001F012FA60
:105070000500200003F018F8002DEFD0144B1B683A
:10508000002BEBD0134A10689847E7E7FCF76AFB60
:105090000400FCF793FDFA220023920012184B4102
:1050A000802109068B4202D301220B4B524201217F
:1050B000029100210191094920000091FCF756FB63
:1050C000CCE7C046282700200027002048270020E2
:1050D000682200206C220020FFFFFF7FCD4D0010D2
:1050E000D02310B51B0684B01C68FCF73BFBFCF713
:1050F00039FCA04202D0002004B010BD2A4B002190
:1051000000201B7801F070FD28480368002B47D071
:105110000120FCF7B7F8FF23254C264920701840E2
:10512000FBF732FF20780121FBF7F6FE0520FBF7A5
:1051300019FF002826D1082200211F48FDF772FF21
:10514000FCF710FB0400FCF739FDFA220023920063
:1051500012184B41802109068B4202D30122174BC2
:105160005242012102910021019115492000009134
:10517000FCF7FCFA0028BEDB12480121FFF746FCD1
:105180000120B9E70120FBF795FE0B4B0100180049
:10519000FCF7DAF8002205200B49FBF71FFFEBE7CD
:1051A000FCF7B6F8B4E7C046F489001028270020C1
:1051B000472700201550001000270020FFFFFF7F29
:1051C000CD4D001060110020BD4D0010004870470B
:1051D000D8870010004870478487001010B504007D
:1051E00017480378002B20D0002C06D1154B164809
:1051F0004380063BFF3B038010BD052C19D8134BA1
:10520000A400E05812490123013804E001330A8068
:105210000231142B0FD0C25C002AF7D1C022DBB2BE
:105220005B00920008481343E5E7112100F01AF8EB
:10523000DAE70020E0E7CA2303489B00DBE7C0462B
:105240003027002009040000A02200206C870010F5
:10525000A222002010B5024800F0D8F810BDC046C8
:105260001827002030B54B1E012900D1A7E0664A5F
:1052700011780D092C0030349F2900D9A2E0047068
:10528000012B00D1BEE00F21147821400C003034F6
:10529000092900D998E04470022B00D1B2E054787B
:1052A0002509290030319F2C00D990E08170032B13
:1052B00000D1A7E00F2121400C003034092900D98A
:1052C00087E0C470042B00D19CE094782509290064
:1052D00030319F2C00D97FE00171052B00D191E086
:1052E0000F2121400C003034092900D976E04471A7
:1052F000062B00D186E0D4782509290030319F2C77
:1053000000D96EE08171072B00D17BE00F21214095
:105310000C003034092966D8C471082B00D171E023
:1053200014792509290030319F2C5FD80172092B8F
:1053300068D00F2121400C003034092958D844721C
:105340000A2B5FD054792509290030319F2C52D87F
:1053500081720B2B56D00F2121400C0030340929CB
:105360004BD8C4720C2B4DD09479250929003031CB
:105370009F2C00D9073101730D2B43D00F21214001
:105380000C003034092901D937310C0044730E2B3D
:1053900038D0D1790C09220030329F2900D9073248
:1053A00082730F2B2ED00F220A4011003731092AA9
:1053B00001D830321100C173102B23D010300023DC
:1053C000037030BD07345AE737310C0063E707310B
:1053D0006CE737310C0074E707317DE737310C009B
:1053E00085E707318EE737310C0095E707319DE7F8
:1053F00037310C00A3E70731AAE737310C00C4723C
:105400000C2BB1D1C018DAE71827002010B588B0EE
:1054100004000D2200216846FDF704FE0D22002144
:1054200004A8FDF7FFFD4B236A466846137004A9E4
:105430000D2202F031FE1521082220006944FDF7FB
:10544000F7FD08B010BDC046F8B500F043F90C23D5
:10545000194DFF22AB6705201849FBF7BFFD184C1B
:10546000402200212000FDF7DDFD4027002301261A
:105470002121144A66702783A260136063545F3150
:10548000618445396354104A10496360E26027879C
:10549000A1620B606362E26202F0F6FD80239B056D
:1054A0002E64EB6490230A4A0120EA508022094BC3
:1054B0005202DA64F8BDC046000011500106002017
:1054C000DC22002084001050000110508000105099
:1054D00010D001000020115010B501210520FBF76C
:1054E0001BFD10BD10B500220021024800F012F98A
:1054F00010BDC046FC220020044B1970002904D0C6
:1055000080219023024A8902D1507047422700200F
:10551000002011500B785B0602D14B78052B00D090
:1055200070478A78014B1A60FAE7C04600001150B4
:10553000F0B5C646C87800B58007830F1800012B68
:1055400060D08F780A794B797F213940FC091B02A2
:105550004E001343334D32195201AA189770012798
:105560006740577000275B055B0DD7701383D076BB
:10557000B846CA00012C32D02B4FBC468F01624482
:10558000BC46AC446746BA6047461760002932D033
:10559000264AC90090466246414451603F223F334B
:1055A0009343022837D0224937190A687F01D3185C
:1055B0000B602049EF19FA608B422ED8361976011C
:1055C000AD19EB7E1C499B064A401343802212060C
:1055D00013436A681360012080BCB846F0BD174FC2
:1055E000BC468F016244BC46AC446746BA6247463B
:1055F0001760002908D1002364012C196360104B47
:10560000E360E8E70020E7E70B4AC90090466246FE
:1056100041445162C2E75B00C5E7FCF715FDFA683B
:10562000CCE7C046DC22002084001050040010505B
:10563000E4260020FF0F1050000010508000105092
:105640000001105010B502F01FFD10BD10B57F20F5
:105650000C0020404000E409110000191A00034B1F
:105660004001C01800F056F8012010BDDC220020D7
:105670007F23180010B50840CA090B4203D107491F
:105680007D3B9B1A8B66400080188022044B4001B2
:105690000021C018120102F05FFD10BD0020115062
:1056A000DC2200207F22130010B50B400A4200D1FB
:1056B00010BDC9095B005B1804485B01C0180023DA
:1056C00000220349C37002F047FDF1E7DC2200200D
:1056D000FFF7FFFF80220A4B520410B51A60094BF6
:1056E00009491A6010000B689843FBD18022002101
:1056F00052010648FDF796FC0922054B5A6710BD7A
:1057000000E0004000F0004008C0004000001050E1
:1057100000001150002310B5C382013382828376CA
:105720000161040002F008FD002804D080219023CC
:10573000074A8902D150200002F006FD002802D05D
:105740000123237710BD200002F0EEFCFAE7C046EB
:10575000002011507047C0467047C0460020704777
:10576000002070477047C0467047C0467047C0462B
:105770007047C046024B5878431E9841C0B27047EC
:10578000801D0020024B18784007C00F7047C046AC
:10579000801D0020F0B5D6464F464646C0B5314B79
:1057A00007009A461B780E00FF2B01D0012044E031
:1057B000002941D0002154222B48FDF733FC002260
:1057C0002A4C2B4B20001A70FBF7A2FD294B1C60C2
:1057D000294C2000143CFBF7A9FD200001F00CFE31
:1057E000264B274D1C60274B002B2BD02800FFF7A2
:1057F000BFFA254B2A78186024490024894622499B
:105800000023884610E043461B6862019B18002B6A
:1058100012D05B68002B0FD098472A780134E4B28D
:10582000511C2300A1420FDBA242ECD89B1A5B0162
:105830004B445B68002BEFD10020E0BCBA46B14678
:10584000A846F0BD2A78D7E75346310038001F70CC
:10585000FFF7FAFD0028EFD03800FFF73DFE0120EA
:10586000EBE7C04694110020801D0020781D002029
:1058700043270020D41D00208C110020D81D0020BB
:1058800041270020714D0010D01B0020948800108B
:10589000F0B5DE4657464E464546E0B5C84B91B09A
:1058A00002931B78FF2B00D13EE1C64BC64E9B46B0
:1058B0005F46C64B0DAC0193C54B009335686A69D2
:1058C000EFF3108172B61368002BFCD0BFF35F8F2B
:1058D000A9612800210001F0BDFB6A69AB69BFF333
:1058E0005F8F0021116083F31088002800D11BE135
:1058F0006378082BE2D89B00FB589F466368002B17
:10590000DCD0A0689847D9E77F222179AF4D0A40C3
:105910005300EB189846C8098044404601233030B4
:1059200005799D430571057903339D430571002A6F
:1059300000D100E14346A74A1B7D1278934200D371
:10594000EFE0A54A5B011568ED18002D00D1EBE0F2
:10595000A36862792078AD69A847AFE79F4A1378BA
:10596000002B00D1E0E01378013BDBB21370137819
:10597000002BA3D10122954D01212B780420134344
:105980002B703423EA5C8A43EA54EA5C8243EA548B
:105990000133EA5C8A43EA54EA5C8243EA5423789E
:1059A00000209B4600F0A0FC602223791A40602A68
:1059B00000D1EFE0402A00D1F5E0DB06DB0E012B41
:1059C00000D113E1022B00D1C7E0002B00D0E1E0B1
:1059D000202A00D11CE2002A00D0DBE06379092BE9
:1059E00000D9D7E07E4A9B00D3589F46774D2B784D
:1059F000DB0700D462E7FFF7BBFE5FE7019BDB78C4
:105A0000DB0700D45AE76068FFF7A6FE56E76F4D44
:105A10002B78DB0700D451E728780007C00FFFF789
:105A2000A5FE4BE723786A4999468B46694B6A493C
:105A300098468A4639001A7847460023B046002522
:105A40004E46894610E053461B686A019B18002B9E
:105A500000D176E0DB68300098473A780135EDB246
:105A6000511C2B008D4244DC9542ECD39B1A5B0108
:105A70005B44EFE7237858499946564B8A46984647
:105A80003100BB464E461A7800250023474689461A
:105A90000FE053461B686A019B18002B55D0DB684A
:105AA000300098473A780135EDB2511C2B008D42F9
:105AB00007DC9542EDD39B1A009A5B019446634440
:105AC000EDE7019D542200212800FDF7ABFA1022DA
:105AD000FF214448FDF7A6FA28002022FF211430B8
